{
  "_format": "hh-sol-artifact-1",
  "contractName": "PermitTest",
  "sourceName": "contracts/test/PermitTest.sol",
  "abi": [
    {
      "inputs": [
        {
          "internalType": "contract IMaidCoin",
          "name": "_maidCoin",
          "type": "address"
        },
        {
          "internalType": "contract IMaids",
          "name": "_maids",
          "type": "address"
        },
        {
          "internalType": "contract INursePart",
          "name": "_nursePart",
          "type": "address"
        }
      ],
      "stateMutability": "nonpayable",
      "type": "constructor"
    },
    {
      "inputs": [
        {
          "internalType": "uint256",
          "name": "amount",
          "type": "uint256"
        },
        {
          "internalType": "uint256",
          "name": "deadline",
          "type": "uint256"
        },
        {
          "internalType": "uint8",
          "name": "v",
          "type": "uint8"
        },
        {
          "internalType": "bytes32",
          "name": "r",
          "type": "bytes32"
        },
        {
          "internalType": "bytes32",
          "name": "s",
          "type": "bytes32"
        }
      ],
      "name": "maidCoinPermitTest",
      "outputs": [],
      "stateMutability": "nonpayable",
      "type": "function"
    },
    {
      "inputs": [
        {
          "internalType": "uint256",
          "name": "id",
          "type": "uint256"
        },
        {
          "internalType": "uint256",
          "name": "deadline",
          "type": "uint256"
        },
        {
          "internalType": "uint8",
          "name": "v",
          "type": "uint8"
        },
        {
          "internalType": "bytes32",
          "name": "r",
          "type": "bytes32"
        },
        {
          "internalType": "bytes32",
          "name": "s",
          "type": "bytes32"
        }
      ],
      "name": "maidPermitTest",
      "outputs": [],
      "stateMutability": "nonpayable",
      "type": "function"
    },
    {
      "inputs": [
        {
          "internalType": "uint256",
          "name": "id",
          "type": "uint256"
        },
        {
          "internalType": "uint256",
          "name": "amount",
          "type": "uint256"
        },
        {
          "internalType": "uint256",
          "name": "deadline",
          "type": "uint256"
        },
        {
          "internalType": "uint8",
          "name": "v",
          "type": "uint8"
        },
        {
          "internalType": "bytes32",
          "name": "r",
          "type": "bytes32"
        },
        {
          "internalType": "bytes32",
          "name": "s",
          "type": "bytes32"
        }
      ],
      "name": "nursePartPermitTest",
      "outputs": [],
      "stateMutability": "nonpayable",
      "type": "function"
    },
    {
      "inputs": [
        {
          "internalType": "address",
          "name": "operator",
          "type": "address"
        },
        {
          "internalType": "address",
          "name": "from",
          "type": "address"
        },
        {
          "internalType": "uint256[]",
          "name": "ids",
          "type": "uint256[]"
        },
        {
          "internalType": "uint256[]",
          "name": "values",
          "type": "uint256[]"
        },
        {
          "internalType": "bytes",
          "name": "data",
          "type": "bytes"
        }
      ],
      "name": "onERC1155BatchReceived",
      "outputs": [
        {
          "internalType": "bytes4",
          "name": "",
          "type": "bytes4"
        }
      ],
      "stateMutability": "nonpayable",
      "type": "function"
    },
    {
      "inputs": [
        {
          "internalType": "address",
          "name": "operator",
          "type": "address"
        },
        {
          "internalType": "address",
          "name": "from",
          "type": "address"
        },
        {
          "internalType": "uint256",
          "name": "id",
          "type": "uint256"
        },
        {
          "internalType": "uint256",
          "name": "value",
          "type": "uint256"
        },
        {
          "internalType": "bytes",
          "name": "data",
          "type": "bytes"
        }
      ],
      "name": "onERC1155Received",
      "outputs": [
        {
          "internalType": "bytes4",
          "name": "",
          "type": "bytes4"
        }
      ],
      "stateMutability": "nonpayable",
      "type": "function"
    },
    {
      "inputs": [
        {
          "internalType": "bytes4",
          "name": "interfaceId",
          "type": "bytes4"
        }
      ],
      "name": "supportsInterface",
      "outputs": [
        {
          "internalType": "bool",
          "name": "",
          "type": "bool"
        }
      ],
      "stateMutability": "view",
      "type": "function"
    }
  ],
  "bytecode": "0x608060405234801561001057600080fd5b5060405161089738038061089783398101604081905261002f91610071565b600080546001600160a01b039485166001600160a01b0319918216179091556001805493851693821693909317909255600280549190931691161790556100d6565b60008060006060848603121561008657600080fd5b8351610091816100be565b60208501519093506100a2816100be565b60408501519092506100b3816100be565b809150509250925092565b6001600160a01b03811681146100d357600080fd5b50565b6107b2806100e56000396000f3fe608060405234801561001057600080fd5b50600436106100625760003560e01c806301ffc9a71461006757806313b16a691461008f57806355cfaed9146100a4578063bc197c81146100b7578063ea667fd01461010b578063f23a6e611461011e575b600080fd5b61007a6100753660046106ba565b610157565b60405190151581526020015b60405180910390f35b6100a261009d366004610735565b61018e565b005b6100a26100b2366004610735565b610281565b6100f26100c536600461055e565b7fbc197c819b3e337a6f9652dd10becd7eef83032af3b9d958d3d42f669414662198975050505050505050565b6040516001600160e01b03199091168152602001610086565b6100a26101193660046106e4565b61039b565b6100f261012c366004610619565b7ff23a6e612e1ff4830e658fe43f4e3cb4a5f8170bd5d9e69fb5d7a7fa9e4fdf979695505050505050565b60006001600160e01b03198216636cdb3d1360e11b148061018857506301ffc9a760e01b6001600160e01b03198316145b92915050565b600154604051637ac2ff7b60e01b8152306004820152602481018790526044810186905260ff851660648201526084810184905260a481018390526001600160a01b0390911690637ac2ff7b9060c401600060405180830381600087803b1580156101f857600080fd5b505af115801561020c573d6000803e3d6000fd5b50506001546040516323b872dd60e01b8152336004820152306024820152604481018990526001600160a01b0390911692506323b872dd9150606401600060405180830381600087803b15801561026257600080fd5b505af1158015610276573d6000803e3d6000fd5b505050505050505050565b60005460405163d505accf60e01b8152336004820152306024820152604481018790526064810186905260ff8516608482015260a4810184905260c481018390526001600160a01b039091169063d505accf9060e401600060405180830381600087803b1580156102f157600080fd5b505af1158015610305573d6000803e3d6000fd5b50506000546040516323b872dd60e01b8152336004820152306024820152604481018990526001600160a01b0390911692506323b872dd9150606401602060405180830381600087803b15801561035b57600080fd5b505af115801561036f573d6000803e3d6000fd5b505050506040513d601f19601f820116820180604052508101906103939190610691565b505050505050565b60025460405163090c278560e31b81523360048201523060248201526044810186905260ff851660648201526084810184905260a481018390526001600160a01b03909116906348613c289060c401600060405180830381600087803b15801561040457600080fd5b505af1158015610418573d6000803e3d6000fd5b5050600254604051637921219560e11b8152336004820152306024820152604481018a90526064810189905260a06084820152600060a48201526001600160a01b03909116925063f242432a915060c401600060405180830381600087803b15801561048357600080fd5b505af1158015610497573d6000803e3d6000fd5b50505050505050505050565b80356001600160a01b03811681146104ba57600080fd5b919050565b60008083601f8401126104d157600080fd5b50813567ffffffffffffffff8111156104e957600080fd5b6020830191508360208260051b850101111561050457600080fd5b9250929050565b60008083601f84011261051d57600080fd5b50813567ffffffffffffffff81111561053557600080fd5b60208301915083602082850101111561050457600080fd5b803560ff811681146104ba57600080fd5b60008060008060008060008060a0898b03121561057a57600080fd5b610583896104a3565b975061059160208a016104a3565b9650604089013567ffffffffffffffff808211156105ae57600080fd5b6105ba8c838d016104bf565b909850965060608b01359150808211156105d357600080fd5b6105df8c838d016104bf565b909650945060808b01359150808211156105f857600080fd5b506106058b828c0161050b565b999c989b5096995094979396929594505050565b60008060008060008060a0878903121561063257600080fd5b61063b876104a3565b9550610649602088016104a3565b94506040870135935060608701359250608087013567ffffffffffffffff81111561067357600080fd5b61067f89828a0161050b565b979a9699509497509295939492505050565b6000602082840312156106a357600080fd5b815180151581146106b357600080fd5b9392505050565b6000602082840312156106cc57600080fd5b81356001600160e01b0319811681146106b357600080fd5b60008060008060008060c087890312156106fd57600080fd5b86359550602087013594506040870135935061071b6060880161054d565b92506080870135915060a087013590509295509295509295565b600080600080600060a0868803121561074d57600080fd5b85359450602086013593506107646040870161054d565b9497939650939460608101359450608001359291505056fea264697066735822122088afac65206eb4cdc8ed86ac7d97e78b1bb7310a2b7f0d2246ccaad167cd796364736f6c63430008050033",
  "linkReferences": {},
  "deployedLinkReferences": {}
}