{
  "_format": "hh-sol-artifact-1",
  "contractName": "Maids",
  "sourceName": "contracts/Maids.sol",
  "abi": [
    {
      "inputs": [
        {
          "internalType": "contract IUniswapV2Pair",
          "name": "_lpToken",
          "type": "address"
        },
        {
          "internalType": "contract IERC20",
          "name": "_sushi",
          "type": "address"
        },
        {
          "internalType": "address",
          "name": "_royaltyReceiver",
          "type": "address"
        }
      ],
      "stateMutability": "nonpayable",
      "type": "constructor"
    },
    {
      "anonymous": false,
      "inputs": [
        {
          "indexed": true,
          "internalType": "address",
          "name": "owner",
          "type": "address"
        },
        {
          "indexed": true,
          "internalType": "address",
          "name": "approved",
          "type": "address"
        },
        {
          "indexed": true,
          "internalType": "uint256",
          "name": "tokenId",
          "type": "uint256"
        }
      ],
      "name": "Approval",
      "type": "event"
    },
    {
      "anonymous": false,
      "inputs": [
        {
          "indexed": true,
          "internalType": "address",
          "name": "owner",
          "type": "address"
        },
        {
          "indexed": true,
          "internalType": "address",
          "name": "operator",
          "type": "address"
        },
        {
          "indexed": false,
          "internalType": "bool",
          "name": "approved",
          "type": "bool"
        }
      ],
      "name": "ApprovalForAll",
      "type": "event"
    },
    {
      "anonymous": false,
      "inputs": [
        {
          "indexed": false,
          "internalType": "uint256",
          "name": "value",
          "type": "uint256"
        }
      ],
      "name": "ChangeLPTokenToMaidPower",
      "type": "event"
    },
    {
      "anonymous": false,
      "inputs": [
        {
          "indexed": true,
          "internalType": "uint256",
          "name": "id",
          "type": "uint256"
        },
        {
          "indexed": false,
          "internalType": "uint256",
          "name": "lpTokenAmount",
          "type": "uint256"
        }
      ],
      "name": "Desupport",
      "type": "event"
    },
    {
      "anonymous": false,
      "inputs": [
        {
          "indexed": true,
          "internalType": "address",
          "name": "previousOwner",
          "type": "address"
        },
        {
          "indexed": true,
          "internalType": "address",
          "name": "newOwner",
          "type": "address"
        }
      ],
      "name": "OwnershipTransferred",
      "type": "event"
    },
    {
      "anonymous": false,
      "inputs": [
        {
          "indexed": true,
          "internalType": "uint256",
          "name": "id",
          "type": "uint256"
        },
        {
          "indexed": false,
          "internalType": "uint256",
          "name": "lpTokenAmount",
          "type": "uint256"
        }
      ],
      "name": "Support",
      "type": "event"
    },
    {
      "anonymous": false,
      "inputs": [
        {
          "indexed": true,
          "internalType": "address",
          "name": "from",
          "type": "address"
        },
        {
          "indexed": true,
          "internalType": "address",
          "name": "to",
          "type": "address"
        },
        {
          "indexed": true,
          "internalType": "uint256",
          "name": "tokenId",
          "type": "uint256"
        }
      ],
      "name": "Transfer",
      "type": "event"
    },
    {
      "inputs": [],
      "name": "DOMAIN_SEPARATOR",
      "outputs": [
        {
          "internalType": "bytes32",
          "name": "",
          "type": "bytes32"
        }
      ],
      "stateMutability": "view",
      "type": "function"
    },
    {
      "inputs": [],
      "name": "MAX_MAID_COUNT",
      "outputs": [
        {
          "internalType": "uint256",
          "name": "",
          "type": "uint256"
        }
      ],
      "stateMutability": "view",
      "type": "function"
    },
    {
      "inputs": [],
      "name": "PERMIT_ALL_TYPEHASH",
      "outputs": [
        {
          "internalType": "bytes32",
          "name": "",
          "type": "bytes32"
        }
      ],
      "stateMutability": "view",
      "type": "function"
    },
    {
      "inputs": [],
      "name": "PERMIT_TYPEHASH",
      "outputs": [
        {
          "internalType": "bytes32",
          "name": "",
          "type": "bytes32"
        }
      ],
      "stateMutability": "view",
      "type": "function"
    },
    {
      "inputs": [],
      "name": "accSushiPerShare",
      "outputs": [
        {
          "internalType": "uint256",
          "name": "",
          "type": "uint256"
        }
      ],
      "stateMutability": "view",
      "type": "function"
    },
    {
      "inputs": [
        {
          "internalType": "address",
          "name": "to",
          "type": "address"
        },
        {
          "internalType": "uint256",
          "name": "tokenId",
          "type": "uint256"
        }
      ],
      "name": "approve",
      "outputs": [],
      "stateMutability": "nonpayable",
      "type": "function"
    },
    {
      "inputs": [
        {
          "internalType": "address",
          "name": "owner",
          "type": "address"
        }
      ],
      "name": "balanceOf",
      "outputs": [
        {
          "internalType": "uint256",
          "name": "",
          "type": "uint256"
        }
      ],
      "stateMutability": "view",
      "type": "function"
    },
    {
      "inputs": [
        {
          "internalType": "uint256",
          "name": "value",
          "type": "uint256"
        }
      ],
      "name": "changeLPTokenToMaidPower",
      "outputs": [],
      "stateMutability": "nonpayable",
      "type": "function"
    },
    {
      "inputs": [
        {
          "internalType": "uint256",
          "name": "id",
          "type": "uint256"
        }
      ],
      "name": "claimSushiReward",
      "outputs": [],
      "stateMutability": "nonpayable",
      "type": "function"
    },
    {
      "inputs": [
        {
          "internalType": "uint256",
          "name": "id",
          "type": "uint256"
        },
        {
          "internalType": "uint256",
          "name": "lpTokenAmount",
          "type": "uint256"
        }
      ],
      "name": "desupport",
      "outputs": [],
      "stateMutability": "nonpayable",
      "type": "function"
    },
    {
      "inputs": [
        {
          "internalType": "uint256",
          "name": "tokenId",
          "type": "uint256"
        }
      ],
      "name": "getApproved",
      "outputs": [
        {
          "internalType": "address",
          "name": "",
          "type": "address"
        }
      ],
      "stateMutability": "view",
      "type": "function"
    },
    {
      "inputs": [
        {
          "internalType": "address",
          "name": "owner",
          "type": "address"
        },
        {
          "internalType": "address",
          "name": "operator",
          "type": "address"
        }
      ],
      "name": "isApprovedForAll",
      "outputs": [
        {
          "internalType": "bool",
          "name": "",
          "type": "bool"
        }
      ],
      "stateMutability": "view",
      "type": "function"
    },
    {
      "inputs": [],
      "name": "lpToken",
      "outputs": [
        {
          "internalType": "contract IUniswapV2Pair",
          "name": "",
          "type": "address"
        }
      ],
      "stateMutability": "view",
      "type": "function"
    },
    {
      "inputs": [],
      "name": "lpTokenToMaidPower",
      "outputs": [
        {
          "internalType": "uint256",
          "name": "",
          "type": "uint256"
        }
      ],
      "stateMutability": "view",
      "type": "function"
    },
    {
      "inputs": [
        {
          "internalType": "uint256",
          "name": "",
          "type": "uint256"
        }
      ],
      "name": "maids",
      "outputs": [
        {
          "internalType": "uint256",
          "name": "originPower",
          "type": "uint256"
        },
        {
          "internalType": "uint256",
          "name": "supportedLPTokenAmount",
          "type": "uint256"
        },
        {
          "internalType": "uint256",
          "name": "sushiRewardDebt",
          "type": "uint256"
        }
      ],
      "stateMutability": "view",
      "type": "function"
    },
    {
      "inputs": [],
      "name": "masterChefPid",
      "outputs": [
        {
          "internalType": "uint256",
          "name": "",
          "type": "uint256"
        }
      ],
      "stateMutability": "view",
      "type": "function"
    },
    {
      "inputs": [
        {
          "internalType": "uint256",
          "name": "power",
          "type": "uint256"
        }
      ],
      "name": "mint",
      "outputs": [
        {
          "internalType": "uint256",
          "name": "id",
          "type": "uint256"
        }
      ],
      "stateMutability": "nonpayable",
      "type": "function"
    },
    {
      "inputs": [
        {
          "internalType": "uint256[]",
          "name": "powers",
          "type": "uint256[]"
        },
        {
          "internalType": "uint256",
          "name": "amounts",
          "type": "uint256"
        }
      ],
      "name": "mintBatch",
      "outputs": [],
      "stateMutability": "nonpayable",
      "type": "function"
    },
    {
      "inputs": [],
      "name": "name",
      "outputs": [
        {
          "internalType": "string",
          "name": "",
          "type": "string"
        }
      ],
      "stateMutability": "view",
      "type": "function"
    },
    {
      "inputs": [
        {
          "internalType": "uint256",
          "name": "",
          "type": "uint256"
        }
      ],
      "name": "nonces",
      "outputs": [
        {
          "internalType": "uint256",
          "name": "",
          "type": "uint256"
        }
      ],
      "stateMutability": "view",
      "type": "function"
    },
    {
      "inputs": [
        {
          "internalType": "address",
          "name": "",
          "type": "address"
        }
      ],
      "name": "noncesForAll",
      "outputs": [
        {
          "internalType": "uint256",
          "name": "",
          "type": "uint256"
        }
      ],
      "stateMutability": "view",
      "type": "function"
    },
    {
      "inputs": [],
      "name": "owner",
      "outputs": [
        {
          "internalType": "address",
          "name": "",
          "type": "address"
        }
      ],
      "stateMutability": "view",
      "type": "function"
    },
    {
      "inputs": [
        {
          "internalType": "uint256",
          "name": "tokenId",
          "type": "uint256"
        }
      ],
      "name": "ownerOf",
      "outputs": [
        {
          "internalType": "address",
          "name": "",
          "type": "address"
        }
      ],
      "stateMutability": "view",
      "type": "function"
    },
    {
      "inputs": [
        {
          "internalType": "uint256",
          "name": "id",
          "type": "uint256"
        }
      ],
      "name": "pendingSushiReward",
      "outputs": [
        {
          "internalType": "uint256",
          "name": "",
          "type": "uint256"
        }
      ],
      "stateMutability": "view",
      "type": "function"
    },
    {
      "inputs": [
        {
          "internalType": "address",
          "name": "spender",
          "type": "address"
        },
        {
          "internalType": "uint256",
          "name": "id",
          "type": "uint256"
        },
        {
          "internalType": "uint256",
          "name": "deadline",
          "type": "uint256"
        },
        {
          "internalType": "uint8",
          "name": "v",
          "type": "uint8"
        },
        {
          "internalType": "bytes32",
          "name": "r",
          "type": "bytes32"
        },
        {
          "internalType": "bytes32",
          "name": "s",
          "type": "bytes32"
        }
      ],
      "name": "permit",
      "outputs": [],
      "stateMutability": "nonpayable",
      "type": "function"
    },
    {
      "inputs": [
        {
          "internalType": "address",
          "name": "owner",
          "type": "address"
        },
        {
          "internalType": "address",
          "name": "spender",
          "type": "address"
        },
        {
          "internalType": "uint256",
          "name": "deadline",
          "type": "uint256"
        },
        {
          "internalType": "uint8",
          "name": "v",
          "type": "uint8"
        },
        {
          "internalType": "bytes32",
          "name": "r",
          "type": "bytes32"
        },
        {
          "internalType": "bytes32",
          "name": "s",
          "type": "bytes32"
        }
      ],
      "name": "permitAll",
      "outputs": [],
      "stateMutability": "nonpayable",
      "type": "function"
    },
    {
      "inputs": [
        {
          "internalType": "uint256",
          "name": "id",
          "type": "uint256"
        }
      ],
      "name": "powerOf",
      "outputs": [
        {
          "internalType": "uint256",
          "name": "",
          "type": "uint256"
        }
      ],
      "stateMutability": "view",
      "type": "function"
    },
    {
      "inputs": [],
      "name": "renounceOwnership",
      "outputs": [],
      "stateMutability": "nonpayable",
      "type": "function"
    },
    {
      "inputs": [
        {
          "internalType": "uint256",
          "name": "",
          "type": "uint256"
        },
        {
          "internalType": "uint256",
          "name": "_salePrice",
          "type": "uint256"
        }
      ],
      "name": "royaltyInfo",
      "outputs": [
        {
          "internalType": "address",
          "name": "",
          "type": "address"
        },
        {
          "internalType": "uint256",
          "name": "",
          "type": "uint256"
        }
      ],
      "stateMutability": "view",
      "type": "function"
    },
    {
      "inputs": [
        {
          "internalType": "address",
          "name": "from",
          "type": "address"
        },
        {
          "internalType": "address",
          "name": "to",
          "type": "address"
        },
        {
          "internalType": "uint256",
          "name": "tokenId",
          "type": "uint256"
        }
      ],
      "name": "safeTransferFrom",
      "outputs": [],
      "stateMutability": "nonpayable",
      "type": "function"
    },
    {
      "inputs": [
        {
          "internalType": "address",
          "name": "from",
          "type": "address"
        },
        {
          "internalType": "address",
          "name": "to",
          "type": "address"
        },
        {
          "internalType": "uint256",
          "name": "tokenId",
          "type": "uint256"
        },
        {
          "internalType": "bytes",
          "name": "_data",
          "type": "bytes"
        }
      ],
      "name": "safeTransferFrom",
      "outputs": [],
      "stateMutability": "nonpayable",
      "type": "function"
    },
    {
      "inputs": [
        {
          "internalType": "address",
          "name": "operator",
          "type": "address"
        },
        {
          "internalType": "bool",
          "name": "approved",
          "type": "bool"
        }
      ],
      "name": "setApprovalForAll",
      "outputs": [],
      "stateMutability": "nonpayable",
      "type": "function"
    },
    {
      "inputs": [
        {
          "internalType": "address",
          "name": "_receiver",
          "type": "address"
        },
        {
          "internalType": "uint256",
          "name": "_royaltyFee",
          "type": "uint256"
        }
      ],
      "name": "setRoyaltyInfo",
      "outputs": [],
      "stateMutability": "nonpayable",
      "type": "function"
    },
    {
      "inputs": [
        {
          "internalType": "contract IMasterChef",
          "name": "_masterChef",
          "type": "address"
        },
        {
          "internalType": "uint256",
          "name": "_pid",
          "type": "uint256"
        }
      ],
      "name": "setSushiMasterChef",
      "outputs": [],
      "stateMutability": "nonpayable",
      "type": "function"
    },
    {
      "inputs": [
        {
          "internalType": "uint256",
          "name": "id",
          "type": "uint256"
        },
        {
          "internalType": "uint256",
          "name": "lpTokenAmount",
          "type": "uint256"
        }
      ],
      "name": "support",
      "outputs": [],
      "stateMutability": "nonpayable",
      "type": "function"
    },
    {
      "inputs": [
        {
          "internalType": "uint256",
          "name": "id",
          "type": "uint256"
        },
        {
          "internalType": "uint256",
          "name": "lpTokenAmount",
          "type": "uint256"
        },
        {
          "internalType": "uint256",
          "name": "deadline",
          "type": "uint256"
        },
        {
          "internalType": "uint8",
          "name": "v",
          "type": "uint8"
        },
        {
          "internalType": "bytes32",
          "name": "r",
          "type": "bytes32"
        },
        {
          "internalType": "bytes32",
          "name": "s",
          "type": "bytes32"
        }
      ],
      "name": "supportWithPermit",
      "outputs": [],
      "stateMutability": "nonpayable",
      "type": "function"
    },
    {
      "inputs": [
        {
          "internalType": "bytes4",
          "name": "interfaceId",
          "type": "bytes4"
        }
      ],
      "name": "supportsInterface",
      "outputs": [
        {
          "internalType": "bool",
          "name": "",
          "type": "bool"
        }
      ],
      "stateMutability": "view",
      "type": "function"
    },
    {
      "inputs": [],
      "name": "sushi",
      "outputs": [
        {
          "internalType": "contract IERC20",
          "name": "",
          "type": "address"
        }
      ],
      "stateMutability": "view",
      "type": "function"
    },
    {
      "inputs": [],
      "name": "sushiLastRewardBlock",
      "outputs": [
        {
          "internalType": "uint256",
          "name": "",
          "type": "uint256"
        }
      ],
      "stateMutability": "view",
      "type": "function"
    },
    {
      "inputs": [],
      "name": "sushiMasterChef",
      "outputs": [
        {
          "internalType": "contract IMasterChef",
          "name": "",
          "type": "address"
        }
      ],
      "stateMutability": "view",
      "type": "function"
    },
    {
      "inputs": [],
      "name": "symbol",
      "outputs": [
        {
          "internalType": "string",
          "name": "",
          "type": "string"
        }
      ],
      "stateMutability": "view",
      "type": "function"
    },
    {
      "inputs": [
        {
          "internalType": "uint256",
          "name": "index",
          "type": "uint256"
        }
      ],
      "name": "tokenByIndex",
      "outputs": [
        {
          "internalType": "uint256",
          "name": "",
          "type": "uint256"
        }
      ],
      "stateMutability": "view",
      "type": "function"
    },
    {
      "inputs": [
        {
          "internalType": "address",
          "name": "owner",
          "type": "address"
        },
        {
          "internalType": "uint256",
          "name": "index",
          "type": "uint256"
        }
      ],
      "name": "tokenOfOwnerByIndex",
      "outputs": [
        {
          "internalType": "uint256",
          "name": "",
          "type": "uint256"
        }
      ],
      "stateMutability": "view",
      "type": "function"
    },
    {
      "inputs": [
        {
          "internalType": "uint256",
          "name": "tokenId",
          "type": "uint256"
        }
      ],
      "name": "tokenURI",
      "outputs": [
        {
          "internalType": "string",
          "name": "",
          "type": "string"
        }
      ],
      "stateMutability": "view",
      "type": "function"
    },
    {
      "inputs": [],
      "name": "totalSupply",
      "outputs": [
        {
          "internalType": "uint256",
          "name": "",
          "type": "uint256"
        }
      ],
      "stateMutability": "view",
      "type": "function"
    },
    {
      "inputs": [
        {
          "internalType": "address",
          "name": "from",
          "type": "address"
        },
        {
          "internalType": "address",
          "name": "to",
          "type": "address"
        },
        {
          "internalType": "uint256",
          "name": "tokenId",
          "type": "uint256"
        }
      ],
      "name": "transferFrom",
      "outputs": [],
      "stateMutability": "nonpayable",
      "type": "function"
    },
    {
      "inputs": [
        {
          "internalType": "address",
          "name": "newOwner",
          "type": "address"
        }
      ],
      "name": "transferOwnership",
      "outputs": [],
      "stateMutability": "nonpayable",
      "type": "function"
    }
  ],
  "bytecode": "0x610160604052600160105560196012553480156200001c57600080fd5b50604051620044d7380380620044d78339810160408190526200003f9162000314565b82826040518060400160405280600e81526020016d4d616964436f696e204d6169647360901b815250604051806040016040528060058152602001644d4149445360d81b8152506000620000986200026a60201b60201c565b600080546001600160a01b0319166001600160a01b0383169081178255604051929350917f8be0079c531659141344cd1fd0a4f28419497f9722a3daafe3b4186f6b6457e0908290a3508151620000f79060019060208501906200026e565b5080516200010d9060029060208401906200026e565b5050506001600160601b0319606092831b8116608090815291831b1660a09081524660e0819052604080518082018252600e8082526d4d616964436f696e204d6169647360901b60209283018190527fa82d4fbbaa1126728993832399ddf946bf46e7cb76e9f4a73d75fbc889fab91a610100819052845180860186526001808252603160f81b9186018290527fc89efdaa54c0f20c7adf612882df0950f5a951637e0307cdcb4c672f298b8bc66101208190527f8b73c3c69bb8fe3d512ecc4cf759cc79239f7b179b0ffacaa9a75d522b39400f6101408190528851808a018a529687529587019490945286518088018852908152850152845193840192909252928201529485015291830191909152309082015260c00160408051808303601f19018152919052805160209091012060c052601380546001600160a01b0319166001600160a01b039290921691909117905550620003be9050565b3390565b8280546200027c9062000368565b90600052602060002090601f016020900481019282620002a05760008555620002eb565b82601f10620002bb57805160ff1916838001178555620002eb565b82800160010185558215620002eb579182015b82811115620002eb578251825591602001919060010190620002ce565b50620002f9929150620002fd565b5090565b5b80821115620002f95760008155600101620002fe565b6000806000606084860312156200032a57600080fd5b83516200033781620003a5565b60208501519093506200034a81620003a5565b60408501519092506200035d81620003a5565b809150509250925092565b600181811c908216806200037d57607f821691505b602082108114156200039f57634e487b7160e01b600052602260045260246000fd5b50919050565b6001600160a01b0381168114620003bb57600080fd5b50565b60805160601c60a05160601c60c05160e051610100516101205161014051614056620004816000396000610b1701526000610b6501526000610b3d01526000610ac601526000610aef01526000818161036b015281816130ec0152818161319e015281816132410152818161337401526134e601526000818161049f01528181610ff201528181611442015281816117f8015281816118f701528181611a0b01528181611ac801528181611c2001528181611cc40152611d8201526140566000f3fe608060405234801561001057600080fd5b50600436106102955760003560e01c806370a0823111610167578063a39b10fa116100ce578063c87b56dd11610087578063c87b56dd14610628578063c9bbd04a1461063b578063dda368c61461064e578063e2e784d514610661578063e985e9c514610674578063f2fde38b146106b057600080fd5b8063a39b10fa146105b6578063a78cc1a3146105c9578063aba07847146105d2578063b4e13c8d146105e5578063b88d4fde1461060c578063c62c610b1461061f57600080fd5b8063904dfb8e11610120578063904dfb8e1461054257806395d89b41146105625780639be56c671461056a578063a0712d681461057d578063a22cb46514610590578063a234d608146105a357600080fd5b806370a08231146104dd578063715018a6146104f0578063719242c2146104f85780637492ee281461050b5780637ac2ff7b1461051e5780638da5cb5b1461053157600080fd5b80632f745c591161020b5780634fd3c34a116101c45780634fd3c34a1461046b57806357339be61461047457806358bb45c9146104875780635fcbd2851461049a5780636352211e146104c15780636fb49f09146104d457600080fd5b80632f745c59146103fa57806330adf81f1461040d5780633644e5151461043457806338e97f441461043c57806342842e0e146104455780634f6ccce71461045857600080fd5b8063095ea7b31161025d578063095ea7b3146103515780630a08790314610366578063141a468c1461038d57806318160ddd146103ad57806323b872dd146103b55780632a55205a146103c857600080fd5b806301ffc9a71461029a57806303c0bdcd146102c257806304eaa113146102f057806306fdde0314610311578063081812fc14610326575b600080fd5b6102ad6102a8366004613af7565b6106c3565b60405190151581526020015b60405180910390f35b6102d56102d0366004613bef565b6106ee565b604080519384526020840192909252908201526060016102b9565b6103036102fe366004613bef565b610721565b6040519081526020016102b9565b61031961077f565b6040516102b99190613d21565b610339610334366004613bef565b610811565b6040516001600160a01b0390911681526020016102b9565b61036461035f3660046139f3565b6108ab565b005b6103397f000000000000000000000000000000000000000000000000000000000000000081565b61030361039b366004613bef565b600e6020526000908152604090205481565b601154610303565b6103646103c336600461385d565b6109c1565b6103db6103d6366004613c21565b6109f2565b604080516001600160a01b0390931683526020830191909152016102b9565b6103036104083660046139f3565b610a2c565b6103037f49ecf333e5b8c95c40fdafc95c1ad136e8914a8fb55e9dc8bb01eaa83a2df9ad81565b610303610ac2565b610303600b5481565b61036461045336600461385d565b610bb3565b610303610466366004613bef565b610bce565b610303600c5481565b610364610482366004613bef565b610c22565b610303610495366004613bef565b610ccf565b6103397f000000000000000000000000000000000000000000000000000000000000000081565b6103396104cf366004613bef565b610d23565b61030360105481565b6103036104eb366004613807565b610d9a565b610364610e21565b610364610506366004613a5f565b610e95565b610364610519366004613c43565b610fb2565b61036461052c366004613a1f565b611068565b6000546001600160a01b0316610339565b610303610550366004613807565b600f6020526000908152604090205481565b610319611335565b610364610578366004613c21565b611344565b61030361058b366004613bef565b611569565b61036461059e3660046139c5565b61168f565b6103646105b1366004613c21565b61169e565b6103646105c43660046139f3565b6118af565b6103036103e881565b6103646105e0366004613962565b611db3565b6103037fdaab21af31ece73a508939fedd476a5ee5129a5ed4bb091f3236ffb45394df6281565b61036461061a36600461389e565b61201c565b610303600a5481565b610319610636366004613bef565b612054565b600954610339906001600160a01b031681565b61036461065c366004613bef565b612160565b61036461066f3660046139f3565b6121c5565b6102ad610682366004613824565b6001600160a01b03918216600090815260066020908152604080832093909416825291909152205460ff1690565b6103646106be366004613807565b612215565b600063152a902d60e11b6001600160e01b0319831614806106e857506106e8826122ff565b92915050565b601181815481106106fe57600080fd5b600091825260209091206003909102018054600182015460029092015490925083565b6000806011838154811061073757610737613fb8565b90600052602060002090600302019050670de0b6b3a764000060105482600101546107629190613ec0565b61076c9190613eac565b81546107789190613e94565b9392505050565b60606001805461078e90613f22565b80601f01602080910402602001604051908101604052809291908181526020018280546107ba90613f22565b80156108075780601f106107dc57610100808354040283529160200191610807565b820191906000526020600020905b8154815290600101906020018083116107ea57829003601f168201915b5050505050905090565b6000818152600360205260408120546001600160a01b031661088f5760405162461bcd60e51b815260206004820152602c60248201527f4552433732313a20617070726f76656420717565727920666f72206e6f6e657860448201526b34b9ba32b73a103a37b5b2b760a11b60648201526084015b60405180910390fd5b506000908152600560205260409020546001600160a01b031690565b60006108b682610d23565b9050806001600160a01b0316836001600160a01b031614156109245760405162461bcd60e51b815260206004820152602160248201527f4552433732313a20617070726f76616c20746f2063757272656e74206f776e656044820152603960f91b6064820152608401610886565b336001600160a01b038216148061094057506109408133610682565b6109b25760405162461bcd60e51b815260206004820152603860248201527f4552433732313a20617070726f76652063616c6c6572206973206e6f74206f7760448201527f6e6572206e6f7220617070726f76656420666f7220616c6c00000000000000006064820152608401610886565b6109bc8383612324565b505050565b6109cb3382612392565b6109e75760405162461bcd60e51b815260040161088690613e12565b6109bc838383612489565b60135460125460009182916001600160a01b03909116906103e890610a179086613ec0565b610a219190613eac565b915091509250929050565b6000610a3783610d9a565b8210610a995760405162461bcd60e51b815260206004820152602b60248201527f455243373231456e756d657261626c653a206f776e657220696e646578206f7560448201526a74206f6620626f756e647360a81b6064820152608401610886565b506001600160a01b03919091166000908152600760209081526040808320938352929052205490565b60007f0000000000000000000000000000000000000000000000000000000000000000461415610b1157507f000000000000000000000000000000000000000000000000000000000000000090565b604080517f000000000000000000000000000000000000000000000000000000000000000060208201527f0000000000000000000000000000000000000000000000000000000000000000918101919091527f000000000000000000000000000000000000000000000000000000000000000060608201524660808201523060a082015260c00160405160208183030381529060405280519060200120905090565b6109bc8383836040518060200160405280600081525061201c565b6000610bd960115490565b8210610c1e5760405162461bcd60e51b815260206004820152601460248201527309ac2d2c8e6744092dcecc2d8d2c840d2dcc8caf60631b6044820152606401610886565b5090565b33610c2c82610d23565b6001600160a01b031614610c525760405162461bcd60e51b815260040161088690613d34565b610ca460118281548110610c6857610c68613fb8565b90600052602060002090600302016001015460118381548110610c8d57610c8d613fb8565b906000526020600020906003020160020154612634565b60118281548110610cb757610cb7613fb8565b90600052602060002090600302016002018190555050565b60006106e860118381548110610ce757610ce7613fb8565b90600052602060002090600302016001015460118481548110610d0c57610d0c613fb8565b9060005260206000209060030201600201546127da565b6000818152600360205260408120546001600160a01b0316806106e85760405162461bcd60e51b815260206004820152602960248201527f4552433732313a206f776e657220717565727920666f72206e6f6e657869737460448201526832b73a103a37b5b2b760b91b6064820152608401610886565b60006001600160a01b038216610e055760405162461bcd60e51b815260206004820152602a60248201527f4552433732313a2062616c616e636520717565727920666f7220746865207a65604482015269726f206164647265737360b01b6064820152608401610886565b506001600160a01b031660009081526004602052604090205490565b6000546001600160a01b03163314610e4b5760405162461bcd60e51b815260040161088690613ddd565b600080546040516001600160a01b03909116907f8be0079c531659141344cd1fd0a4f28419497f9722a3daafe3b4186f6b6457e0908390a3600080546001600160a01b0319169055565b6000546001600160a01b03163314610ebf5760405162461bcd60e51b815260040161088690613ddd565b818114610f0e5760405162461bcd60e51b815260206004820152601960248201527f4d616964733a20496e76616c696420706172616d6574657273000000000000006044820152606401610886565b60115460005b82811015610fab5760116040518060600160405280878785818110610f3b57610f3b613fb8565b602090810292909201358352506000828201819052604092830181905284546001818101875595825290829020845160039092020190815590830151938101939093550151600290910155610f9933610f948484613e94565b612974565b610fa4600182613e94565b9050610f14565b5050505050565b60405163d505accf60e01b8152336004820152306024820152604481018690526064810185905260ff8416608482015260a4810183905260c481018290527f00000000000000000000000000000000000000000000000000000000000000006001600160a01b03169063d505accf9060e401600060405180830381600087803b15801561103e57600080fd5b505af1158015611052573d6000803e3d6000fd5b505050506110608686611344565b505050505050565b834211156110b25760405162461bcd60e51b81526020600482015260176024820152764d616964733a204578706972656420646561646c696e6560481b6044820152606401610886565b60006110bc610ac2565b6000878152600e60208181526040808420805482517f49ecf333e5b8c95c40fdafc95c1ad136e8914a8fb55e9dc8bb01eaa83a2df9ad818601526001600160a01b038f1681850152606081018e90526080810182905260a08082018e90528451808303909101815260c08201855280519086012061190160f01b60e083015260e2820189905261010280830191909152845180830390910181526101229091019093528251928401929092208c865293909252939450909260019290611183908490613e94565b909155506000905061119488610d23565b9050806001600160a01b0316896001600160a01b031614156111f15760405162461bcd60e51b815260206004820152601660248201527526b0b4b2399d1024b73b30b634b21039b832b73232b960511b6044820152606401610886565b803b156112dd57604080516020810187905280820186905260f888901b6001600160f81b0319166060820152815160418183030181526061820192839052630b135d3f60e11b9092526001600160a01b03831691631626ba7e91611259918691606501613d08565b60206040518083038186803b15801561127157600080fd5b505afa158015611285573d6000803e3d6000fd5b505050506040513d601f19601f820116820180604052508101906112a99190613b14565b6001600160e01b031916631626ba7e60e01b146112d85760405162461bcd60e51b815260040161088690613db0565b611320565b60006112eb83888888612ac2565b9050816001600160a01b0316816001600160a01b03161461131e5760405162461bcd60e51b815260040161088690613db0565b505b61132a8989612324565b505050505050505050565b60606002805461078e90613f22565b3361134e83610d23565b6001600160a01b0316146113745760405162461bcd60e51b815260040161088690613d34565b600081116113c45760405162461bcd60e51b815260206004820152601c60248201527f4d616964733a20496e76616c6964206c70546f6b656e416d6f756e74000000006044820152606401610886565b6000601183815481106113d9576113d9613fb8565b906000526020600020906003020160010154905081816113f99190613e94565b6011848154811061140c5761140c613fb8565b60009182526020909120600390910201600101556040516323b872dd60e01b8152336004820152306024820152604481018390527f00000000000000000000000000000000000000000000000000000000000000006001600160a01b0316906323b872dd90606401602060405180830381600087803b15801561148e57600080fd5b505af11580156114a2573d6000803e3d6000fd5b505050506040513d601f19601f820116820180604052508101906114c69190613ada565b50600a54801561152957611500818484601188815481106114e9576114e9613fb8565b906000526020600020906003020160020154612c6b565b6011858154811061151357611513613fb8565b9060005260206000209060030201600201819055505b837f9c86c947c690753cc6de6016e1c45414d895662cc13af08319148419baf5df2f8460405161155b91815260200190565b60405180910390a250505050565b600080546001600160a01b031633146115945760405162461bcd60e51b815260040161088690613ddd565b506011546103e881106115e05760405162461bcd60e51b81526020600482015260146024820152734d616964733a204d6178696d756d204d6169647360601b6044820152606401610886565b6040805160608101825283815260006020820181815292820181815260118054600181018255925291517f31ecc21a745e3968a04e9570e4425bc18fa8019c68028196b546d1669c200c6860039092029182015591517f31ecc21a745e3968a04e9570e4425bc18fa8019c68028196b546d1669c200c69830155517f31ecc21a745e3968a04e9570e4425bc18fa8019c68028196b546d1669c200c6a9091015561168a3382612974565b919050565b61169a338383612d73565b5050565b336116a883610d23565b6001600160a01b0316146116ce5760405162461bcd60e51b815260040161088690613d34565b6000811161171e5760405162461bcd60e51b815260206004820152601c60248201527f4d616964733a20496e76616c6964206c70546f6b656e416d6f756e74000000006044820152606401610886565b60006011838154811061173357611733613fb8565b906000526020600020906003020160010154905081816117539190613edf565b6011848154811061176657611766613fb8565b6000918252602090912060016003909202010155600a5480156117dc576117b38184846011888154811061179c5761179c613fb8565b906000526020600020906003020160020154612e42565b601185815481106117c6576117c6613fb8565b9060005260206000209060030201600201819055505b60405163a9059cbb60e01b8152336004820152602481018490527f00000000000000000000000000000000000000000000000000000000000000006001600160a01b03169063a9059cbb90604401602060405180830381600087803b15801561184457600080fd5b505af1158015611858573d6000803e3d6000fd5b505050506040513d601f19601f8201168201806040525081019061187c9190613ada565b50837fb08330c00f69f3f2343fd81719784be16358c64832e868cd5ccec5b98ec628978460405161155b91815260200190565b6000546001600160a01b031633146118d95760405162461bcd60e51b815260040161088690613ddd565b604051631526fe2760e01b8152600481018290526001600160a01b037f000000000000000000000000000000000000000000000000000000000000000081169190841690631526fe279060240160806040518083038186803b15801561193e57600080fd5b505afa158015611952573d6000803e3d6000fd5b505050506040513d601f19601f820116820180604052508101906119769190613b31565b516001600160a01b0316146119cd5760405162461bcd60e51b815260206004820152601d60248201527f4d6173746572436865664d6f64756c653a20496e76616c6964207069640000006044820152606401610886565b600d5460ff16611b4c57600d805460ff1916600117905560405163095ea7b360e01b81526001600160a01b03838116600483015260001960248301527f0000000000000000000000000000000000000000000000000000000000000000169063095ea7b390604401602060405180830381600087803b158015611a4f57600080fd5b505af1158015611a63573d6000803e3d6000fd5b505050506040513d601f19601f82011682018060405250810190611a879190613ada565b50600980546001600160a01b0319166001600160a01b0384811691909117909155600a8290556040516370a0823160e01b81523060048201526109bc9183917f0000000000000000000000000000000000000000000000000000000000000000909116906370a08231906024015b60206040518083038186803b158015611b0d57600080fd5b505afa158015611b21573d6000803e3d6000fd5b505050506040513d601f19601f82011682018060405250810190611b459190613c08565b6000612f2a565b600954600a546040516393f1a40b60e01b8152600481018290523060248201526001600160a01b0390921691611be090829084906393f1a40b90604401604080518083038186803b158015611ba057600080fd5b505afa158015611bb4573d6000803e3d6000fd5b505050506040513d601f19601f82011682018060405250810190611bd89190613ba0565b516000612f39565b50816001600160a01b0316846001600160a01b031614611d425760405163095ea7b360e01b81526001600160a01b038381166004830152600060248301527f0000000000000000000000000000000000000000000000000000000000000000169063095ea7b390604401602060405180830381600087803b158015611c6457600080fd5b505af1158015611c78573d6000803e3d6000fd5b505050506040513d601f19601f82011682018060405250810190611c9c9190613ada565b5060405163095ea7b360e01b81526001600160a01b03858116600483015260001960248301527f0000000000000000000000000000000000000000000000000000000000000000169063095ea7b390604401602060405180830381600087803b158015611d0857600080fd5b505af1158015611d1c573d6000803e3d6000fd5b505050506040513d601f19601f82011682018060405250810190611d409190613ada565b505b600980546001600160a01b0319166001600160a01b0386811691909117909155600a8490556040516370a0823160e01b8152306004820152610fab9185917f0000000000000000000000000000000000000000000000000000000000000000909116906370a0823190602401611af5565b83421115611dfd5760405162461bcd60e51b81526020600482015260176024820152764d616964733a204578706972656420646561646c696e6560481b6044820152606401610886565b6000611e07610ac2565b6001600160a01b038881166000818152600f60208181526040808420805482517fdaab21af31ece73a508939fedd476a5ee5129a5ed4bb091f3236ffb45394df6281860152808401889052978f1660608901526080880181905260a08089018f90528351808a03909101815260c08901845280519085012061190160f01b60e08a015260e289018a9052610102808a01919091528351808a03909101815261012290980190925286519683019690962094845291905293945090926001929190611ed2908490613e94565b9091555050873b15611fc357604080516020810186905280820185905260f887901b6001600160f81b0319166060820152815160418183030181526061820192839052630b135d3f60e11b9092526001600160a01b038a1691631626ba7e91611f3f918591606501613d08565b60206040518083038186803b158015611f5757600080fd5b505afa158015611f6b573d6000803e3d6000fd5b505050506040513d601f19601f82011682018060405250810190611f8f9190613b14565b6001600160e01b031916631626ba7e60e01b14611fbe5760405162461bcd60e51b815260040161088690613db0565b612006565b6000611fd182878787612ac2565b9050886001600160a01b0316816001600160a01b0316146120045760405162461bcd60e51b815260040161088690613db0565b505b61201288886001612d73565b5050505050505050565b6120263383612392565b6120425760405162461bcd60e51b815260040161088690613e12565b61204e84848484612f48565b50505050565b6000818152600360205260409020546060906001600160a01b03166120d35760405162461bcd60e51b815260206004820152602f60248201527f4552433732314d657461646174613a2055524920717565727920666f72206e6f60448201526e3732bc34b9ba32b73a103a37b5b2b760891b6064820152608401610886565b600061210f60408051808201909152601f81527f68747470733a2f2f6170692e6d616964636f696e2e6f72672f6d616964732f00602082015290565b9050600081511161212f5760405180602001604052806000815250610778565b8061213984612f7b565b60405160200161214a929190613ca6565b6040516020818303038152906040529392505050565b6000546001600160a01b0316331461218a5760405162461bcd60e51b815260040161088690613ddd565b60108190556040518181527f4cc6f61797d7bcd39a96045b3f7c8cb2feed2fe23d042b62757ab6499b07cf559060200160405180910390a150565b6000546001600160a01b031633146121ef5760405162461bcd60e51b815260040161088690613ddd565b601380546001600160a01b0319166001600160a01b039390931692909217909155601255565b6000546001600160a01b0316331461223f5760405162461bcd60e51b815260040161088690613ddd565b6001600160a01b0381166122a45760405162461bcd60e51b815260206004820152602660248201527f4f776e61626c653a206e6577206f776e657220697320746865207a65726f206160448201526564647265737360d01b6064820152608401610886565b600080546040516001600160a01b03808516939216917f8be0079c531659141344cd1fd0a4f28419497f9722a3daafe3b4186f6b6457e091a3600080546001600160a01b0319166001600160a01b0392909216919091179055565b60006001600160e01b0319821663780e9d6360e01b14806106e857506106e882613079565b600081815260056020526040902080546001600160a01b0319166001600160a01b038416908117909155819061235982610d23565b6001600160a01b03167f8c5be1e5ebec7d5bd14f71427d1e84f3dd0314c0f7b2291e5b200ac8c7c3b92560405160405180910390a45050565b6000818152600360205260408120546001600160a01b031661240b5760405162461bcd60e51b815260206004820152602c60248201527f4552433732313a206f70657261746f7220717565727920666f72206e6f6e657860448201526b34b9ba32b73a103a37b5b2b760a11b6064820152608401610886565b600061241683610d23565b9050806001600160a01b0316846001600160a01b031614806124515750836001600160a01b031661244684610811565b6001600160a01b0316145b8061248157506001600160a01b0380821660009081526006602090815260408083209388168352929052205460ff165b949350505050565b826001600160a01b031661249c82610d23565b6001600160a01b0316146125045760405162461bcd60e51b815260206004820152602960248201527f4552433732313a207472616e73666572206f6620746f6b656e2074686174206960448201526839903737ba1037bbb760b91b6064820152608401610886565b6001600160a01b0382166125665760405162461bcd60e51b8152602060048201526024808201527f4552433732313a207472616e7366657220746f20746865207a65726f206164646044820152637265737360e01b6064820152608401610886565b6125718383836130c9565b61257c600082612324565b6001600160a01b03831660009081526004602052604081208054600192906125a5908490613edf565b90915550506001600160a01b03821660009081526004602052604081208054600192906125d3908490613e94565b909155505060008181526003602052604080822080546001600160a01b0319166001600160a01b0386811691821790925591518493918716917fddf252ad1be2c89b69c2b068fc378daa952ba7f163c4a11628f55a4df523b3ef91a4505050565b600a54600090806126875760405162461bcd60e51b815260206004820152601d60248201527f4d6173746572436865664d6f64756c653a20556e636c61696d61626c650000006044820152606401610886565b6009546040516393f1a40b60e01b8152600481018390523060248201526000916001600160a01b0316906393f1a40b90604401604080518083038186803b1580156126d157600080fd5b505afa1580156126e5573d6000803e3d6000fd5b505050506040513d601f19601f820116820180604052508101906127099190613ba0565b5190506000612719838284612f2a565b9050600085670de0b6b3a7640000612731848a613ec0565b61273b9190613eac565b6127459190613edf565b9050600081116127a85760405162461bcd60e51b815260206004820152602860248201527f4d6173746572436865664d6f64756c653a204e6f7468696e672063616e2062656044820152670818db185a5b595960c21b6064820152608401610886565b6127b233826130d4565b670de0b6b3a76400006127c58389613ec0565b6127cf9190613eac565b979650505050505050565b600a54600090806127ef5760009150506106e8565b6009546040516393f1a40b60e01b8152600481018390523060248201526000916001600160a01b0316906393f1a40b90604401604080518083038186803b15801561283957600080fd5b505afa15801561284d573d6000803e3d6000fd5b505050506040513d601f19601f820116820180604052508101906128719190613ba0565b51600c54600b54919250904311801561288957508115155b1561294257600954600a5460405163065509bb60e21b815260048101919091523060248201526000916001600160a01b03169063195426ec9060440160206040518083038186803b1580156128dd57600080fd5b505afa1580156128f1573d6000803e3d6000fd5b505050506040513d601f19601f820116820180604052508101906129159190613c08565b90508261292a82670de0b6b3a7640000613ec0565b6129349190613eac565b61293e9083613e94565b9150505b84670de0b6b3a76400006129568389613ec0565b6129609190613eac565b61296a9190613edf565b9695505050505050565b6001600160a01b0382166129ca5760405162461bcd60e51b815260206004820181905260248201527f4552433732313a206d696e7420746f20746865207a65726f20616464726573736044820152606401610886565b6000818152600360205260409020546001600160a01b031615612a2f5760405162461bcd60e51b815260206004820152601c60248201527f4552433732313a20746f6b656e20616c7265616479206d696e746564000000006044820152606401610886565b612a3b600083836130c9565b6001600160a01b0382166000908152600460205260408120805460019290612a64908490613e94565b909155505060008181526003602052604080822080546001600160a01b0319166001600160a01b03861690811790915590518392907fddf252ad1be2c89b69c2b068fc378daa952ba7f163c4a11628f55a4df523b3ef908290a45050565b60007f7fffffffffffffffffffffffffffffff5d576e7357a4501ddfe92f46681b20a0821115612b3f5760405162461bcd60e51b815260206004820152602260248201527f45434453413a20696e76616c6964207369676e6174757265202773272076616c604482015261756560f01b6064820152608401610886565b8360ff16601b1480612b5457508360ff16601c145b612bab5760405162461bcd60e51b815260206004820152602260248201527f45434453413a20696e76616c6964207369676e6174757265202776272076616c604482015261756560f01b6064820152608401610886565b6040805160008082526020820180845288905260ff871692820192909252606081018590526080810184905260019060a0016020604051602081039080840390855afa158015612bff573d6000803e3d6000fd5b5050604051601f1901519150506001600160a01b038116612c625760405162461bcd60e51b815260206004820152601860248201527f45434453413a20696e76616c6964207369676e617475726500000000000000006044820152606401610886565b95945050505050565b6009546040516393f1a40b60e01b81526004810186905230602482015260009182916001600160a01b03909116906393f1a40b90604401604080518083038186803b158015612cb957600080fd5b505afa158015612ccd573d6000803e3d6000fd5b505050506040513d601f19601f82011682018060405250810190612cf19190613ba0565b5190506000612d01878784612f2a565b9050600084670de0b6b3a7640000612d198489613ec0565b612d239190613eac565b612d2d9190613edf565b90508015612d3f57612d3f33826130d4565b670de0b6b3a764000082612d538989613e94565b612d5d9190613ec0565b612d679190613eac565b98975050505050505050565b816001600160a01b0316836001600160a01b03161415612dd55760405162461bcd60e51b815260206004820152601960248201527f4552433732313a20617070726f766520746f2063616c6c6572000000000000006044820152606401610886565b6001600160a01b03838116600081815260066020908152604080832094871680845294825291829020805460ff191686151590811790915591519182527f17307eab39ab6107e8899845ad3d59bd9653f200f220920489ca2b5937696c31910160405180910390a3505050565b6009546040516393f1a40b60e01b81526004810186905230602482015260009182916001600160a01b03909116906393f1a40b90604401604080518083038186803b158015612e9057600080fd5b505afa158015612ea4573d6000803e3d6000fd5b505050506040513d601f19601f82011682018060405250810190612ec89190613ba0565b5190506000612ed8878784612f39565b9050600084670de0b6b3a7640000612ef08489613ec0565b612efa9190613eac565b612f049190613edf565b90508015612f1657612f1633826130d4565b670de0b6b3a764000082612d538989613edf565b60006124816001858585613270565b60006124816000858585613270565b612f53848484612489565b612f5f848484846135cb565b61204e5760405162461bcd60e51b815260040161088690613d5e565b606081612f9f5750506040805180820190915260018152600360fc1b602082015290565b8160005b8115612fc95780612fb381613f5d565b9150612fc29050600a83613eac565b9150612fa3565b60008167ffffffffffffffff811115612fe457612fe4613fce565b6040519080825280601f01601f19166020018201604052801561300e576020820181803683370190505b5090505b841561248157613023600183613edf565b9150613030600a86613f78565b61303b906030613e94565b60f81b81838151811061305057613050613fb8565b60200101906001600160f81b031916908160001a905350613072600a86613eac565b9450613012565b60006001600160e01b031982166380ac58cd60e01b14806130aa57506001600160e01b03198216635b5e139f60e01b145b806106e857506301ffc9a760e01b6001600160e01b03198316146106e8565b6109bc8383836136d5565b6040516370a0823160e01b81523060048201526000907f00000000000000000000000000000000000000000000000000000000000000006001600160a01b0316906370a082319060240160206040518083038186803b15801561313657600080fd5b505afa15801561314a573d6000803e3d6000fd5b505050506040513d601f19601f8201168201806040525081019061316e9190613c08565b90508082111561321b5760405163a9059cbb60e01b81526001600160a01b038481166004830152602482018390527f0000000000000000000000000000000000000000000000000000000000000000169063a9059cbb906044015b602060405180830381600087803b1580156131e357600080fd5b505af11580156131f7573d6000803e3d6000fd5b505050506040513d601f19601f8201168201806040525081019061204e9190613ada565b60405163a9059cbb60e01b81526001600160a01b038481166004830152602482018490527f0000000000000000000000000000000000000000000000000000000000000000169063a9059cbb906044016131c9565b600080600b54431161335c5785156132ec57600954604051631c57762b60e31b815260048101879052602481018690526001600160a01b039091169063e2bbb15890604401600060405180830381600087803b1580156132cf57600080fd5b505af11580156132e3573d6000803e3d6000fd5b50505050613352565b600954604051630441a3e760e41b815260048101879052602481018690526001600160a01b039091169063441a3e7090604401600060405180830381600087803b15801561333957600080fd5b505af115801561334d573d6000803e3d6000fd5b505050505b5050600c54612481565b6040516370a0823160e01b81523060048201526000907f00000000000000000000000000000000000000000000000000000000000000006001600160a01b0316906370a082319060240160206040518083038186803b1580156133be57600080fd5b505afa1580156133d2573d6000803e3d6000fd5b505050506040513d601f19601f820116820180604052508101906133f69190613c08565b9050861561346857600954604051631c57762b60e31b815260048101889052602481018790526001600160a01b039091169063e2bbb15890604401600060405180830381600087803b15801561344b57600080fd5b505af115801561345f573d6000803e3d6000fd5b505050506134ce565b600954604051630441a3e760e41b815260048101889052602481018790526001600160a01b039091169063441a3e7090604401600060405180830381600087803b1580156134b557600080fd5b505af11580156134c9573d6000803e3d6000fd5b505050505b6040516370a0823160e01b81523060048201526000907f00000000000000000000000000000000000000000000000000000000000000006001600160a01b0316906370a082319060240160206040518083038186803b15801561353057600080fd5b505afa158015613544573d6000803e3d6000fd5b505050506040513d601f19601f820116820180604052508101906135689190613c08565b90506135748282613edf565b9250505043600b55821580159061358b5750600081115b15613352576000836135a583670de0b6b3a7640000613ec0565b6135af9190613eac565b600c546135bc9190613e94565b600c8190559250612481915050565b60006001600160a01b0384163b156136cd57604051630a85bd0160e11b81526001600160a01b0385169063150b7a029061360f903390899088908890600401613cd5565b602060405180830381600087803b15801561362957600080fd5b505af1925050508015613659575060408051601f3d908101601f1916820190925261365691810190613b14565b60015b6136b3573d808015613687576040519150601f19603f3d011682016040523d82523d6000602084013e61368c565b606091505b5080516136ab5760405162461bcd60e51b815260040161088690613d5e565b805181602001fd5b6001600160e01b031916630a85bd0160e11b149050612481565b506001612481565b6001600160a01b0383166136ed576109bc8282613715565b6001600160a01b038216613705576109bc8382613759565b61370f8382613759565b6109bc82825b600061372083610d9a565b6001600160a01b039093166000908152600760209081526040808320868452825280832085905593825260089052919091209190915550565b6000600161376684610d9a565b6137709190613edf565b6000838152600860205260409020549091508082146137c3576001600160a01b03841660009081526007602090815260408083208584528252808320548484528184208190558352600890915290208190555b5060009182526008602090815260408084208490556001600160a01b039094168352600781528383209183525290812055565b803560ff8116811461168a57600080fd5b60006020828403121561381957600080fd5b813561077881613fe4565b6000806040838503121561383757600080fd5b823561384281613fe4565b9150602083013561385281613fe4565b809150509250929050565b60008060006060848603121561387257600080fd5b833561387d81613fe4565b9250602084013561388d81613fe4565b929592945050506040919091013590565b600080600080608085870312156138b457600080fd5b84356138bf81613fe4565b93506020858101356138d081613fe4565b935060408601359250606086013567ffffffffffffffff808211156138f457600080fd5b818801915088601f83011261390857600080fd5b81358181111561391a5761391a613fce565b61392c601f8201601f19168501613e63565b9150808252898482850101111561394257600080fd5b808484018584013760008482840101525080935050505092959194509250565b60008060008060008060c0878903121561397b57600080fd5b863561398681613fe4565b9550602087013561399681613fe4565b9450604087013593506139ab606088016137f6565b92506080870135915060a087013590509295509295509295565b600080604083850312156139d857600080fd5b82356139e381613fe4565b9150602083013561385281613ffc565b60008060408385031215613a0657600080fd5b8235613a1181613fe4565b946020939093013593505050565b60008060008060008060c08789031215613a3857600080fd5b8635613a4381613fe4565b955060208701359450604087013593506139ab606088016137f6565b600080600060408486031215613a7457600080fd5b833567ffffffffffffffff80821115613a8c57600080fd5b818601915086601f830112613aa057600080fd5b813581811115613aaf57600080fd5b8760208260051b8501011115613ac457600080fd5b6020928301989097509590910135949350505050565b600060208284031215613aec57600080fd5b815161077881613ffc565b600060208284031215613b0957600080fd5b81356107788161400a565b600060208284031215613b2657600080fd5b81516107788161400a565b600060808284031215613b4357600080fd5b6040516080810181811067ffffffffffffffff82111715613b6657613b66613fce565b6040528251613b7481613fe4565b808252506020830151602082015260408301516040820152606083015160608201528091505092915050565b600060408284031215613bb257600080fd5b6040516040810181811067ffffffffffffffff82111715613bd557613bd5613fce565b604052825181526020928301519281019290925250919050565b600060208284031215613c0157600080fd5b5035919050565b600060208284031215613c1a57600080fd5b5051919050565b60008060408385031215613c3457600080fd5b50508035926020909101359150565b60008060008060008060c08789031215613c5c57600080fd5b8635955060208701359450604087013593506139ab606088016137f6565b60008151808452613c92816020860160208601613ef6565b601f01601f19169290920160200192915050565b60008351613cb8818460208801613ef6565b835190830190613ccc818360208801613ef6565b01949350505050565b6001600160a01b038581168252841660208201526040810183905260806060820181905260009061296a90830184613c7a565b8281526040602082015260006124816040830184613c7a565b6020815260006107786020830184613c7a565b60208082526010908201526f26b0b4b2399d102337b93134b23232b760811b604082015260600190565b60208082526032908201527f4552433732313a207472616e7366657220746f206e6f6e20455243373231526560408201527131b2b4bb32b91034b6b83632b6b2b73a32b960711b606082015260800190565b60208082526013908201527213585a591cce88155b985d5d1a1bdc9a5e9959606a1b604082015260600190565b6020808252818101527f4f776e61626c653a2063616c6c6572206973206e6f7420746865206f776e6572604082015260600190565b60208082526031908201527f4552433732313a207472616e736665722063616c6c6572206973206e6f74206f6040820152701ddb995c881b9bdc88185c1c1c9bdd9959607a1b606082015260800190565b604051601f8201601f1916810167ffffffffffffffff81118282101715613e8c57613e8c613fce565b604052919050565b60008219821115613ea757613ea7613f8c565b500190565b600082613ebb57613ebb613fa2565b500490565b6000816000190483118215151615613eda57613eda613f8c565b500290565b600082821015613ef157613ef1613f8c565b500390565b60005b83811015613f11578181015183820152602001613ef9565b8381111561204e5750506000910152565b600181811c90821680613f3657607f821691505b60208210811415613f5757634e487b7160e01b600052602260045260246000fd5b50919050565b6000600019821415613f7157613f71613f8c565b5060010190565b600082613f8757613f87613fa2565b500690565b634e487b7160e01b600052601160045260246000fd5b634e487b7160e01b600052601260045260246000fd5b634e487b7160e01b600052603260045260246000fd5b634e487b7160e01b600052604160045260246000fd5b6001600160a01b0381168114613ff957600080fd5b50565b8015158114613ff957600080fd5b6001600160e01b031981168114613ff957600080fdfea264697066735822122047b9fcdccfdf244506787f97331e73b0c680746d388d59bf461d04d7deb3ba5464736f6c63430008050033",
  "linkReferences": {},
  "deployedLinkReferences": {}
}