{
    "_format": "hh-sol-artifact-1",
    "contractName": "CloneNurses",
    "sourceName": "contracts/CloneNurses.sol",
    "abi": [
        {
            "inputs": [
                {
                    "internalType": "contract INursePart",
                    "name": "_nursePart",
                    "type": "address"
                },
                {
                    "internalType": "contract IMaidCoin",
                    "name": "_maidCoin",
                    "type": "address"
                },
                {
                    "internalType": "contract ITheMaster",
                    "name": "_theMaster",
                    "type": "address"
                },
                {
                    "internalType": "address",
                    "name": "_royaltyReceiver",
                    "type": "address"
                }
            ],
            "stateMutability": "nonpayable",
            "type": "constructor"
        },
        {
            "anonymous": false,
            "inputs": [
                {
                    "indexed": true,
                    "internalType": "address",
                    "name": "owner",
                    "type": "address"
                },
                {
                    "indexed": true,
                    "internalType": "address",
                    "name": "approved",
                    "type": "address"
                },
                {
                    "indexed": true,
                    "internalType": "uint256",
                    "name": "tokenId",
                    "type": "uint256"
                }
            ],
            "name": "Approval",
            "type": "event"
        },
        {
            "anonymous": false,
            "inputs": [
                {
                    "indexed": true,
                    "internalType": "address",
                    "name": "owner",
                    "type": "address"
                },
                {
                    "indexed": true,
                    "internalType": "address",
                    "name": "operator",
                    "type": "address"
                },
                {
                    "indexed": false,
                    "internalType": "bool",
                    "name": "approved",
                    "type": "bool"
                }
            ],
            "name": "ApprovalForAll",
            "type": "event"
        },
        {
            "anonymous": false,
            "inputs": [
                {
                    "indexed": true,
                    "internalType": "uint256",
                    "name": "id",
                    "type": "uint256"
                },
                {
                    "indexed": false,
                    "internalType": "int256",
                    "name": "power",
                    "type": "int256"
                }
            ],
            "name": "ChangeSupportedPower",
            "type": "event"
        },
        {
            "anonymous": false,
            "inputs": [
                {
                    "indexed": true,
                    "internalType": "uint256",
                    "name": "from",
                    "type": "uint256"
                },
                {
                    "indexed": true,
                    "internalType": "uint256",
                    "name": "to",
                    "type": "uint256"
                }
            ],
            "name": "ChangeSupportingRoute",
            "type": "event"
        },
        {
            "anonymous": false,
            "inputs": [
                {
                    "indexed": true,
                    "internalType": "uint256",
                    "name": "id",
                    "type": "uint256"
                },
                {
                    "indexed": true,
                    "internalType": "address",
                    "name": "claimer",
                    "type": "address"
                },
                {
                    "indexed": false,
                    "internalType": "uint256",
                    "name": "reward",
                    "type": "uint256"
                }
            ],
            "name": "Claim",
            "type": "event"
        },
        {
            "anonymous": false,
            "inputs": [
                {
                    "indexed": true,
                    "internalType": "address",
                    "name": "previousOwner",
                    "type": "address"
                },
                {
                    "indexed": true,
                    "internalType": "address",
                    "name": "newOwner",
                    "type": "address"
                }
            ],
            "name": "OwnershipTransferred",
            "type": "event"
        },
        {
            "anonymous": false,
            "inputs": [
                {
                    "indexed": true,
                    "internalType": "address",
                    "name": "supporter",
                    "type": "address"
                },
                {
                    "indexed": true,
                    "internalType": "uint256",
                    "name": "to",
                    "type": "uint256"
                }
            ],
            "name": "SupportTo",
            "type": "event"
        },
        {
            "anonymous": false,
            "inputs": [
                {
                    "indexed": true,
                    "internalType": "address",
                    "name": "from",
                    "type": "address"
                },
                {
                    "indexed": true,
                    "internalType": "address",
                    "name": "to",
                    "type": "address"
                },
                {
                    "indexed": true,
                    "internalType": "uint256",
                    "name": "tokenId",
                    "type": "uint256"
                }
            ],
            "name": "Transfer",
            "type": "event"
        },
        {
            "anonymous": false,
            "inputs": [
                {
                    "indexed": true,
                    "internalType": "address",
                    "name": "supporter",
                    "type": "address"
                },
                {
                    "indexed": true,
                    "internalType": "uint256",
                    "name": "id",
                    "type": "uint256"
                },
                {
                    "indexed": false,
                    "internalType": "uint256",
                    "name": "amounts",
                    "type": "uint256"
                }
            ],
            "name": "TransferSupportingRewards",
            "type": "event"
        },
        {
            "inputs": [
                {
                    "internalType": "uint256",
                    "name": "partCount",
                    "type": "uint256"
                },
                {
                    "internalType": "uint256",
                    "name": "destroyReturn",
                    "type": "uint256"
                },
                {
                    "internalType": "uint256",
                    "name": "power",
                    "type": "uint256"
                },
                {
                    "internalType": "uint256",
                    "name": "lifetime",
                    "type": "uint256"
                }
            ],
            "name": "addNurseType",
            "outputs": [
                {
                    "internalType": "uint256",
                    "name": "nurseType",
                    "type": "uint256"
                }
            ],
            "stateMutability": "nonpayable",
            "type": "function"
        },
        {
            "inputs": [
                {
                    "internalType": "address",
                    "name": "to",
                    "type": "address"
                },
                {
                    "internalType": "uint256",
                    "name": "tokenId",
                    "type": "uint256"
                }
            ],
            "name": "approve",
            "outputs": [],
            "stateMutability": "nonpayable",
            "type": "function"
        },
        {
            "inputs": [
                {
                    "internalType": "uint256",
                    "name": "_nurseType",
                    "type": "uint256"
                },
                {
                    "internalType": "uint256",
                    "name": "_parts",
                    "type": "uint256"
                }
            ],
            "name": "assemble",
            "outputs": [],
            "stateMutability": "nonpayable",
            "type": "function"
        },
        {
            "inputs": [
                {
                    "internalType": "uint256",
                    "name": "nurseType",
                    "type": "uint256"
                },
                {
                    "internalType": "uint256",
                    "name": "_parts",
                    "type": "uint256"
                },
                {
                    "internalType": "uint256",
                    "name": "deadline",
                    "type": "uint256"
                },
                {
                    "internalType": "uint8",
                    "name": "v",
                    "type": "uint8"
                },
                {
                    "internalType": "bytes32",
                    "name": "r",
                    "type": "bytes32"
                },
                {
                    "internalType": "bytes32",
                    "name": "s",
                    "type": "bytes32"
                }
            ],
            "name": "assembleWithPermit",
            "outputs": [],
            "stateMutability": "nonpayable",
            "type": "function"
        },
        {
            "inputs": [
                {
                    "internalType": "address",
                    "name": "owner",
                    "type": "address"
                }
            ],
            "name": "balanceOf",
            "outputs": [
                {
                    "internalType": "uint256",
                    "name": "",
                    "type": "uint256"
                }
            ],
            "stateMutability": "view",
            "type": "function"
        },
        {
            "inputs": [
                {
                    "internalType": "address",
                    "name": "supporter",
                    "type": "address"
                },
                {
                    "internalType": "int256",
                    "name": "power",
                    "type": "int256"
                }
            ],
            "name": "changeSupportedPower",
            "outputs": [],
            "stateMutability": "nonpayable",
            "type": "function"
        },
        {
            "inputs": [
                {
                    "internalType": "address",
                    "name": "supporter",
                    "type": "address"
                }
            ],
            "name": "checkSupportingRoute",
            "outputs": [
                {
                    "internalType": "address",
                    "name": "",
                    "type": "address"
                },
                {
                    "internalType": "uint256",
                    "name": "",
                    "type": "uint256"
                }
            ],
            "stateMutability": "nonpayable",
            "type": "function"
        },
        {
            "inputs": [
                {
                    "internalType": "uint256",
                    "name": "id",
                    "type": "uint256"
                }
            ],
            "name": "claim",
            "outputs": [],
            "stateMutability": "nonpayable",
            "type": "function"
        },
        {
            "inputs": [
                {
                    "internalType": "uint256",
                    "name": "id",
                    "type": "uint256"
                },
                {
                    "internalType": "uint256",
                    "name": "toId",
                    "type": "uint256"
                }
            ],
            "name": "destroy",
            "outputs": [],
            "stateMutability": "nonpayable",
            "type": "function"
        },
        {
            "inputs": [
                {
                    "internalType": "uint256",
                    "name": "id",
                    "type": "uint256"
                },
                {
                    "internalType": "uint256",
                    "name": "parts",
                    "type": "uint256"
                }
            ],
            "name": "elongateLifetime",
            "outputs": [],
            "stateMutability": "nonpayable",
            "type": "function"
        },
        {
            "inputs": [
                {
                    "internalType": "uint256",
                    "name": "tokenId",
                    "type": "uint256"
                }
            ],
            "name": "getApproved",
            "outputs": [
                {
                    "internalType": "address",
                    "name": "",
                    "type": "address"
                }
            ],
            "stateMutability": "view",
            "type": "function"
        },
        {
            "inputs": [
                {
                    "internalType": "address",
                    "name": "owner",
                    "type": "address"
                },
                {
                    "internalType": "address",
                    "name": "operator",
                    "type": "address"
                }
            ],
            "name": "isApprovedForAll",
            "outputs": [
                {
                    "internalType": "bool",
                    "name": "",
                    "type": "bool"
                }
            ],
            "stateMutability": "view",
            "type": "function"
        },
        {
            "inputs": [],
            "name": "maidCoin",
            "outputs": [
                {
                    "internalType": "contract IMaidCoin",
                    "name": "",
                    "type": "address"
                }
            ],
            "stateMutability": "view",
            "type": "function"
        },
        {
            "inputs": [],
            "name": "name",
            "outputs": [
                {
                    "internalType": "string",
                    "name": "",
                    "type": "string"
                }
            ],
            "stateMutability": "view",
            "type": "function"
        },
        {
            "inputs": [],
            "name": "nursePart",
            "outputs": [
                {
                    "internalType": "contract INursePart",
                    "name": "",
                    "type": "address"
                }
            ],
            "stateMutability": "view",
            "type": "function"
        },
        {
            "inputs": [],
            "name": "nurseTypeCount",
            "outputs": [
                {
                    "internalType": "uint256",
                    "name": "",
                    "type": "uint256"
                }
            ],
            "stateMutability": "view",
            "type": "function"
        },
        {
            "inputs": [
                {
                    "internalType": "uint256",
                    "name": "",
                    "type": "uint256"
                }
            ],
            "name": "nurseTypes",
            "outputs": [
                {
                    "internalType": "uint256",
                    "name": "partCount",
                    "type": "uint256"
                },
                {
                    "internalType": "uint256",
                    "name": "destroyReturn",
                    "type": "uint256"
                },
                {
                    "internalType": "uint256",
                    "name": "power",
                    "type": "uint256"
                },
                {
                    "internalType": "uint256",
                    "name": "lifetime",
                    "type": "uint256"
                }
            ],
            "stateMutability": "view",
            "type": "function"
        },
        {
            "inputs": [
                {
                    "internalType": "uint256",
                    "name": "",
                    "type": "uint256"
                }
            ],
            "name": "nurses",
            "outputs": [
                {
                    "internalType": "uint256",
                    "name": "nurseType",
                    "type": "uint256"
                },
                {
                    "internalType": "uint256",
                    "name": "endBlock",
                    "type": "uint256"
                },
                {
                    "internalType": "uint256",
                    "name": "lastClaimedBlock",
                    "type": "uint256"
                }
            ],
            "stateMutability": "view",
            "type": "function"
        },
        {
            "inputs": [
                {
                    "internalType": "address",
                    "name": "",
                    "type": "address"
                },
                {
                    "internalType": "address",
                    "name": "",
                    "type": "address"
                },
                {
                    "internalType": "uint256[]",
                    "name": "",
                    "type": "uint256[]"
                },
                {
                    "internalType": "uint256[]",
                    "name": "",
                    "type": "uint256[]"
                },
                {
                    "internalType": "bytes",
                    "name": "",
                    "type": "bytes"
                }
            ],
            "name": "onERC1155BatchReceived",
            "outputs": [
                {
                    "internalType": "bytes4",
                    "name": "",
                    "type": "bytes4"
                }
            ],
            "stateMutability": "nonpayable",
            "type": "function"
        },
        {
            "inputs": [
                {
                    "internalType": "address",
                    "name": "",
                    "type": "address"
                },
                {
                    "internalType": "address",
                    "name": "",
                    "type": "address"
                },
                {
                    "internalType": "uint256",
                    "name": "",
                    "type": "uint256"
                },
                {
                    "internalType": "uint256",
                    "name": "",
                    "type": "uint256"
                },
                {
                    "internalType": "bytes",
                    "name": "",
                    "type": "bytes"
                }
            ],
            "name": "onERC1155Received",
            "outputs": [
                {
                    "internalType": "bytes4",
                    "name": "",
                    "type": "bytes4"
                }
            ],
            "stateMutability": "nonpayable",
            "type": "function"
        },
        {
            "inputs": [],
            "name": "owner",
            "outputs": [
                {
                    "internalType": "address",
                    "name": "",
                    "type": "address"
                }
            ],
            "stateMutability": "view",
            "type": "function"
        },
        {
            "inputs": [
                {
                    "internalType": "uint256",
                    "name": "tokenId",
                    "type": "uint256"
                }
            ],
            "name": "ownerOf",
            "outputs": [
                {
                    "internalType": "address",
                    "name": "",
                    "type": "address"
                }
            ],
            "stateMutability": "view",
            "type": "function"
        },
        {
            "inputs": [
                {
                    "internalType": "uint256",
                    "name": "id",
                    "type": "uint256"
                }
            ],
            "name": "pendingReward",
            "outputs": [
                {
                    "internalType": "uint256",
                    "name": "claimableReward",
                    "type": "uint256"
                }
            ],
            "stateMutability": "view",
            "type": "function"
        },
        {
            "inputs": [],
            "name": "renounceOwnership",
            "outputs": [],
            "stateMutability": "nonpayable",
            "type": "function"
        },
        {
            "inputs": [
                {
                    "internalType": "uint256",
                    "name": "",
                    "type": "uint256"
                },
                {
                    "internalType": "uint256",
                    "name": "_salePrice",
                    "type": "uint256"
                }
            ],
            "name": "royaltyInfo",
            "outputs": [
                {
                    "internalType": "address",
                    "name": "",
                    "type": "address"
                },
                {
                    "internalType": "uint256",
                    "name": "",
                    "type": "uint256"
                }
            ],
            "stateMutability": "view",
            "type": "function"
        },
        {
            "inputs": [
                {
                    "internalType": "address",
                    "name": "from",
                    "type": "address"
                },
                {
                    "internalType": "address",
                    "name": "to",
                    "type": "address"
                },
                {
                    "internalType": "uint256",
                    "name": "tokenId",
                    "type": "uint256"
                }
            ],
            "name": "safeTransferFrom",
            "outputs": [],
            "stateMutability": "nonpayable",
            "type": "function"
        },
        {
            "inputs": [
                {
                    "internalType": "address",
                    "name": "from",
                    "type": "address"
                },
                {
                    "internalType": "address",
                    "name": "to",
                    "type": "address"
                },
                {
                    "internalType": "uint256",
                    "name": "tokenId",
                    "type": "uint256"
                },
                {
                    "internalType": "bytes",
                    "name": "_data",
                    "type": "bytes"
                }
            ],
            "name": "safeTransferFrom",
            "outputs": [],
            "stateMutability": "nonpayable",
            "type": "function"
        },
        {
            "inputs": [
                {
                    "internalType": "address",
                    "name": "operator",
                    "type": "address"
                },
                {
                    "internalType": "bool",
                    "name": "approved",
                    "type": "bool"
                }
            ],
            "name": "setApprovalForAll",
            "outputs": [],
            "stateMutability": "nonpayable",
            "type": "function"
        },
        {
            "inputs": [
                {
                    "internalType": "address",
                    "name": "_receiver",
                    "type": "address"
                },
                {
                    "internalType": "uint256",
                    "name": "_royaltyFee",
                    "type": "uint256"
                }
            ],
            "name": "setRoyaltyInfo",
            "outputs": [],
            "stateMutability": "nonpayable",
            "type": "function"
        },
        {
            "inputs": [
                {
                    "internalType": "address",
                    "name": "supporter",
                    "type": "address"
                },
                {
                    "internalType": "uint256",
                    "name": "to",
                    "type": "uint256"
                },
                {
                    "internalType": "uint256",
                    "name": "amounts",
                    "type": "uint256"
                }
            ],
            "name": "setSupportingTo",
            "outputs": [],
            "stateMutability": "nonpayable",
            "type": "function"
        },
        {
            "inputs": [
                {
                    "internalType": "uint256",
                    "name": "pending",
                    "type": "uint256"
                },
                {
                    "internalType": "address",
                    "name": "supporter",
                    "type": "address"
                },
                {
                    "internalType": "uint8",
                    "name": "supportingRatio",
                    "type": "uint8"
                }
            ],
            "name": "shareRewards",
            "outputs": [
                {
                    "internalType": "address",
                    "name": "nurseOwner",
                    "type": "address"
                },
                {
                    "internalType": "uint256",
                    "name": "amountToNurseOwner",
                    "type": "uint256"
                }
            ],
            "stateMutability": "nonpayable",
            "type": "function"
        },
        {
            "inputs": [
                {
                    "internalType": "uint256",
                    "name": "",
                    "type": "uint256"
                }
            ],
            "name": "supportedPower",
            "outputs": [
                {
                    "internalType": "uint256",
                    "name": "",
                    "type": "uint256"
                }
            ],
            "stateMutability": "view",
            "type": "function"
        },
        {
            "inputs": [
                {
                    "internalType": "uint256",
                    "name": "",
                    "type": "uint256"
                }
            ],
            "name": "supportingRoute",
            "outputs": [
                {
                    "internalType": "uint256",
                    "name": "",
                    "type": "uint256"
                }
            ],
            "stateMutability": "view",
            "type": "function"
        },
        {
            "inputs": [
                {
                    "internalType": "address",
                    "name": "",
                    "type": "address"
                }
            ],
            "name": "supportingTo",
            "outputs": [
                {
                    "internalType": "uint256",
                    "name": "",
                    "type": "uint256"
                }
            ],
            "stateMutability": "view",
            "type": "function"
        },
        {
            "inputs": [
                {
                    "internalType": "bytes4",
                    "name": "interfaceId",
                    "type": "bytes4"
                }
            ],
            "name": "supportsInterface",
            "outputs": [
                {
                    "internalType": "bool",
                    "name": "",
                    "type": "bool"
                }
            ],
            "stateMutability": "view",
            "type": "function"
        },
        {
            "inputs": [],
            "name": "symbol",
            "outputs": [
                {
                    "internalType": "string",
                    "name": "",
                    "type": "string"
                }
            ],
            "stateMutability": "view",
            "type": "function"
        },
        {
            "inputs": [],
            "name": "theMaster",
            "outputs": [
                {
                    "internalType": "contract ITheMaster",
                    "name": "",
                    "type": "address"
                }
            ],
            "stateMutability": "view",
            "type": "function"
        },
        {
            "inputs": [
                {
                    "internalType": "uint256",
                    "name": "index",
                    "type": "uint256"
                }
            ],
            "name": "tokenByIndex",
            "outputs": [
                {
                    "internalType": "uint256",
                    "name": "",
                    "type": "uint256"
                }
            ],
            "stateMutability": "view",
            "type": "function"
        },
        {
            "inputs": [
                {
                    "internalType": "address",
                    "name": "owner",
                    "type": "address"
                },
                {
                    "internalType": "uint256",
                    "name": "index",
                    "type": "uint256"
                }
            ],
            "name": "tokenOfOwnerByIndex",
            "outputs": [
                {
                    "internalType": "uint256",
                    "name": "",
                    "type": "uint256"
                }
            ],
            "stateMutability": "view",
            "type": "function"
        },
        {
            "inputs": [
                {
                    "internalType": "uint256",
                    "name": "tokenId",
                    "type": "uint256"
                }
            ],
            "name": "tokenURI",
            "outputs": [
                {
                    "internalType": "string",
                    "name": "",
                    "type": "string"
                }
            ],
            "stateMutability": "view",
            "type": "function"
        },
        {
            "inputs": [
                {
                    "internalType": "uint256",
                    "name": "",
                    "type": "uint256"
                }
            ],
            "name": "totalRewardsFromSupporters",
            "outputs": [
                {
                    "internalType": "uint256",
                    "name": "",
                    "type": "uint256"
                }
            ],
            "stateMutability": "view",
            "type": "function"
        },
        {
            "inputs": [],
            "name": "totalSupply",
            "outputs": [
                {
                    "internalType": "uint256",
                    "name": "",
                    "type": "uint256"
                }
            ],
            "stateMutability": "view",
            "type": "function"
        },
        {
            "inputs": [
                {
                    "internalType": "address",
                    "name": "from",
                    "type": "address"
                },
                {
                    "internalType": "address",
                    "name": "to",
                    "type": "address"
                },
                {
                    "internalType": "uint256",
                    "name": "tokenId",
                    "type": "uint256"
                }
            ],
            "name": "transferFrom",
            "outputs": [],
            "stateMutability": "nonpayable",
            "type": "function"
        },
        {
            "inputs": [
                {
                    "internalType": "address",
                    "name": "newOwner",
                    "type": "address"
                }
            ],
            "name": "transferOwnership",
            "outputs": [],
            "stateMutability": "nonpayable",
            "type": "function"
        }
    ],
    "bytecode": "0x60e060405260196011553480156200001657600080fd5b5060405162003cba38038062003cba83398101604081905262000039916200020a565b6040518060400160405280601581526020017f4d616964436f696e20436c6f6e65204e7572736573000000000000000000000081525060405180604001604052806007815260200166434e555253455360c81b8152506000620000a16200016060201b60201c565b600080546001600160a01b0319166001600160a01b0383169081178255604051929350917f8be0079c531659141344cd1fd0a4f28419497f9722a3daafe3b4186f6b6457e0908290a35081516200010090600190602085019062000164565b5080516200011690600290602084019062000164565b505050606093841b6001600160601b031990811660805292841b831660a052921b1660c052601280546001600160a01b0319166001600160a01b03909216919091179055620002c8565b3390565b828054620001729062000272565b90600052602060002090601f016020900481019282620001965760008555620001e1565b82601f10620001b157805160ff1916838001178555620001e1565b82800160010185558215620001e1579182015b82811115620001e1578251825591602001919060010190620001c4565b50620001ef929150620001f3565b5090565b5b80821115620001ef5760008155600101620001f4565b600080600080608085870312156200022157600080fd5b84516200022e81620002af565b60208601519094506200024181620002af565b60408601519093506200025481620002af565b60608601519092506200026781620002af565b939692955090935050565b600181811c908216806200028757607f821691505b60208210811415620002a957634e487b7160e01b600052602260045260246000fd5b50919050565b6001600160a01b0381168114620002c557600080fd5b50565b60805160601c60a05160601c60c05160601c61393462000386600039600081816104800152818161072701528181610a5901528181610dd0015281816110b10152818161164e0152818161196f01528181611cc80152611eb60152600081816104c2015281816110090152818161112b01528181611c2201528181611d43015281816127cf015261285601526000818161053b01528181610c7601528181610cfe015281816117f1015281816120e7015261216f01526139346000f3fe608060405234801561001057600080fd5b50600436106102745760003560e01c8063715018a611610151578063c05bd473116100c3578063e3a9405111610087578063e3a940511461063a578063e985e9c51461064d578063f23a6e6114610689578063f2fde38b146106a8578063f4e795b0146106bb578063fa600f76146106ce57600080fd5b8063c05bd473146105bb578063c87b56dd146105ce578063cd5a146e146105e1578063ddfeacca14610614578063e2e784d51461062757600080fd5b806395d89b411161011557806395d89b411461051b578063a22cb46514610523578063b24606b814610536578063b252144a1461055d578063b88d4fde14610570578063bc197c811461058357600080fd5b8063715018a6146104b5578063849e5aff146104bd57806385887622146104e45780638da5cb5b146104f75780639222ce8c1461050857600080fd5b80632a55205a116101ea5780633a64e0d1116101ae5780633a64e0d11461041457806342842e0e146104425780634f6ccce7146104555780636352211e14610468578063671104c91461047b57806370a08231146104a257600080fd5b80632a55205a146103a85780632b2269b8146103bb5780632b76a356146103db5780632f745c59146103ee578063379607f51461040157600080fd5b8063095ea7b31161023c578063095ea7b31461032557806311b9e6b21461033a57806312f7086c1461035a57806318160ddd1461036d578063184935c11461037557806323b872dd1461039557600080fd5b806301ffc9a71461027957806303273bc7146102a1578063060f1938146102d357806306fdde03146102e5578063081812fc146102fa575b600080fd5b61028c61028736600461338b565b6106ee565b60405190151581526020015b60405180910390f35b6102b46102af3660046133f7565b610719565b604080516001600160a01b039093168352602083019190915201610298565b600f545b604051908152602001610298565b6102ed6107b2565b60405161029891906135a8565b61030d6103083660046133c5565b610844565b6040516001600160a01b039091168152602001610298565b610338610333366004613311565b6108cc565b005b6102d76103483660046133c5565b600d6020526000908152604090205481565b6102d76103683660046133c5565b6109e2565b6009546102d7565b6102d76103833660046133c5565b600e6020526000908152604090205481565b6103386103a33660046131d1565b610b7a565b6102b46103b6366004613433565b610bab565b6102d76103c93660046133c5565b600b6020526000908152604090205481565b6103386103e9366004613433565b610be5565b6102d76103fc366004613311565b610f22565b61033861040f3660046133c5565b610fb8565b6104276104223660046133c5565b6111ce565b60408051938452602084019290925290820152606001610298565b6103386104503660046131d1565b611201565b6102d76104633660046133c5565b61121c565b61030d6104763660046133c5565b6112af565b61030d7f000000000000000000000000000000000000000000000000000000000000000081565b6102d76104b03660046130d9565b611326565b6103386113ad565b61030d7f000000000000000000000000000000000000000000000000000000000000000081565b6102d76104f2366004613455565b611421565b6000546001600160a01b031661030d565b6102b46105163660046130d9565b61151f565b6102ed611625565b6103386105313660046132da565b611634565b61030d7f000000000000000000000000000000000000000000000000000000000000000081565b61033861056b36600461333b565b611643565b61033861057e36600461320d565b611786565b6105a2610591366004613127565b63bc197c8160e01b95945050505050565b6040516001600160e01b03199091168152602001610298565b6103386105c9366004613487565b6117b8565b6102ed6105dc3660046133c5565b61185f565b6105f46105ef3660046133c5565b61192a565b604080519485526020850193909352918301526060820152608001610298565b610338610622366004613311565b611964565b610338610635366004613311565b611a8b565b610338610648366004613433565b611adb565b61028c61065b3660046130f4565b6001600160a01b03918216600090815260066020908152604080832093909416825291909152205460ff1690565b6105a2610697366004613275565b63f23a6e6160e01b95945050505050565b6103386106b63660046130d9565b611f2c565b6103386106c9366004613433565b612016565b6102d76106dc3660046130d9565b600c6020526000908152604090205481565b600063152a902d60e11b6001600160e01b031983161480610713575061071382612234565b92915050565b600080336001600160a01b037f0000000000000000000000000000000000000000000000000000000000000000161461076d5760405162461bcd60e51b81526004016107649061360d565b60405180910390fd5b606461077c60ff851687613761565b610786919061374d565b9050600081156107a9576107998561151f565b90935090506107a9858284612259565b50935093915050565b6060600180546107c1906137c3565b80601f01602080910402602001604051908101604052809291908181526020018280546107ed906137c3565b801561083a5780601f1061080f5761010080835404028352916020019161083a565b820191906000526020600020905b81548152906001019060200180831161081d57829003601f168201915b5050505050905090565b600061084f826122c2565b6108b05760405162461bcd60e51b815260206004820152602c60248201527f4552433732313a20617070726f76656420717565727920666f72206e6f6e657860448201526b34b9ba32b73a103a37b5b2b760a11b6064820152608401610764565b506000908152600560205260409020546001600160a01b031690565b60006108d7826112af565b9050806001600160a01b0316836001600160a01b031614156109455760405162461bcd60e51b815260206004820152602160248201527f4552433732313a20617070726f76616c20746f2063757272656e74206f776e656044820152603960f91b6064820152608401610764565b336001600160a01b03821614806109615750610961813361065b565b6109d35760405162461bcd60e51b815260206004820152603860248201527f4552433732313a20617070726f76652063616c6c6572206973206e6f74206f7760448201527f6e6572206e6f7220617070726f76656420666f7220616c6c00000000000000006064820152608401610764565b6109dd83836122df565b505050565b60006109ed826122c2565b610a395760405162461bcd60e51b815260206004820152601760248201527f436c6f6e654e75727365733a20496e76616c69642069640000000000000000006044820152606401610764565b604051633185c0bd60e01b815260026004820152602481018390526000907f00000000000000000000000000000000000000000000000000000000000000006001600160a01b031690633185c0bd9060440160206040518083038186803b158015610aa357600080fd5b505afa158015610ab7573d6000803e3d6000fd5b505050506040513d601f19601f82011682018060405250810190610adb91906133de565b905080610aeb5750600092915050565b600060108481548110610b0057610b00613886565b90600052602060002090600302019050600081600101549050600082600201549050808211610b355750600095945050505050565b43821015610b6c57610b478243613780565b610b518284613780565b610b5b9086613761565b610b65919061374d565b9450610b70565b8394505b5050505b50919050565b610b84338261234d565b610ba05760405162461bcd60e51b815260040161076490613672565b6109dd838383612437565b60125460115460009182916001600160a01b03909116906103e890610bd09086613761565b610bda919061374d565b915091509250929050565b6000600f8381548110610bfa57610bfa613886565b60009182526020909120600490910201805490915080831015610c5f5760405162461bcd60e51b815260206004820152601d60248201527f436c6f6e654e75727365733a204e6f7420656e6f7567682070617274730000006044820152606401610764565b604051637921219560e11b81526001600160a01b037f0000000000000000000000000000000000000000000000000000000000000000169063f242432a90610cb1903390309089908990600401613570565b600060405180830381600087803b158015610ccb57600080fd5b505af1158015610cdf573d6000803e3d6000fd5b505060405163b390c0ab60e01b815260048101879052602481018690527f00000000000000000000000000000000000000000000000000000000000000006001600160a01b0316925063b390c0ab9150604401600060405180830381600087803b158015610d4c57600080fd5b505af1158015610d60573d6000803e3d6000fd5b505050506000600182610d739190613780565b610d7e600186613780565b8460030154610d8d9190613761565b610d97919061374d565b610da19043613735565b601054600285810154604051625777c560e11b81526004810192909252602482015260448101829052919250907f00000000000000000000000000000000000000000000000000000000000000006001600160a01b03169062aeef8a90606401600060405180830381600087803b158015610e1b57600080fd5b505af1158015610e2f573d6000803e3d6000fd5b50506040805160608101825289815260208082018781524383850190815260108054600181018255600091825294517f1b6847dc741a1b0cd08d278845f9d819d87b734759afb55fe2de5cb82a9ae67260039096029586015591517f1b6847dc741a1b0cd08d278845f9d819d87b734759afb55fe2de5cb82a9ae673850155517f1b6847dc741a1b0cd08d278845f9d819d87b734759afb55fe2de5cb82a9ae67490930192909255858252600b905281812085905590518493508392507f692926c201c1a490c1553d7bd4d53beeae98652233db64a10ec99102aaadc9d39190a3610f1a33826125e2565b505050505050565b6000610f2d83611326565b8210610f8f5760405162461bcd60e51b815260206004820152602b60248201527f455243373231456e756d657261626c653a206f776e657220696e646578206f7560448201526a74206f6620626f756e647360a81b6064820152608401610764565b506001600160a01b03919091166000908152600760209081526040808320938352929052205490565b610fc1816112af565b6001600160a01b0316336001600160a01b031614610ff15760405162461bcd60e51b81526004016107649061360d565b6040516370a0823160e01b81523060048201526000907f00000000000000000000000000000000000000000000000000000000000000006001600160a01b0316906370a082319060240160206040518083038186803b15801561105357600080fd5b505afa158015611067573d6000803e3d6000fd5b505050506040513d601f19601f8201168201806040525081019061108b91906133de565b604051625777c560e11b81526002600482015260006024820152604481018490529091507f00000000000000000000000000000000000000000000000000000000000000006001600160a01b03169062aeef8a90606401600060405180830381600087803b1580156110fc57600080fd5b505af1158015611110573d6000803e3d6000fd5b50506040516370a0823160e01b8152306004820152600092507f00000000000000000000000000000000000000000000000000000000000000006001600160a01b031691506370a082319060240160206040518083038186803b15801561117657600080fd5b505afa15801561118a573d6000803e3d6000fd5b505050506040513d601f19601f820116820180604052508101906111ae91906133de565b905060006111bc8383613780565b90506111c88482612721565b50505050565b601081815481106111de57600080fd5b600091825260209091206003909102018054600182015460029092015490925083565b6109dd83838360405180602001604052806000815250611786565b600061122760095490565b821061128a5760405162461bcd60e51b815260206004820152602c60248201527f455243373231456e756d657261626c653a20676c6f62616c20696e646578206f60448201526b7574206f6620626f756e647360a01b6064820152608401610764565b6009828154811061129d5761129d613886565b90600052602060002001549050919050565b6000818152600360205260408120546001600160a01b0316806107135760405162461bcd60e51b815260206004820152602960248201527f4552433732313a206f776e657220717565727920666f72206e6f6e657869737460448201526832b73a103a37b5b2b760b91b6064820152608401610764565b60006001600160a01b0382166113915760405162461bcd60e51b815260206004820152602a60248201527f4552433732313a2062616c616e636520717565727920666f7220746865207a65604482015269726f206164647265737360b01b6064820152608401610764565b506001600160a01b031660009081526004602052604090205490565b6000546001600160a01b031633146113d75760405162461bcd60e51b81526004016107649061363d565b600080546040516001600160a01b03909116907f8be0079c531659141344cd1fd0a4f28419497f9722a3daafe3b4186f6b6457e0908390a3600080546001600160a01b0319169055565b600080546001600160a01b0316331461144c5760405162461bcd60e51b81526004016107649061363d565b50600f805460408051608081018252968752602087019586528601938452606086019283526001810182556000919091529351600485027f8d1108e10bcb7c27dddfc02ed9d693a074039d026cf4ea4240b40f7d581ac80281019190915592517f8d1108e10bcb7c27dddfc02ed9d693a074039d026cf4ea4240b40f7d581ac80384015590517f8d1108e10bcb7c27dddfc02ed9d693a074039d026cf4ea4240b40f7d581ac804830155517f8d1108e10bcb7c27dddfc02ed9d693a074039d026cf4ea4240b40f7d581ac8059091015590565b6001600160a01b0381166000908152600c6020908152604080832054808452600b909252822054829190808214156115655761155a826112af565b959194509092505050565b815b828214611585576000828152600b6020526040902054919250611567565b6001600160a01b0386166000908152600c60209081526040808320869055838352600b90915280822085905551849183917f692926c201c1a490c1553d7bd4d53beeae98652233db64a10ec99102aaadc9d39190a360405183906001600160a01b038816907f74afd1219e1106da193179db213370f587f8a6893614bd79eae534375ba60b9a90600090a3611619836112af565b96929550919350505050565b6060600280546107c1906137c3565b61163f338383612922565b5050565b336001600160a01b037f0000000000000000000000000000000000000000000000000000000000000000161461168b5760405162461bcd60e51b81526004016107649061360d565b611694826122c2565b6116e05760405162461bcd60e51b815260206004820152601b60248201527f436c6f6e654e75727365733a20496e76616c69642074617267657400000000006044820152606401610764565b6001600160a01b0383166000818152600c6020526040808220859055518492917f74afd1219e1106da193179db213370f587f8a6893614bd79eae534375ba60b9a91a380156109dd576000828152600d602052604081208054839290611747908490613735565b909155505060405181815282907f95dbced4d615bf88768e343c98d3d10cd6458a8fab8cc8a1b5ae9cb6916773659060200160405180910390a2505050565b611790338361234d565b6117ac5760405162461bcd60e51b815260040161076490613672565b6111c8848484846129e9565b60405163090c278560e31b81523360048201523060248201526044810185905260ff841660648201526084810183905260a481018290527f00000000000000000000000000000000000000000000000000000000000000006001600160a01b0316906348613c289060c401600060405180830381600087803b15801561183d57600080fd5b505af1158015611851573d6000803e3d6000fd5b50505050610f1a8686610be5565b606061186a826122c2565b6118ce5760405162461bcd60e51b815260206004820152602f60248201527f4552433732314d657461646174613a2055524920717565727920666f72206e6f60448201526e3732bc34b9ba32b73a103a37b5b2b760891b6064820152608401610764565b60006118d8612a1c565b905060008151116118f85760405180602001604052806000815250611923565b8061190284612a3c565b604051602001611913929190613504565b6040516020818303038152906040525b9392505050565b600f818154811061193a57600080fd5b60009182526020909120600490910201805460018201546002830154600390930154919350919084565b336001600160a01b037f000000000000000000000000000000000000000000000000000000000000000016146119ac5760405162461bcd60e51b81526004016107649061360d565b60006119b78361151f565b6000818152600d6020526040812054919350909150831215611a2b576119dc83613827565b811215611a2b5760405162461bcd60e51b815260206004820152601c60248201527f436c6f6e654e75727365733a204f757472616e67656420706f776572000000006044820152606401610764565b611a3583826136f4565b6000838152600d6020526040908190208290555190915082907f95dbced4d615bf88768e343c98d3d10cd6458a8fab8cc8a1b5ae9cb69167736590611a7d9086815260200190565b60405180910390a250505050565b6000546001600160a01b03163314611ab55760405162461bcd60e51b81526004016107649061363d565b601280546001600160a01b0319166001600160a01b039390931692909217909155601155565b81811415611b2b5760405162461bcd60e51b815260206004820152601d60248201527f436c6f6e654e75727365733a20496e76616c69642069642c20746f49640000006044820152606401610764565b611b34826112af565b6001600160a01b0316336001600160a01b031614611b645760405162461bcd60e51b81526004016107649061360d565b611b6d816122c2565b611bb95760405162461bcd60e51b815260206004820152601960248201527f436c6f6e654e75727365733a20496e76616c696420746f4964000000000000006044820152606401610764565b6000600f60108481548110611bd057611bd0613886565b90600052602060002090600302016000015481548110611bf257611bf2613886565b6000918252602082206040516370a0823160e01b8152306004828101919091529092020192506001600160a01b037f000000000000000000000000000000000000000000000000000000000000000016906370a082319060240160206040518083038186803b158015611c6457600080fd5b505afa158015611c78573d6000803e3d6000fd5b505050506040513d601f19601f82011682018060405250810190611c9c91906133de565b60028381015460405163a41fe49f60e01b815260048101929092526024820152604481018690529091507f00000000000000000000000000000000000000000000000000000000000000006001600160a01b03169063a41fe49f90606401600060405180830381600087803b158015611d1457600080fd5b505af1158015611d28573d6000803e3d6000fd5b50506040516370a0823160e01b8152306004820152600092507f00000000000000000000000000000000000000000000000000000000000000006001600160a01b031691506370a082319060240160206040518083038186803b158015611d8e57600080fd5b505afa158015611da2573d6000803e3d6000fd5b505050506040513d601f19601f82011682018060405250810190611dc691906133de565b90506000611dd48383613780565b9050611de08682612721565b6000868152600b602052604080822087905551869188917f692926c201c1a490c1553d7bd4d53beeae98652233db64a10ec99102aaadc9d39190a36000868152600d602052604080822054878352908220805491928392611e42908490613735565b90915550506000878152600d6020526040808220919091555186907f95dbced4d615bf88768e343c98d3d10cd6458a8fab8cc8a1b5ae9cb69167736590611e8c9084815260200190565b60405180910390a260018501546040516340c10f1960e01b815233600482015260248101919091527f00000000000000000000000000000000000000000000000000000000000000006001600160a01b0316906340c10f1990604401600060405180830381600087803b158015611f0257600080fd5b505af1158015611f16573d6000803e3d6000fd5b50505050611f2387612b3a565b50505050505050565b6000546001600160a01b03163314611f565760405162461bcd60e51b81526004016107649061363d565b6001600160a01b038116611fbb5760405162461bcd60e51b815260206004820152602660248201527f4f776e61626c653a206e6577206f776e657220697320746865207a65726f206160448201526564647265737360d01b6064820152608401610764565b600080546040516001600160a01b03808516939216917f8be0079c531659141344cd1fd0a4f28419497f9722a3daafe3b4186f6b6457e091a3600080546001600160a01b0319166001600160a01b0392909216919091179055565b600081116120745760405162461bcd60e51b815260206004820152602560248201527f436c6f6e654e75727365733a20496e76616c696420616d6f756e7473206f6620604482015264706172747360d81b6064820152608401610764565b60006010838154811061208957612089613886565b906000526020600020906003020190506000816000015490506000600f82815481106120b7576120b7613886565b906000526020600020906004020190506120d085610fb8565b604051637921219560e11b81526001600160a01b037f0000000000000000000000000000000000000000000000000000000000000000169063f242432a90612122903390309087908a90600401613570565b600060405180830381600087803b15801561213c57600080fd5b505af1158015612150573d6000803e3d6000fd5b505060405163b390c0ab60e01b815260048101859052602481018790527f00000000000000000000000000000000000000000000000000000000000000006001600160a01b0316925063b390c0ab9150604401600060405180830381600087803b1580156121bd57600080fd5b505af11580156121d1573d6000803e3d6000fd5b50505050600183015460004382106121ea5750806121ed565b50435b82546000906121fe90600190613780565b87856003015461220e9190613761565b612218919061374d565b6122229083613735565b60019096019590955550505050505050565b60006001600160e01b03198216630271189760e51b1480610713575061071382612be1565b6000828152600e602052604081208054839290612277908490613735565b909155505060405181815282906001600160a01b038516907f6ad72273f2c6a083788e6d2e111a219924ac6344c1bd520d0b318eba5b5cb04a906020015b60405180910390a3505050565b6000908152600360205260409020546001600160a01b0316151590565b600081815260056020526040902080546001600160a01b0319166001600160a01b0384169081179091558190612314826112af565b6001600160a01b03167f8c5be1e5ebec7d5bd14f71427d1e84f3dd0314c0f7b2291e5b200ac8c7c3b92560405160405180910390a45050565b6000612358826122c2565b6123b95760405162461bcd60e51b815260206004820152602c60248201527f4552433732313a206f70657261746f7220717565727920666f72206e6f6e657860448201526b34b9ba32b73a103a37b5b2b760a11b6064820152608401610764565b60006123c4836112af565b9050806001600160a01b0316846001600160a01b031614806123ff5750836001600160a01b03166123f484610844565b6001600160a01b0316145b8061242f57506001600160a01b0380821660009081526006602090815260408083209388168352929052205460ff165b949350505050565b826001600160a01b031661244a826112af565b6001600160a01b0316146124b25760405162461bcd60e51b815260206004820152602960248201527f4552433732313a207472616e73666572206f6620746f6b656e2074686174206960448201526839903737ba1037bbb760b91b6064820152608401610764565b6001600160a01b0382166125145760405162461bcd60e51b8152602060048201526024808201527f4552433732313a207472616e7366657220746f20746865207a65726f206164646044820152637265737360e01b6064820152608401610764565b61251f838383612c06565b61252a6000826122df565b6001600160a01b0383166000908152600460205260408120805460019290612553908490613780565b90915550506001600160a01b0382166000908152600460205260408120805460019290612581908490613735565b909155505060008181526003602052604080822080546001600160a01b0319166001600160a01b0386811691821790925591518493918716917fddf252ad1be2c89b69c2b068fc378daa952ba7f163c4a11628f55a4df523b3ef91a4505050565b6001600160a01b0382166126385760405162461bcd60e51b815260206004820181905260248201527f4552433732313a206d696e7420746f20746865207a65726f20616464726573736044820152606401610764565b612641816122c2565b1561268e5760405162461bcd60e51b815260206004820152601c60248201527f4552433732313a20746f6b656e20616c7265616479206d696e746564000000006044820152606401610764565b61269a60008383612c06565b6001600160a01b03821660009081526004602052604081208054600192906126c3908490613735565b909155505060008181526003602052604080822080546001600160a01b0319166001600160a01b03861690811790915590518392907fddf252ad1be2c89b69c2b068fc378daa952ba7f163c4a11628f55a4df523b3ef908290a45050565b8061272a575050565b60006010838154811061273f5761273f613886565b6000918252602082206001600390920201908101546002820154919350918082841161276d578591506127b3565b438410156127b05761277f8443613780565b6127898486613780565b6127939088613761565b61279d919061374d565b90506127a98187613780565b91506127b3565b50845b811561283457604051630852cd8d60e31b8152600481018390527f00000000000000000000000000000000000000000000000000000000000000006001600160a01b0316906342966c6890602401600060405180830381600087803b15801561281b57600080fd5b505af115801561282f573d6000803e3d6000fd5b505050505b80156128dc5760405163a9059cbb60e01b8152336004820152602481018290527f00000000000000000000000000000000000000000000000000000000000000006001600160a01b03169063a9059cbb90604401602060405180830381600087803b1580156128a257600080fd5b505af11580156128b6573d6000803e3d6000fd5b505050506040513d601f19601f820116820180604052508101906128da919061336e565b505b436002860155604051818152339088907f3ed1528b0fdc7c5207c1bf935e34a667e13656b9ed165260c522be0bc544f3039060200160405180910390a350505050505050565b816001600160a01b0316836001600160a01b031614156129845760405162461bcd60e51b815260206004820152601960248201527f4552433732313a20617070726f766520746f2063616c6c6572000000000000006044820152606401610764565b6001600160a01b03838116600081815260066020908152604080832094871680845294825291829020805460ff191686151590811790915591519182527f17307eab39ab6107e8899845ad3d59bd9653f200f220920489ca2b5937696c3191016122b5565b6129f4848484612437565b612a0084848484612c11565b6111c85760405162461bcd60e51b8152600401610764906135bb565b60606040518060600160405280602581526020016138da60259139905090565b606081612a605750506040805180820190915260018152600360fc1b602082015290565b8160005b8115612a8a5780612a74816137f8565b9150612a839050600a8361374d565b9150612a64565b60008167ffffffffffffffff811115612aa557612aa561389c565b6040519080825280601f01601f191660200182016040528015612acf576020820181803683370190505b5090505b841561242f57612ae4600183613780565b9150612af1600a86613813565b612afc906030613735565b60f81b818381518110612b1157612b11613886565b60200101906001600160f81b031916908160001a905350612b33600a8661374d565b9450612ad3565b6000612b45826112af565b9050612b5381600084612c06565b612b5e6000836122df565b6001600160a01b0381166000908152600460205260408120805460019290612b87908490613780565b909155505060008281526003602052604080822080546001600160a01b0319169055518391906001600160a01b038416907fddf252ad1be2c89b69c2b068fc378daa952ba7f163c4a11628f55a4df523b3ef908390a45050565b60006001600160e01b0319821663780e9d6360e01b1480610713575061071382612d1e565b6109dd838383612d6e565b60006001600160a01b0384163b15612d1357604051630a85bd0160e11b81526001600160a01b0385169063150b7a0290612c55903390899088908890600401613533565b602060405180830381600087803b158015612c6f57600080fd5b505af1925050508015612c9f575060408051601f3d908101601f19168201909252612c9c918101906133a8565b60015b612cf9573d808015612ccd576040519150601f19603f3d011682016040523d82523d6000602084013e612cd2565b606091505b508051612cf15760405162461bcd60e51b8152600401610764906135bb565b805181602001fd5b6001600160e01b031916630a85bd0160e11b14905061242f565b506001949350505050565b60006001600160e01b031982166380ac58cd60e01b1480612d4f57506001600160e01b03198216635b5e139f60e01b145b8061071357506301ffc9a760e01b6001600160e01b0319831614610713565b6001600160a01b038316612dc957612dc481600980546000838152600a60205260408120829055600182018355919091527f6e1540171b6c0c960b71a7020d9f60077f6af931a8bbf590da0223dacf75c7af0155565b612dec565b816001600160a01b0316836001600160a01b031614612dec57612dec8382612e26565b6001600160a01b038216612e03576109dd81612ec3565b826001600160a01b0316826001600160a01b0316146109dd576109dd8282612f72565b60006001612e3384611326565b612e3d9190613780565b600083815260086020526040902054909150808214612e90576001600160a01b03841660009081526007602090815260408083208584528252808320548484528184208190558352600890915290208190555b5060009182526008602090815260408084208490556001600160a01b039094168352600781528383209183525290812055565b600954600090612ed590600190613780565b6000838152600a602052604081205460098054939450909284908110612efd57612efd613886565b906000526020600020015490508060098381548110612f1e57612f1e613886565b6000918252602080832090910192909255828152600a90915260408082208490558582528120556009805480612f5657612f56613870565b6001900381819060005260206000200160009055905550505050565b6000612f7d83611326565b6001600160a01b039093166000908152600760209081526040808320868452825280832085905593825260089052919091209190915550565b80356001600160a01b0381168114612fcd57600080fd5b919050565b600082601f830112612fe357600080fd5b8135602067ffffffffffffffff821115612fff57612fff61389c565b8160051b61300e8282016136c3565b83815282810190868401838801850189101561302957600080fd5b600093505b8584101561304c57803583526001939093019291840191840161302e565b50979650505050505050565b600082601f83011261306957600080fd5b813567ffffffffffffffff8111156130835761308361389c565b613096601f8201601f19166020016136c3565b8181528460208386010111156130ab57600080fd5b816020850160208301376000918101602001919091529392505050565b803560ff81168114612fcd57600080fd5b6000602082840312156130eb57600080fd5b61192382612fb6565b6000806040838503121561310757600080fd5b61311083612fb6565b915061311e60208401612fb6565b90509250929050565b600080600080600060a0868803121561313f57600080fd5b61314886612fb6565b945061315660208701612fb6565b9350604086013567ffffffffffffffff8082111561317357600080fd5b61317f89838a01612fd2565b9450606088013591508082111561319557600080fd5b6131a189838a01612fd2565b935060808801359150808211156131b757600080fd5b506131c488828901613058565b9150509295509295909350565b6000806000606084860312156131e657600080fd5b6131ef84612fb6565b92506131fd60208501612fb6565b9150604084013590509250925092565b6000806000806080858703121561322357600080fd5b61322c85612fb6565b935061323a60208601612fb6565b925060408501359150606085013567ffffffffffffffff81111561325d57600080fd5b61326987828801613058565b91505092959194509250565b600080600080600060a0868803121561328d57600080fd5b61329686612fb6565b94506132a460208701612fb6565b93506040860135925060608601359150608086013567ffffffffffffffff8111156132ce57600080fd5b6131c488828901613058565b600080604083850312156132ed57600080fd5b6132f683612fb6565b91506020830135613306816138b2565b809150509250929050565b6000806040838503121561332457600080fd5b61332d83612fb6565b946020939093013593505050565b60008060006060848603121561335057600080fd5b61335984612fb6565b95602085013595506040909401359392505050565b60006020828403121561338057600080fd5b8151611923816138b2565b60006020828403121561339d57600080fd5b8135611923816138c3565b6000602082840312156133ba57600080fd5b8151611923816138c3565b6000602082840312156133d757600080fd5b5035919050565b6000602082840312156133f057600080fd5b5051919050565b60008060006060848603121561340c57600080fd5b8335925061341c60208501612fb6565b915061342a604085016130c8565b90509250925092565b6000806040838503121561344657600080fd5b50508035926020909101359150565b6000806000806080858703121561346b57600080fd5b5050823594602084013594506040840135936060013592509050565b60008060008060008060c087890312156134a057600080fd5b8635955060208701359450604087013593506134be606088016130c8565b92506080870135915060a087013590509295509295509295565b600081518084526134f0816020860160208601613797565b601f01601f19169290920160200192915050565b60008351613516818460208801613797565b83519083019061352a818360208801613797565b01949350505050565b6001600160a01b0385811682528416602082015260408101839052608060608201819052600090613566908301846134d8565b9695505050505050565b6001600160a01b0394851681529290931660208301526040820152606081019190915260a06080820181905260009082015260c00190565b60208152600061192360208301846134d8565b60208082526032908201527f4552433732313a207472616e7366657220746f206e6f6e20455243373231526560408201527131b2b4bb32b91034b6b83632b6b2b73a32b960711b606082015260800190565b60208082526016908201527521b637b732a73ab939b2b99d102337b93134b23232b760511b604082015260600190565b6020808252818101527f4f776e61626c653a2063616c6c6572206973206e6f7420746865206f776e6572604082015260600190565b60208082526031908201527f4552433732313a207472616e736665722063616c6c6572206973206e6f74206f6040820152701ddb995c881b9bdc88185c1c1c9bdd9959607a1b606082015260800190565b604051601f8201601f1916810167ffffffffffffffff811182821017156136ec576136ec61389c565b604052919050565b600080821280156001600160ff1b038490038513161561371657613716613844565b600160ff1b839003841281161561372f5761372f613844565b50500190565b6000821982111561374857613748613844565b500190565b60008261375c5761375c61385a565b500490565b600081600019048311821515161561377b5761377b613844565b500290565b60008282101561379257613792613844565b500390565b60005b838110156137b257818101518382015260200161379a565b838111156111c85750506000910152565b600181811c908216806137d757607f821691505b60208210811415610b7457634e487b7160e01b600052602260045260246000fd5b600060001982141561380c5761380c613844565b5060010190565b6000826138225761382261385a565b500690565b6000600160ff1b82141561383d5761383d613844565b5060000390565b634e487b7160e01b600052601160045260246000fd5b634e487b7160e01b600052601260045260246000fd5b634e487b7160e01b600052603160045260246000fd5b634e487b7160e01b600052603260045260246000fd5b634e487b7160e01b600052604160045260246000fd5b80151581146138c057600080fd5b50565b6001600160e01b0319811681146138c057600080fdfe68747470733a2f2f6170692e6d616964636f696e2e6f72672f636c6f6e656e75727365732fa2646970667358221220026af39279a67257455be9b39e28a22f7c84c2fc4393b09482f5247caf1c866764736f6c63430008050033",
    "linkReferences": {},
    "deployedLinkReferences": {}
}