{
    "_format": "hh-sol-artifact-1",
    "contractName": "NurseRaid",
    "sourceName": "contracts/NurseRaid.sol",
    "abi": [
        {
            "inputs": [
                {
                    "internalType": "contract IMaidCoin",
                    "name": "_maidCoin",
                    "type": "address"
                },
                {
                    "internalType": "contract IMaidCafe",
                    "name": "_maidCafe",
                    "type": "address"
                },
                {
                    "internalType": "contract INursePart",
                    "name": "_nursePart",
                    "type": "address"
                },
                {
                    "internalType": "contract IRNG",
                    "name": "_rng",
                    "type": "address"
                }
            ],
            "stateMutability": "nonpayable",
            "type": "constructor"
        },
        {
            "anonymous": false,
            "inputs": [
                {
                    "indexed": false,
                    "internalType": "uint256",
                    "name": "numerator",
                    "type": "uint256"
                },
                {
                    "indexed": false,
                    "internalType": "uint256",
                    "name": "denominator",
                    "type": "uint256"
                }
            ],
            "name": "ChangeMaidEfficacy",
            "type": "event"
        },
        {
            "anonymous": false,
            "inputs": [
                {
                    "indexed": true,
                    "internalType": "uint256",
                    "name": "id",
                    "type": "uint256"
                },
                {
                    "indexed": false,
                    "internalType": "uint256",
                    "name": "entranceFee",
                    "type": "uint256"
                },
                {
                    "indexed": true,
                    "internalType": "uint256",
                    "name": "nursePart",
                    "type": "uint256"
                },
                {
                    "indexed": false,
                    "internalType": "uint256",
                    "name": "maxRewardCount",
                    "type": "uint256"
                },
                {
                    "indexed": false,
                    "internalType": "uint256",
                    "name": "duration",
                    "type": "uint256"
                },
                {
                    "indexed": false,
                    "internalType": "uint256",
                    "name": "endBlock",
                    "type": "uint256"
                }
            ],
            "name": "Create",
            "type": "event"
        },
        {
            "anonymous": false,
            "inputs": [
                {
                    "indexed": true,
                    "internalType": "address",
                    "name": "challenger",
                    "type": "address"
                },
                {
                    "indexed": true,
                    "internalType": "uint256",
                    "name": "id",
                    "type": "uint256"
                },
                {
                    "indexed": true,
                    "internalType": "contract IMaids",
                    "name": "maids",
                    "type": "address"
                },
                {
                    "indexed": false,
                    "internalType": "uint256",
                    "name": "maidId",
                    "type": "uint256"
                }
            ],
            "name": "Enter",
            "type": "event"
        },
        {
            "anonymous": false,
            "inputs": [
                {
                    "indexed": true,
                    "internalType": "address",
                    "name": "challenger",
                    "type": "address"
                },
                {
                    "indexed": true,
                    "internalType": "uint256",
                    "name": "id",
                    "type": "uint256"
                }
            ],
            "name": "Exit",
            "type": "event"
        },
        {
            "anonymous": false,
            "inputs": [
                {
                    "indexed": true,
                    "internalType": "address",
                    "name": "previousOwner",
                    "type": "address"
                },
                {
                    "indexed": true,
                    "internalType": "address",
                    "name": "newOwner",
                    "type": "address"
                }
            ],
            "name": "OwnershipTransferred",
            "type": "event"
        },
        {
            "inputs": [
                {
                    "internalType": "contract IMaids[]",
                    "name": "maids",
                    "type": "address[]"
                }
            ],
            "name": "approveMaids",
            "outputs": [],
            "stateMutability": "nonpayable",
            "type": "function"
        },
        {
            "inputs": [
                {
                    "internalType": "uint256",
                    "name": "",
                    "type": "uint256"
                },
                {
                    "internalType": "address",
                    "name": "",
                    "type": "address"
                }
            ],
            "name": "challengers",
            "outputs": [
                {
                    "internalType": "uint256",
                    "name": "enterBlock",
                    "type": "uint256"
                },
                {
                    "internalType": "contract IMaids",
                    "name": "maids",
                    "type": "address"
                },
                {
                    "internalType": "uint256",
                    "name": "maidId",
                    "type": "uint256"
                }
            ],
            "stateMutability": "view",
            "type": "function"
        },
        {
            "inputs": [
                {
                    "internalType": "uint256",
                    "name": "_numerator",
                    "type": "uint256"
                },
                {
                    "internalType": "uint256",
                    "name": "_denominator",
                    "type": "uint256"
                }
            ],
            "name": "changeMaidEfficacy",
            "outputs": [],
            "stateMutability": "nonpayable",
            "type": "function"
        },
        {
            "inputs": [
                {
                    "internalType": "address",
                    "name": "addr",
                    "type": "address"
                }
            ],
            "name": "changeRNG",
            "outputs": [],
            "stateMutability": "nonpayable",
            "type": "function"
        },
        {
            "inputs": [
                {
                    "internalType": "uint256",
                    "name": "id",
                    "type": "uint256"
                }
            ],
            "name": "checkDone",
            "outputs": [
                {
                    "internalType": "bool",
                    "name": "",
                    "type": "bool"
                }
            ],
            "stateMutability": "view",
            "type": "function"
        },
        {
            "inputs": [
                {
                    "internalType": "uint256[]",
                    "name": "entranceFees",
                    "type": "uint256[]"
                },
                {
                    "internalType": "uint256[]",
                    "name": "_nurseParts",
                    "type": "uint256[]"
                },
                {
                    "internalType": "uint256[]",
                    "name": "maxRewardCounts",
                    "type": "uint256[]"
                },
                {
                    "internalType": "uint256[]",
                    "name": "durations",
                    "type": "uint256[]"
                },
                {
                    "internalType": "uint256[]",
                    "name": "endBlocks",
                    "type": "uint256[]"
                }
            ],
            "name": "create",
            "outputs": [
                {
                    "internalType": "uint256",
                    "name": "id",
                    "type": "uint256"
                }
            ],
            "stateMutability": "nonpayable",
            "type": "function"
        },
        {
            "inputs": [
                {
                    "internalType": "contract IMaids[]",
                    "name": "maids",
                    "type": "address[]"
                }
            ],
            "name": "disapproveMaids",
            "outputs": [],
            "stateMutability": "nonpayable",
            "type": "function"
        },
        {
            "inputs": [
                {
                    "internalType": "uint256",
                    "name": "id",
                    "type": "uint256"
                },
                {
                    "internalType": "contract IMaids",
                    "name": "maids",
                    "type": "address"
                },
                {
                    "internalType": "uint256",
                    "name": "maidId",
                    "type": "uint256"
                }
            ],
            "name": "enter",
            "outputs": [],
            "stateMutability": "nonpayable",
            "type": "function"
        },
        {
            "inputs": [
                {
                    "internalType": "uint256",
                    "name": "id",
                    "type": "uint256"
                },
                {
                    "internalType": "contract IMaids",
                    "name": "maids",
                    "type": "address"
                },
                {
                    "internalType": "uint256",
                    "name": "maidId",
                    "type": "uint256"
                },
                {
                    "internalType": "uint256",
                    "name": "deadline",
                    "type": "uint256"
                },
                {
                    "internalType": "uint8",
                    "name": "v1",
                    "type": "uint8"
                },
                {
                    "internalType": "bytes32",
                    "name": "r1",
                    "type": "bytes32"
                },
                {
                    "internalType": "bytes32",
                    "name": "s1",
                    "type": "bytes32"
                },
                {
                    "internalType": "uint8",
                    "name": "v2",
                    "type": "uint8"
                },
                {
                    "internalType": "bytes32",
                    "name": "r2",
                    "type": "bytes32"
                },
                {
                    "internalType": "bytes32",
                    "name": "s2",
                    "type": "bytes32"
                }
            ],
            "name": "enterWithPermitAll",
            "outputs": [],
            "stateMutability": "nonpayable",
            "type": "function"
        },
        {
            "inputs": [
                {
                    "internalType": "uint256[]",
                    "name": "ids",
                    "type": "uint256[]"
                }
            ],
            "name": "exit",
            "outputs": [],
            "stateMutability": "nonpayable",
            "type": "function"
        },
        {
            "inputs": [
                {
                    "internalType": "contract IMaids",
                    "name": "",
                    "type": "address"
                }
            ],
            "name": "isMaidsApproved",
            "outputs": [
                {
                    "internalType": "bool",
                    "name": "",
                    "type": "bool"
                }
            ],
            "stateMutability": "view",
            "type": "function"
        },
        {
            "inputs": [],
            "name": "maidCafe",
            "outputs": [
                {
                    "internalType": "contract IMaidCafe",
                    "name": "",
                    "type": "address"
                }
            ],
            "stateMutability": "view",
            "type": "function"
        },
        {
            "inputs": [],
            "name": "maidCoin",
            "outputs": [
                {
                    "internalType": "contract IMaidCoin",
                    "name": "",
                    "type": "address"
                }
            ],
            "stateMutability": "view",
            "type": "function"
        },
        {
            "inputs": [],
            "name": "maidEfficacy",
            "outputs": [
                {
                    "internalType": "uint256",
                    "name": "numerator",
                    "type": "uint256"
                },
                {
                    "internalType": "uint256",
                    "name": "denominator",
                    "type": "uint256"
                }
            ],
            "stateMutability": "view",
            "type": "function"
        },
        {
            "inputs": [],
            "name": "nursePart",
            "outputs": [
                {
                    "internalType": "contract INursePart",
                    "name": "",
                    "type": "address"
                }
            ],
            "stateMutability": "view",
            "type": "function"
        },
        {
            "inputs": [],
            "name": "owner",
            "outputs": [
                {
                    "internalType": "address",
                    "name": "",
                    "type": "address"
                }
            ],
            "stateMutability": "view",
            "type": "function"
        },
        {
            "inputs": [],
            "name": "raidCount",
            "outputs": [
                {
                    "internalType": "uint256",
                    "name": "",
                    "type": "uint256"
                }
            ],
            "stateMutability": "view",
            "type": "function"
        },
        {
            "inputs": [
                {
                    "internalType": "uint256",
                    "name": "",
                    "type": "uint256"
                }
            ],
            "name": "raids",
            "outputs": [
                {
                    "internalType": "uint256",
                    "name": "entranceFee",
                    "type": "uint256"
                },
                {
                    "internalType": "uint256",
                    "name": "nursePart",
                    "type": "uint256"
                },
                {
                    "internalType": "uint256",
                    "name": "maxRewardCount",
                    "type": "uint256"
                },
                {
                    "internalType": "uint256",
                    "name": "duration",
                    "type": "uint256"
                },
                {
                    "internalType": "uint256",
                    "name": "endBlock",
                    "type": "uint256"
                }
            ],
            "stateMutability": "view",
            "type": "function"
        },
        {
            "inputs": [],
            "name": "renounceOwnership",
            "outputs": [],
            "stateMutability": "nonpayable",
            "type": "function"
        },
        {
            "inputs": [],
            "name": "rng",
            "outputs": [
                {
                    "internalType": "contract IRNG",
                    "name": "",
                    "type": "address"
                }
            ],
            "stateMutability": "view",
            "type": "function"
        },
        {
            "inputs": [
                {
                    "internalType": "contract IMaidCafe",
                    "name": "_maidCafe",
                    "type": "address"
                }
            ],
            "name": "setMaidCafe",
            "outputs": [],
            "stateMutability": "nonpayable",
            "type": "function"
        },
        {
            "inputs": [
                {
                    "internalType": "address",
                    "name": "newOwner",
                    "type": "address"
                }
            ],
            "name": "transferOwnership",
            "outputs": [],
            "stateMutability": "nonpayable",
            "type": "function"
        }
    ],
    "bytecode": "0x610100604052600160c08190526103e860e08190526006919091556007553480156200002a57600080fd5b5060405162001d1538038062001d158339810160408190526200004d91620000e0565b600080546001600160a01b031916339081178255604051909182917f8be0079c531659141344cd1fd0a4f28419497f9722a3daafe3b4186f6b6457e0908290a3506001600160601b0319606094851b8116608052600480546001600160a01b039586166001600160a01b0319918216179091559290941b90931660a0526005805493909216921691909117905562000161565b60008060008060808587031215620000f757600080fd5b8451620001048162000148565b6020860151909450620001178162000148565b60408601519093506200012a8162000148565b60608601519092506200013d8162000148565b939692955090935050565b6001600160a01b03811681146200015e57600080fd5b50565b60805160601c60a05160601c611b65620001b060003960008181610321015261055101526000818161023d01528181610c110152818161106d0152818161112101526115820152611b656000f3fe608060405234801561001057600080fd5b50600436106101425760003560e01c806396c52a45116100b8578063bd36095a1161007c578063bd36095a1461035e578063c562a68414610371578063d15d2e4314610384578063d605787b14610397578063e20ddcac146103aa578063f2fde38b146103bd57600080fd5b806396c52a45146102ce5780639f20ae83146102e1578063b24606b81461031c578063b5aa5d7514610343578063bab1a1951461035657600080fd5b80634b9b586e1161010a5780634b9b586e146101cb578063715018a614610230578063849e5aff146102385780638656b2b3146102775780638aacfa521461029a5780638da5cb5b146102bd57600080fd5b806318c08f2614610147578063230eb4fd1461015c57806338f652461461018257806343c5c285146101a55780634b7388e6146101b8575b600080fd5b61015a610155366004611688565b6103d0565b005b61016f61016a3660046116ca565b6106fb565b6040519081526020015b60405180910390f35b600654600754610190919082565b60408051928352602083019190915201610179565b61015a6101b3366004611688565b610972565b61015a6101c6366004611688565b610a0e565b61020d6101d936600461180f565b600260208181526000938452604080852090915291835291208054600182015491909201546001600160a01b039091169083565b604080519384526001600160a01b03909216602084015290820152606001610179565b61015a610aaa565b61025f7f000000000000000000000000000000000000000000000000000000000000000081565b6040516001600160a01b039091168152602001610179565b61028a6102853660046117dd565b610b1e565b6040519015158152602001610179565b61028a6102a8366004611664565b60036020526000908152604090205460ff1681565b6000546001600160a01b031661025f565b61015a6102dc366004611877565b610bd0565b6102f46102ef3660046117dd565b610d09565b604080519586526020860194909452928401919091526060830152608082015260a001610179565b61025f7f000000000000000000000000000000000000000000000000000000000000000081565b61015a610351366004611902565b610d4a565b60015461016f565b60045461025f906001600160a01b031681565b61015a61037f366004611664565b610dcc565b61015a61039236600461183f565b610e18565b60055461025f906001600160a01b031681565b61015a6103b8366004611664565b6111f7565b61015a6103cb366004611664565b611243565b60005b818110156106f6576000600260008585858181106103f3576103f3611b01565b60209081029290920135835250818101929092526040908101600090812033825283528190208151606081018352815480825260018301546001600160a01b0316948201949094526002909101549181019190915291506104ac5760405162461bcd60e51b815260206004820152602860248201527f4e75727365526169643a204e6f742070617274696369706174696e6720696e206044820152671d1a19481c985a5960c21b60648201526084015b60405180910390fd5b600060018585858181106104c2576104c2611b01565b90506020020135815481106104d9576104d9611b01565b906000526020600020906005020190506104f781600301548361132d565b156105b757600061052586868681811061051357610513611b01565b90506020020135836002015433611422565b6001830154604051630ab714fb60e11b81523360048201526024810191909152604481018290529091507f00000000000000000000000000000000000000000000000000000000000000006001600160a01b03169063156e29f690606401600060405180830381600087803b15801561059d57600080fd5b505af11580156105b1573d6000803e3d6000fd5b50505050505b60208201516001600160a01b03161561063d57602082015160408084015190516323b872dd60e01b815230600482015233602482015260448101919091526001600160a01b03909116906323b872dd90606401600060405180830381600087803b15801561062457600080fd5b505af1158015610638573d6000803e3d6000fd5b505050505b6002600086868681811061065357610653611b01565b60209081029290920135835250818101929092526040908101600090812033825290925281208181556001810180546001600160a01b0319169055600201558484848181106106a4576106a4611b01565b90506020020135336001600160a01b03167f22d324652c93739755cf4581508b60875ebdd78c20c0cff5cf8e23452b29963160405160405180910390a3505080806106ee90611aa6565b9150506103d3565b505050565b600080546001600160a01b031633146107265760405162461bcd60e51b81526004016104a390611924565b8960005b818110156109625760ff89898381811061074657610746611b01565b905060200201351061079a5760405162461bcd60e51b815260206004820152601960248201527f4e75727365526169643a20496e76616c6964206e756d6265720000000000000060448201526064016104a3565b600180549050925060016040518060a001604052808f8f858181106107c1576107c1611b01565b9050602002013581526020018d8d858181106107df576107df611b01565b9050602002013581526020018b8b858181106107fd576107fd611b01565b90506020020135815260200189898581811061081b5761081b611b01565b90506020020135815260200187878581811061083957610839611b01565b6020908102929092013590925283546001818101865560009586529482902084516005909202019081559083015193810193909355506040810151600283015560608101516003830155608001516004909101558a8a8281811061089f5761089f611b01565b90506020020135837fe67bc7994d282c0fbf31557abeca3bf42c2dc7e627c6aff056739bfd6609b5d68f8f858181106108da576108da611b01565b905060200201358c8c868181106108f3576108f3611b01565b905060200201358b8b8781811061090c5761090c611b01565b905060200201358a8a8881811061092557610925611b01565b604080519687526020878101969096528601939093525091020135606082015260800160405180910390a38061095a81611aa6565b91505061072a565b50509a9950505050505050505050565b6000546001600160a01b0316331461099c5760405162461bcd60e51b81526004016104a390611924565b60005b818110156106f6576001600360008585858181106109bf576109bf611b01565b90506020020160208101906109d49190611664565b6001600160a01b031681526020810191909152604001600020805460ff1916911515919091179055610a07600182611959565b905061099f565b6000546001600160a01b03163314610a385760405162461bcd60e51b81526004016104a390611924565b60005b818110156106f657600060036000858585818110610a5b57610a5b611b01565b9050602002016020810190610a709190611664565b6001600160a01b031681526020810191909152604001600020805460ff1916911515919091179055610aa3600182611959565b9050610a3b565b6000546001600160a01b03163314610ad45760405162461bcd60e51b81526004016104a390611924565b600080546040516001600160a01b03909116907f8be0079c531659141344cd1fd0a4f28419497f9722a3daafe3b4186f6b6457e0908390a3600080546001600160a01b0319169055565b60008060018381548110610b3457610b34611b01565b600091825260208083206040805160a08101825260059094029091018054845260018082015485850152600280830154868501526003830154606080880191825260049094015460808801528a88528186528488203389528652968490208451938401855280548452918201546001600160a01b03169483019490945290920154908201529151909250610bc8908261132d565b949350505050565b60405163d505accf60e01b815233600482015230602482015260001960448201526064810188905260ff8716608482015260a4810186905260c481018590527f00000000000000000000000000000000000000000000000000000000000000006001600160a01b03169063d505accf9060e401600060405180830381600087803b158015610c5d57600080fd5b505af1158015610c71573d6000803e3d6000fd5b505060405163aba0784760e01b8152336004820152306024820152604481018a905260ff861660648201526084810185905260a481018490526001600160a01b038c16925063aba07847915060c401600060405180830381600087803b158015610cda57600080fd5b505af1158015610cee573d6000803e3d6000fd5b50505050610cfd8a8a8a610e18565b50505050505050505050565b60018181548110610d1957600080fd5b6000918252602090912060059091020180546001820154600283015460038401546004909401549294509092909185565b6000546001600160a01b03163314610d745760405162461bcd60e51b81526004016104a390611924565b60408051808201825283815260209081018390526006849055600783905581518481529081018390527fb8cded0f783883feb28d3a46c16a1394521d97ce9b29f85f4f9979eaf4b32e26910160405180910390a15050565b6000546001600160a01b03163314610df65760405162461bcd60e51b81526004016104a390611924565b600580546001600160a01b0319166001600160a01b0392909216919091179055565b816001600160a01b0381161580610e4757506001600160a01b03811660009081526003602052604090205460ff165b610e9f5760405162461bcd60e51b8152602060048201526024808201527f4e75727365526169643a20546865206d61696473206973206e6f7420617070726044820152631bdd995960e21b60648201526084016104a3565b600060018581548110610eb457610eb4611b01565b9060005260206000209060050201905080600401544310610f175760405162461bcd60e51b815260206004820152601960248201527f4e75727365526169643a20526169642068617320656e6465640000000000000060448201526064016104a3565b600085815260026020908152604080832033845290915290205415610f7e5760405162461bcd60e51b815260206004820152601e60248201527f4e75727365526169643a205261696420697320696e2070726f6772657373000060448201526064016104a3565b604080516060810182524381526001600160a01b03868116602080840182815284860189815260008c815260028085528882203383529094529690962094518555516001850180546001600160a01b0319169190941617909255925191015515611049576040516323b872dd60e01b8152336004820152306024820152604481018490526001600160a01b038516906323b872dd90606401600060405180830381600087803b15801561103057600080fd5b505af1158015611044573d6000803e3d6000fd5b505050505b80546040516323b872dd60e01b8152336004820152306024820152604481018290527f00000000000000000000000000000000000000000000000000000000000000006001600160a01b0316906323b872dd90606401602060405180830381600087803b1580156110b957600080fd5b505af11580156110cd573d6000803e3d6000fd5b505050506040513d601f19601f820116820180604052508101906110f191906117bb565b5060006103e8611102836003611a70565b61110c9190611971565b905061111781611556565b6001600160a01b037f0000000000000000000000000000000000000000000000000000000000000000166342966c686111508385611a8f565b6040518263ffffffff1660e01b815260040161116e91815260200190565b600060405180830381600087803b15801561118857600080fd5b505af115801561119c573d6000803e3d6000fd5b50505050856001600160a01b031687336001600160a01b03167fdbaee2f8bdfe2e27e53a55ba816b9e0b74c12780d27d142b35023fa491602d61886040516111e691815260200190565b60405180910390a450505050505050565b6000546001600160a01b031633146112215760405162461bcd60e51b81526004016104a390611924565b600480546001600160a01b0319166001600160a01b0392909216919091179055565b6000546001600160a01b0316331461126d5760405162461bcd60e51b81526004016104a390611924565b6001600160a01b0381166112d25760405162461bcd60e51b815260206004820152602660248201527f4f776e61626c653a206e6577206f776e657220697320746865207a65726f206160448201526564647265737360d01b60648201526084016104a3565b600080546040516001600160a01b03808516939216917f8be0079c531659141344cd1fd0a4f28419497f9722a3daafe3b4186f6b6457e091a3600080546001600160a01b0319166001600160a01b0392909216919091179055565b60208101516000906001600160a01b031661135957815183906113509043611a8f565b1015905061141c565b600754600654602084015160408086015190516304eaa11360e01b81526001600160a01b03909216916304eaa113916113989160040190815260200190565b60206040518083038186803b1580156113b057600080fd5b505afa1580156113c4573d6000803e3d6000fd5b505050506040513d601f19601f820116820180604052508101906113e891906117f6565b6113f29086611a70565b6113fc9190611a70565b6114069190611971565b6114109084611a8f565b82516113509043611a8f565b92915050565b60008060016114328560026119c8565b61143c9190611a8f565b611447906002611a70565b6005546040516344a0a49160e01b8152600481018890526001600160a01b038681166024830152929350600092849216906344a0a49190604401602060405180830381600087803b15801561149b57600080fd5b505af11580156114af573d6000803e3d6000fd5b505050506040513d601f19601f820116820180604052508101906114d391906117f6565b6114dd9190611ac1565b6114e8906001611959565b90506000805b8183111561154b57611501600182611959565b90508061150f886001611959565b6115199190611a8f565b6115249060026119c8565b61152f886001611959565b61153a9060026119c8565b6115449190611a8f565b91506114ee565b979650505050505050565b6004805460405163a9059cbb60e01b81526001600160a01b0391821692810192909252602482018390527f0000000000000000000000000000000000000000000000000000000000000000169063a9059cbb90604401602060405180830381600087803b1580156115c657600080fd5b505af11580156115da573d6000803e3d6000fd5b505050506040513d601f19601f820116820180604052508101906115fe91906117bb565b5050565b60008083601f84011261161457600080fd5b50813567ffffffffffffffff81111561162c57600080fd5b6020830191508360208260051b850101111561164757600080fd5b9250929050565b803560ff8116811461165f57600080fd5b919050565b60006020828403121561167657600080fd5b813561168181611b17565b9392505050565b6000806020838503121561169b57600080fd5b823567ffffffffffffffff8111156116b257600080fd5b6116be85828601611602565b90969095509350505050565b60008060008060008060008060008060a08b8d0312156116e957600080fd5b8a3567ffffffffffffffff8082111561170157600080fd5b61170d8e838f01611602565b909c509a5060208d013591508082111561172657600080fd5b6117328e838f01611602565b909a50985060408d013591508082111561174b57600080fd5b6117578e838f01611602565b909850965060608d013591508082111561177057600080fd5b61177c8e838f01611602565b909650945060808d013591508082111561179557600080fd5b506117a28d828e01611602565b915080935050809150509295989b9194979a5092959850565b6000602082840312156117cd57600080fd5b8151801515811461168157600080fd5b6000602082840312156117ef57600080fd5b5035919050565b60006020828403121561180857600080fd5b5051919050565b6000806040838503121561182257600080fd5b82359150602083013561183481611b17565b809150509250929050565b60008060006060848603121561185457600080fd5b83359250602084013561186681611b17565b929592945050506040919091013590565b6000806000806000806000806000806101408b8d03121561189757600080fd5b8a35995060208b01356118a981611b17565b985060408b0135975060608b013596506118c560808c0161164e565b955060a08b0135945060c08b013593506118e160e08c0161164e565b92506101008b013591506101208b013590509295989b9194979a5092959850565b6000806040838503121561191557600080fd5b50508035926020909101359150565b6020808252818101527f4f776e61626c653a2063616c6c6572206973206e6f7420746865206f776e6572604082015260600190565b6000821982111561196c5761196c611ad5565b500190565b60008261198057611980611aeb565b500490565b600181815b808511156119c05781600019048211156119a6576119a6611ad5565b808516156119b357918102915b93841c939080029061198a565b509250929050565b600061168183836000826119de5750600161141c565b816119eb5750600061141c565b8160018114611a015760028114611a0b57611a27565b600191505061141c565b60ff841115611a1c57611a1c611ad5565b50506001821b61141c565b5060208310610133831016604e8410600b8410161715611a4a575081810a61141c565b611a548383611985565b8060001904821115611a6857611a68611ad5565b029392505050565b6000816000190483118215151615611a8a57611a8a611ad5565b500290565b600082821015611aa157611aa1611ad5565b500390565b6000600019821415611aba57611aba611ad5565b5060010190565b600082611ad057611ad0611aeb565b500690565b634e487b7160e01b600052601160045260246000fd5b634e487b7160e01b600052601260045260246000fd5b634e487b7160e01b600052603260045260246000fd5b6001600160a01b0381168114611b2c57600080fd5b5056fea2646970667358221220fb0bd4bf2f45d3fa5d216077a77f4d7b8431ce9d61816cae011b95ed9e7b76fe64736f6c63430008050033",
    "linkReferences": {},
    "deployedLinkReferences": {}
}