{
    "_format": "hh-sol-artifact-1",
    "contractName": "NurseRaid",
    "sourceName": "contracts/NurseRaid.sol",
    "abi": [
        {
            "inputs": [
                {
                    "internalType": "contract IMaid",
                    "name": "_maid",
                    "type": "address"
                },
                {
                    "internalType": "contract IMaidCoin",
                    "name": "_maidCoin",
                    "type": "address"
                },
                {
                    "internalType": "contract INursePart",
                    "name": "_nursePart",
                    "type": "address"
                },
                {
                    "internalType": "contract IRNG",
                    "name": "_rng",
                    "type": "address"
                }
            ],
            "stateMutability": "nonpayable",
            "type": "constructor"
        },
        {
            "anonymous": false,
            "inputs": [
                {
                    "indexed": false,
                    "internalType": "uint256",
                    "name": "value",
                    "type": "uint256"
                }
            ],
            "name": "ChangeMaidPowerToRaidReducedBlock",
            "type": "event"
        },
        {
            "anonymous": false,
            "inputs": [
                {
                    "indexed": true,
                    "internalType": "uint256",
                    "name": "id",
                    "type": "uint256"
                },
                {
                    "indexed": false,
                    "internalType": "uint256",
                    "name": "entranceFee",
                    "type": "uint256"
                },
                {
                    "indexed": true,
                    "internalType": "uint256",
                    "name": "nursePart",
                    "type": "uint256"
                },
                {
                    "indexed": false,
                    "internalType": "uint256",
                    "name": "maxRewardCount",
                    "type": "uint256"
                },
                {
                    "indexed": false,
                    "internalType": "uint256",
                    "name": "duration",
                    "type": "uint256"
                },
                {
                    "indexed": false,
                    "internalType": "uint256",
                    "name": "endBlock",
                    "type": "uint256"
                }
            ],
            "name": "Create",
            "type": "event"
        },
        {
            "anonymous": false,
            "inputs": [
                {
                    "indexed": true,
                    "internalType": "address",
                    "name": "challenger",
                    "type": "address"
                },
                {
                    "indexed": true,
                    "internalType": "uint256",
                    "name": "id",
                    "type": "uint256"
                },
                {
                    "indexed": true,
                    "internalType": "uint256",
                    "name": "maid",
                    "type": "uint256"
                }
            ],
            "name": "Enter",
            "type": "event"
        },
        {
            "anonymous": false,
            "inputs": [
                {
                    "indexed": true,
                    "internalType": "address",
                    "name": "challenger",
                    "type": "address"
                },
                {
                    "indexed": true,
                    "internalType": "uint256",
                    "name": "id",
                    "type": "uint256"
                }
            ],
            "name": "Exit",
            "type": "event"
        },
        {
            "anonymous": false,
            "inputs": [
                {
                    "indexed": true,
                    "internalType": "address",
                    "name": "previousOwner",
                    "type": "address"
                },
                {
                    "indexed": true,
                    "internalType": "address",
                    "name": "newOwner",
                    "type": "address"
                }
            ],
            "name": "OwnershipTransferred",
            "type": "event"
        },
        {
            "inputs": [
                {
                    "internalType": "uint256",
                    "name": "",
                    "type": "uint256"
                },
                {
                    "internalType": "address",
                    "name": "",
                    "type": "address"
                }
            ],
            "name": "challengers",
            "outputs": [
                {
                    "internalType": "uint256",
                    "name": "enterBlock",
                    "type": "uint256"
                },
                {
                    "internalType": "uint256",
                    "name": "maid",
                    "type": "uint256"
                }
            ],
            "stateMutability": "view",
            "type": "function"
        },
        {
            "inputs": [
                {
                    "internalType": "uint256",
                    "name": "value",
                    "type": "uint256"
                }
            ],
            "name": "changeMaidPowerToRaidReducedBlock",
            "outputs": [],
            "stateMutability": "nonpayable",
            "type": "function"
        },
        {
            "inputs": [
                {
                    "internalType": "address",
                    "name": "addr",
                    "type": "address"
                }
            ],
            "name": "changeRNG",
            "outputs": [],
            "stateMutability": "nonpayable",
            "type": "function"
        },
        {
            "inputs": [
                {
                    "internalType": "uint256",
                    "name": "id",
                    "type": "uint256"
                }
            ],
            "name": "checkDone",
            "outputs": [
                {
                    "internalType": "bool",
                    "name": "",
                    "type": "bool"
                }
            ],
            "stateMutability": "view",
            "type": "function"
        },
        {
            "inputs": [
                {
                    "internalType": "uint256",
                    "name": "entranceFee",
                    "type": "uint256"
                },
                {
                    "internalType": "uint256",
                    "name": "_nursePart",
                    "type": "uint256"
                },
                {
                    "internalType": "uint256",
                    "name": "maxRewardCount",
                    "type": "uint256"
                },
                {
                    "internalType": "uint256",
                    "name": "duration",
                    "type": "uint256"
                },
                {
                    "internalType": "uint256",
                    "name": "endBlock",
                    "type": "uint256"
                }
            ],
            "name": "create",
            "outputs": [
                {
                    "internalType": "uint256",
                    "name": "id",
                    "type": "uint256"
                }
            ],
            "stateMutability": "nonpayable",
            "type": "function"
        },
        {
            "inputs": [
                {
                    "internalType": "uint256",
                    "name": "id",
                    "type": "uint256"
                },
                {
                    "internalType": "uint256",
                    "name": "_maid",
                    "type": "uint256"
                }
            ],
            "name": "enter",
            "outputs": [],
            "stateMutability": "nonpayable",
            "type": "function"
        },
        {
            "inputs": [
                {
                    "internalType": "uint256",
                    "name": "id",
                    "type": "uint256"
                },
                {
                    "internalType": "uint256",
                    "name": "_maid",
                    "type": "uint256"
                },
                {
                    "internalType": "uint256",
                    "name": "deadline",
                    "type": "uint256"
                },
                {
                    "internalType": "uint8",
                    "name": "v1",
                    "type": "uint8"
                },
                {
                    "internalType": "bytes32",
                    "name": "r1",
                    "type": "bytes32"
                },
                {
                    "internalType": "bytes32",
                    "name": "s1",
                    "type": "bytes32"
                },
                {
                    "internalType": "uint8",
                    "name": "v2",
                    "type": "uint8"
                },
                {
                    "internalType": "bytes32",
                    "name": "r2",
                    "type": "bytes32"
                },
                {
                    "internalType": "bytes32",
                    "name": "s2",
                    "type": "bytes32"
                }
            ],
            "name": "enterWithPermitAll",
            "outputs": [],
            "stateMutability": "nonpayable",
            "type": "function"
        },
        {
            "inputs": [
                {
                    "internalType": "uint256",
                    "name": "id",
                    "type": "uint256"
                }
            ],
            "name": "exit",
            "outputs": [],
            "stateMutability": "nonpayable",
            "type": "function"
        },
        {
            "inputs": [],
            "name": "maid",
            "outputs": [
                {
                    "internalType": "contract IMaid",
                    "name": "",
                    "type": "address"
                }
            ],
            "stateMutability": "view",
            "type": "function"
        },
        {
            "inputs": [],
            "name": "maidCoin",
            "outputs": [
                {
                    "internalType": "contract IMaidCoin",
                    "name": "",
                    "type": "address"
                }
            ],
            "stateMutability": "view",
            "type": "function"
        },
        {
            "inputs": [],
            "name": "maidPowerToRaidReducedBlock",
            "outputs": [
                {
                    "internalType": "uint256",
                    "name": "",
                    "type": "uint256"
                }
            ],
            "stateMutability": "view",
            "type": "function"
        },
        {
            "inputs": [],
            "name": "nursePart",
            "outputs": [
                {
                    "internalType": "contract INursePart",
                    "name": "",
                    "type": "address"
                }
            ],
            "stateMutability": "view",
            "type": "function"
        },
        {
            "inputs": [],
            "name": "owner",
            "outputs": [
                {
                    "internalType": "address",
                    "name": "",
                    "type": "address"
                }
            ],
            "stateMutability": "view",
            "type": "function"
        },
        {
            "inputs": [],
            "name": "raidCount",
            "outputs": [
                {
                    "internalType": "uint256",
                    "name": "",
                    "type": "uint256"
                }
            ],
            "stateMutability": "view",
            "type": "function"
        },
        {
            "inputs": [
                {
                    "internalType": "uint256",
                    "name": "",
                    "type": "uint256"
                }
            ],
            "name": "raids",
            "outputs": [
                {
                    "internalType": "uint256",
                    "name": "entranceFee",
                    "type": "uint256"
                },
                {
                    "internalType": "uint256",
                    "name": "nursePart",
                    "type": "uint256"
                },
                {
                    "internalType": "uint256",
                    "name": "maxRewardCount",
                    "type": "uint256"
                },
                {
                    "internalType": "uint256",
                    "name": "duration",
                    "type": "uint256"
                },
                {
                    "internalType": "uint256",
                    "name": "endBlock",
                    "type": "uint256"
                }
            ],
            "stateMutability": "view",
            "type": "function"
        },
        {
            "inputs": [],
            "name": "renounceOwnership",
            "outputs": [],
            "stateMutability": "nonpayable",
            "type": "function"
        },
        {
            "inputs": [],
            "name": "rng",
            "outputs": [
                {
                    "internalType": "contract IRNG",
                    "name": "",
                    "type": "address"
                }
            ],
            "stateMutability": "view",
            "type": "function"
        },
        {
            "inputs": [
                {
                    "internalType": "address",
                    "name": "newOwner",
                    "type": "address"
                }
            ],
            "name": "transferOwnership",
            "outputs": [],
            "stateMutability": "nonpayable",
            "type": "function"
        }
    ],
    "bytecode": "0x60e060405260646004553480156200001657600080fd5b5060405162001624380380620016248339810160408190526200003991620000c1565b600080546001600160a01b031916339081178255604051909182917f8be0079c531659141344cd1fd0a4f28419497f9722a3daafe3b4186f6b6457e0908290a350606093841b6001600160601b031990811660805292841b831660a052921b1660c052600380546001600160a01b0319166001600160a01b0390921691909117905562000142565b60008060008060808587031215620000d857600080fd5b8451620000e58162000129565b6020860151909450620000f88162000129565b60408601519093506200010b8162000129565b60608601519092506200011e8162000129565b939692955090935050565b6001600160a01b03811681146200013f57600080fd5b50565b60805160601c60a05160601c60c05160601c611471620001b3600039600081816102ae015261095b0152600081816101c2015281816104f10152818161058c01526106cb0152600081816102700152818161046801528181610766015281816109f60152610ebc01526114716000f3fe608060405234801561001057600080fd5b50600436106101165760003560e01c80639f20ae83116100a2578063bab1a19511610071578063bab1a195146102d0578063bb4fa5dd146102d8578063c562a684146102eb578063d605787b146102fe578063f2fde38b1461031157600080fd5b80639f20ae8314610230578063a2ecd2581461026b578063ac7fb72414610292578063b24606b8146102a957600080fd5b8063715018a6116100e9578063715018a6146101a25780637f8661a1146101aa578063849e5aff146101bd5780638656b2b3146101fc5780638da5cb5b1461021f57600080fd5b806323972aef1461011b5780632a41b802146101305780634b85d0af146101435780634b9b586e14610156575b600080fd5b61012e61012936600461118f565b610324565b005b61012e61013e366004611131565b610625565b61012e6101513660046111ec565b61068a565b610188610164366004611163565b60026020908152600092835260408084209091529082529020805460019091015482565b604080519283526020830191909152015b60405180910390f35b61012e6107e1565b61012e6101b8366004611131565b610855565b6101e47f000000000000000000000000000000000000000000000000000000000000000081565b6040516001600160a01b039091168152602001610199565b61020f61020a366004611131565b610aa9565b6040519015158152602001610199565b6000546001600160a01b03166101e4565b61024361023e366004611131565b610b49565b604080519586526020860194909452928401919091526060830152608082015260a001610199565b6101e47f000000000000000000000000000000000000000000000000000000000000000081565b61029b60045481565b604051908152602001610199565b6101e47f000000000000000000000000000000000000000000000000000000000000000081565b60015461029b565b61029b6102e63660046111b1565b610b8a565b61012e6102f93660046110ed565b610d57565b6003546101e4906001600160a01b031681565b61012e61031f3660046110ed565b610da3565b60006001838154811061033957610339611425565b90600052602060002090600502019050806004015443106103a15760405162461bcd60e51b815260206004820152601960248201527f4e75727365526169643a20526169642068617320656e6465640000000000000060448201526064015b60405180910390fd5b6000838152600260209081526040808320338452909152902054156104085760405162461bcd60e51b815260206004820152601e60248201527f4e75727365526169643a205261696420697320696e2070726f677265737300006044820152606401610398565b604080518082018252438152602080820185815260008781526002835284812033825290925292902090518155905160019091015560001982146104cd576040516323b872dd60e01b8152336004820152306024820152604481018390527f00000000000000000000000000000000000000000000000000000000000000006001600160a01b0316906323b872dd90606401600060405180830381600087803b1580156104b457600080fd5b505af11580156104c8573d6000803e3d6000fd5b505050505b80546040516323b872dd60e01b8152336004820152306024820152604481018290527f00000000000000000000000000000000000000000000000000000000000000006001600160a01b0316906323b872dd90606401602060405180830381600087803b15801561053d57600080fd5b505af1158015610551573d6000803e3d6000fd5b505050506040513d601f19601f82011682018060405250810190610575919061110f565b50604051630852cd8d60e31b8152600481018290527f00000000000000000000000000000000000000000000000000000000000000006001600160a01b0316906342966c6890602401600060405180830381600087803b1580156105d857600080fd5b505af11580156105ec573d6000803e3d6000fd5b505060405185925086915033907f5087fbec8bdd9b358f62d89babb5f4dd44f8576230a9520c90e3407d6f4dd1fb90600090a450505050565b6000546001600160a01b0316331461064f5760405162461bcd60e51b815260040161039890611263565b60048190556040518181527f53b29daa1537959887ee76f94fc95da3b3418eec8c82cff43cb037fbae25cdbd9060200160405180910390a150565b60405163d505accf60e01b815233600482015230602482015260001960448201526064810188905260ff8716608482015260a4810186905260c481018590527f00000000000000000000000000000000000000000000000000000000000000006001600160a01b03169063d505accf9060e401600060405180830381600087803b15801561071757600080fd5b505af115801561072b573d6000803e3d6000fd5b505060405163aba0784760e01b8152336004820152306024820152604481018a905260ff861660648201526084810185905260a481018490527f00000000000000000000000000000000000000000000000000000000000000006001600160a01b0316925063aba07847915060c401600060405180830381600087803b1580156107b457600080fd5b505af11580156107c8573d6000803e3d6000fd5b505050506107d68989610324565b505050505050505050565b6000546001600160a01b0316331461080b5760405162461bcd60e51b815260040161039890611263565b600080546040516001600160a01b03909116907f8be0079c531659141344cd1fd0a4f28419497f9722a3daafe3b4186f6b6457e0908390a3600080546001600160a01b0319169055565b600081815260026020908152604080832033845282529182902082518084019093528054808452600190910154918301919091526108e65760405162461bcd60e51b815260206004820152602860248201527f4e75727365526169643a204e6f742070617274696369706174696e6720696e206044820152671d1a19481c985a5960c21b6064820152608401610398565b6000600183815481106108fb576108fb611425565b90600052602060002090600502019050610919816003015483610e8d565b156109c157600061092f84836002015433610f8c565b6001830154604051630ab714fb60e11b81523360048201526024810191909152604481018290529091507f00000000000000000000000000000000000000000000000000000000000000006001600160a01b03169063156e29f690606401600060405180830381600087803b1580156109a757600080fd5b505af11580156109bb573d6000803e3d6000fd5b50505050505b600019826020015114610a5b5760208201516040516323b872dd60e01b815230600482015233602482015260448101919091527f00000000000000000000000000000000000000000000000000000000000000006001600160a01b0316906323b872dd90606401600060405180830381600087803b158015610a4257600080fd5b505af1158015610a56573d6000803e3d6000fd5b505050505b60008381526002602090815260408083203380855292528083208381556001018390555185927f22d324652c93739755cf4581508b60875ebdd78c20c0cff5cf8e23452b29963191a3505050565b60008060018381548110610abf57610abf611425565b600091825260208083206040805160a08101825260059094029091018054845260018082015485850152600280830154868501526003830154606087019081526004909301546080870152898752845282862033875284529482902082518084019093528054835290940154918101919091529151909250610b419082610e8d565b949350505050565b60018181548110610b5957600080fd5b6000918252602090912060059091020180546001820154600283015460038401546004909401549294509092909185565b600080546001600160a01b03163314610bb55760405162461bcd60e51b815260040161039890611263565b60ff8410610c055760405162461bcd60e51b815260206004820152601960248201527f4e75727365526169643a20496e76616c6964206e756d626572000000000000006044820152606401610398565b50600180546040805160a081018252888152602080820189815282840189815260608085018a815260808087018b8152898b018b5560009a909a529551600589027fb10e2d527612073b26eecdfd717e6a320cf44b4afac2b0732d9fcbe2b7fa0cf681019190915593517fb10e2d527612073b26eecdfd717e6a320cf44b4afac2b0732d9fcbe2b7fa0cf785015591517fb10e2d527612073b26eecdfd717e6a320cf44b4afac2b0732d9fcbe2b7fa0cf884015590517fb10e2d527612073b26eecdfd717e6a320cf44b4afac2b0732d9fcbe2b7fa0cf983015595517fb10e2d527612073b26eecdfd717e6a320cf44b4afac2b0732d9fcbe2b7fa0cfa9091015582518a81529081018890529182018690529281018490529091869183917fe67bc7994d282c0fbf31557abeca3bf42c2dc7e627c6aff056739bfd6609b5d6910160405180910390a395945050505050565b6000546001600160a01b03163314610d815760405162461bcd60e51b815260040161039890611263565b600380546001600160a01b0319166001600160a01b0392909216919091179055565b6000546001600160a01b03163314610dcd5760405162461bcd60e51b815260040161039890611263565b6001600160a01b038116610e325760405162461bcd60e51b815260206004820152602660248201527f4f776e61626c653a206e6577206f776e657220697320746865207a65726f206160448201526564647265737360d01b6064820152608401610398565b600080546040516001600160a01b03808516939216917f8be0079c531659141344cd1fd0a4f28419497f9722a3daafe3b4186f6b6457e091a3600080546001600160a01b0319166001600160a01b0392909216919091179055565b600060001982602001511415610eb45781518390610eab90436113ce565b10159050610f86565b8260646004547f00000000000000000000000000000000000000000000000000000000000000006001600160a01b03166304eaa11386602001516040518263ffffffff1660e01b8152600401610f0c91815260200190565b60206040518083038186803b158015610f2457600080fd5b505afa158015610f38573d6000803e3d6000fd5b505050506040513d601f19601f82011682018060405250810190610f5c919061114a565b610f6691906113af565b610f7091906112b0565b8351610f7c90436113ce565b610eab9190611298565b92915050565b6000806001610f9c856002611307565b610fa691906113ce565b610fb19060026113af565b6003546040516344a0a49160e01b8152600481018890526001600160a01b038681166024830152929350600092849216906344a0a49190604401602060405180830381600087803b15801561100557600080fd5b505af1158015611019573d6000803e3d6000fd5b505050506040513d601f19601f8201168201806040525081019061103d919061114a565b61104791906113e5565b611052906001611298565b90506000805b818311156110b55761106b600182611298565b905080611079886001611298565b61108391906113ce565b61108e906002611307565b611099886001611298565b6110a4906002611307565b6110ae91906113ce565b9150611058565b979650505050505050565b80356001600160a01b03811681146110d757600080fd5b919050565b803560ff811681146110d757600080fd5b6000602082840312156110ff57600080fd5b611108826110c0565b9392505050565b60006020828403121561112157600080fd5b8151801515811461110857600080fd5b60006020828403121561114357600080fd5b5035919050565b60006020828403121561115c57600080fd5b5051919050565b6000806040838503121561117657600080fd5b82359150611186602084016110c0565b90509250929050565b600080604083850312156111a257600080fd5b50508035926020909101359150565b600080600080600060a086880312156111c957600080fd5b505083359560208501359550604085013594606081013594506080013592509050565b60008060008060008060008060006101208a8c03121561120b57600080fd5b8935985060208a0135975060408a0135965061122960608b016110dc565b955060808a0135945060a08a0135935061124560c08b016110dc565b925060e08a013591506101008a013590509295985092959850929598565b6020808252818101527f4f776e61626c653a2063616c6c6572206973206e6f7420746865206f776e6572604082015260600190565b600082198211156112ab576112ab6113f9565b500190565b6000826112bf576112bf61140f565b500490565b600181815b808511156112ff5781600019048211156112e5576112e56113f9565b808516156112f257918102915b93841c93908002906112c9565b509250929050565b6000611108838360008261131d57506001610f86565b8161132a57506000610f86565b8160018114611340576002811461134a57611366565b6001915050610f86565b60ff84111561135b5761135b6113f9565b50506001821b610f86565b5060208310610133831016604e8410600b8410161715611389575081810a610f86565b61139383836112c4565b80600019048211156113a7576113a76113f9565b029392505050565b60008160001904831182151516156113c9576113c96113f9565b500290565b6000828210156113e0576113e06113f9565b500390565b6000826113f4576113f461140f565b500690565b634e487b7160e01b600052601160045260246000fd5b634e487b7160e01b600052601260045260246000fd5b634e487b7160e01b600052603260045260246000fdfea26469706673582212201764604d3029c9ec7533ce9239f4584b6638e45c6c6bce97c77b708dd0d1e80a64736f6c63430008050033",
    "linkReferences": {},
    "deployedLinkReferences": {}
}