{
  "_format": "hh-sol-artifact-1",
  "contractName": "NurseRaid",
  "sourceName": "contracts/NurseRaid.sol",
  "abi": [
    {
      "inputs": [
        {
          "internalType": "contract IMaidCoin",
          "name": "_maidCoin",
          "type": "address"
        },
        {
          "internalType": "contract IMaidCafe",
          "name": "_maidCafe",
          "type": "address"
        },
        {
          "internalType": "contract INursePart",
          "name": "_nursePart",
          "type": "address"
        },
        {
          "internalType": "contract IRNG",
          "name": "_rng",
          "type": "address"
        }
      ],
      "stateMutability": "nonpayable",
      "type": "constructor"
    },
    {
      "anonymous": false,
      "inputs": [
        {
          "indexed": false,
          "internalType": "uint256",
          "name": "value",
          "type": "uint256"
        }
      ],
      "name": "ChangeMaidPowerToRaidReducedBlock",
      "type": "event"
    },
    {
      "anonymous": false,
      "inputs": [
        {
          "indexed": true,
          "internalType": "uint256",
          "name": "id",
          "type": "uint256"
        },
        {
          "indexed": false,
          "internalType": "uint256",
          "name": "entranceFee",
          "type": "uint256"
        },
        {
          "indexed": true,
          "internalType": "uint256",
          "name": "nursePart",
          "type": "uint256"
        },
        {
          "indexed": false,
          "internalType": "uint256",
          "name": "maxRewardCount",
          "type": "uint256"
        },
        {
          "indexed": false,
          "internalType": "uint256",
          "name": "duration",
          "type": "uint256"
        },
        {
          "indexed": false,
          "internalType": "uint256",
          "name": "endBlock",
          "type": "uint256"
        }
      ],
      "name": "Create",
      "type": "event"
    },
    {
      "anonymous": false,
      "inputs": [
        {
          "indexed": true,
          "internalType": "address",
          "name": "challenger",
          "type": "address"
        },
        {
          "indexed": true,
          "internalType": "uint256",
          "name": "id",
          "type": "uint256"
        },
        {
          "indexed": true,
          "internalType": "contract IMaids",
          "name": "maids",
          "type": "address"
        },
        {
          "indexed": false,
          "internalType": "uint256",
          "name": "maidId",
          "type": "uint256"
        }
      ],
      "name": "Enter",
      "type": "event"
    },
    {
      "anonymous": false,
      "inputs": [
        {
          "indexed": true,
          "internalType": "address",
          "name": "challenger",
          "type": "address"
        },
        {
          "indexed": true,
          "internalType": "uint256",
          "name": "id",
          "type": "uint256"
        }
      ],
      "name": "Exit",
      "type": "event"
    },
    {
      "anonymous": false,
      "inputs": [
        {
          "indexed": true,
          "internalType": "address",
          "name": "previousOwner",
          "type": "address"
        },
        {
          "indexed": true,
          "internalType": "address",
          "name": "newOwner",
          "type": "address"
        }
      ],
      "name": "OwnershipTransferred",
      "type": "event"
    },
    {
      "inputs": [
        {
          "internalType": "contract IMaids",
          "name": "maids",
          "type": "address"
        }
      ],
      "name": "approveMaids",
      "outputs": [],
      "stateMutability": "nonpayable",
      "type": "function"
    },
    {
      "inputs": [
        {
          "internalType": "uint256",
          "name": "",
          "type": "uint256"
        },
        {
          "internalType": "address",
          "name": "",
          "type": "address"
        }
      ],
      "name": "challengers",
      "outputs": [
        {
          "internalType": "uint256",
          "name": "enterBlock",
          "type": "uint256"
        },
        {
          "internalType": "contract IMaids",
          "name": "maids",
          "type": "address"
        },
        {
          "internalType": "uint256",
          "name": "maidId",
          "type": "uint256"
        }
      ],
      "stateMutability": "view",
      "type": "function"
    },
    {
      "inputs": [
        {
          "internalType": "uint256",
          "name": "value",
          "type": "uint256"
        }
      ],
      "name": "changeMaidPowerToRaidReducedBlock",
      "outputs": [],
      "stateMutability": "nonpayable",
      "type": "function"
    },
    {
      "inputs": [
        {
          "internalType": "address",
          "name": "addr",
          "type": "address"
        }
      ],
      "name": "changeRNG",
      "outputs": [],
      "stateMutability": "nonpayable",
      "type": "function"
    },
    {
      "inputs": [
        {
          "internalType": "uint256",
          "name": "id",
          "type": "uint256"
        }
      ],
      "name": "checkDone",
      "outputs": [
        {
          "internalType": "bool",
          "name": "",
          "type": "bool"
        }
      ],
      "stateMutability": "view",
      "type": "function"
    },
    {
      "inputs": [
        {
          "internalType": "uint256",
          "name": "entranceFee",
          "type": "uint256"
        },
        {
          "internalType": "uint256",
          "name": "_nursePart",
          "type": "uint256"
        },
        {
          "internalType": "uint256",
          "name": "maxRewardCount",
          "type": "uint256"
        },
        {
          "internalType": "uint256",
          "name": "duration",
          "type": "uint256"
        },
        {
          "internalType": "uint256",
          "name": "endBlock",
          "type": "uint256"
        }
      ],
      "name": "create",
      "outputs": [
        {
          "internalType": "uint256",
          "name": "id",
          "type": "uint256"
        }
      ],
      "stateMutability": "nonpayable",
      "type": "function"
    },
    {
      "inputs": [
        {
          "internalType": "contract IMaids",
          "name": "maids",
          "type": "address"
        }
      ],
      "name": "disapproveMaids",
      "outputs": [],
      "stateMutability": "nonpayable",
      "type": "function"
    },
    {
      "inputs": [
        {
          "internalType": "uint256",
          "name": "id",
          "type": "uint256"
        },
        {
          "internalType": "contract IMaids",
          "name": "maids",
          "type": "address"
        },
        {
          "internalType": "uint256",
          "name": "maidId",
          "type": "uint256"
        }
      ],
      "name": "enter",
      "outputs": [],
      "stateMutability": "nonpayable",
      "type": "function"
    },
    {
      "inputs": [
        {
          "internalType": "uint256",
          "name": "id",
          "type": "uint256"
        },
        {
          "internalType": "contract IMaids",
          "name": "maids",
          "type": "address"
        },
        {
          "internalType": "uint256",
          "name": "maidId",
          "type": "uint256"
        },
        {
          "internalType": "uint256",
          "name": "deadline",
          "type": "uint256"
        },
        {
          "internalType": "uint8",
          "name": "v1",
          "type": "uint8"
        },
        {
          "internalType": "bytes32",
          "name": "r1",
          "type": "bytes32"
        },
        {
          "internalType": "bytes32",
          "name": "s1",
          "type": "bytes32"
        },
        {
          "internalType": "uint8",
          "name": "v2",
          "type": "uint8"
        },
        {
          "internalType": "bytes32",
          "name": "r2",
          "type": "bytes32"
        },
        {
          "internalType": "bytes32",
          "name": "s2",
          "type": "bytes32"
        }
      ],
      "name": "enterWithPermitAll",
      "outputs": [],
      "stateMutability": "nonpayable",
      "type": "function"
    },
    {
      "inputs": [
        {
          "internalType": "uint256",
          "name": "id",
          "type": "uint256"
        }
      ],
      "name": "exit",
      "outputs": [],
      "stateMutability": "nonpayable",
      "type": "function"
    },
    {
      "inputs": [],
      "name": "maidCafe",
      "outputs": [
        {
          "internalType": "contract IMaidCafe",
          "name": "",
          "type": "address"
        }
      ],
      "stateMutability": "view",
      "type": "function"
    },
    {
      "inputs": [],
      "name": "maidCoin",
      "outputs": [
        {
          "internalType": "contract IMaidCoin",
          "name": "",
          "type": "address"
        }
      ],
      "stateMutability": "view",
      "type": "function"
    },
    {
      "inputs": [],
      "name": "maidPowerToRaidReducedBlock",
      "outputs": [
        {
          "internalType": "uint256",
          "name": "",
          "type": "uint256"
        }
      ],
      "stateMutability": "view",
      "type": "function"
    },
    {
      "inputs": [
        {
          "internalType": "contract IMaids",
          "name": "",
          "type": "address"
        }
      ],
      "name": "maidsApproved",
      "outputs": [
        {
          "internalType": "bool",
          "name": "",
          "type": "bool"
        }
      ],
      "stateMutability": "view",
      "type": "function"
    },
    {
      "inputs": [],
      "name": "nursePart",
      "outputs": [
        {
          "internalType": "contract INursePart",
          "name": "",
          "type": "address"
        }
      ],
      "stateMutability": "view",
      "type": "function"
    },
    {
      "inputs": [],
      "name": "owner",
      "outputs": [
        {
          "internalType": "address",
          "name": "",
          "type": "address"
        }
      ],
      "stateMutability": "view",
      "type": "function"
    },
    {
      "inputs": [],
      "name": "raidCount",
      "outputs": [
        {
          "internalType": "uint256",
          "name": "",
          "type": "uint256"
        }
      ],
      "stateMutability": "view",
      "type": "function"
    },
    {
      "inputs": [
        {
          "internalType": "uint256",
          "name": "",
          "type": "uint256"
        }
      ],
      "name": "raids",
      "outputs": [
        {
          "internalType": "uint256",
          "name": "entranceFee",
          "type": "uint256"
        },
        {
          "internalType": "uint256",
          "name": "nursePart",
          "type": "uint256"
        },
        {
          "internalType": "uint256",
          "name": "maxRewardCount",
          "type": "uint256"
        },
        {
          "internalType": "uint256",
          "name": "duration",
          "type": "uint256"
        },
        {
          "internalType": "uint256",
          "name": "endBlock",
          "type": "uint256"
        }
      ],
      "stateMutability": "view",
      "type": "function"
    },
    {
      "inputs": [],
      "name": "renounceOwnership",
      "outputs": [],
      "stateMutability": "nonpayable",
      "type": "function"
    },
    {
      "inputs": [],
      "name": "rng",
      "outputs": [
        {
          "internalType": "contract IRNG",
          "name": "",
          "type": "address"
        }
      ],
      "stateMutability": "view",
      "type": "function"
    },
    {
      "inputs": [
        {
          "internalType": "contract IMaidCafe",
          "name": "_maidCafe",
          "type": "address"
        }
      ],
      "name": "setMaidCafe",
      "outputs": [],
      "stateMutability": "nonpayable",
      "type": "function"
    },
    {
      "inputs": [
        {
          "internalType": "address",
          "name": "newOwner",
          "type": "address"
        }
      ],
      "name": "transferOwnership",
      "outputs": [],
      "stateMutability": "nonpayable",
      "type": "function"
    }
  ],
  "bytecode": "0x60c06040526127106006553480156200001757600080fd5b506040516200193b3803806200193b8339810160408190526200003a91620000cd565b600080546001600160a01b031916339081178255604051909182917f8be0079c531659141344cd1fd0a4f28419497f9722a3daafe3b4186f6b6457e0908290a3506001600160601b0319606094851b8116608052600480546001600160a01b039586166001600160a01b0319918216179091559290941b90931660a052600580549390921692169190911790556200014e565b60008060008060808587031215620000e457600080fd5b8451620000f18162000135565b6020860151909450620001048162000135565b6040860151909350620001178162000135565b60608601519092506200012a8162000135565b939692955090935050565b6001600160a01b03811681146200014b57600080fd5b50565b60805160601c60a05160601c61179e6200019d600039600081816102d101526105fc0152600081816101f90152818161083c01528181610e3301528181610ee7015261133c015261179e6000f3fe608060405234801561001057600080fd5b50600436106101425760003560e01c8063b24606b8116100b8578063c5fa5f181161007c578063c5fa5f1814610334578063d15d2e4314610347578063d605787b1461035a578063e20ddcac1461036d578063e770f9a314610380578063f2fde38b146103a357600080fd5b8063b24606b8146102cc578063bab1a195146102f3578063bb4fa5dd146102fb578063bd36095a1461030e578063c562a6841461032157600080fd5b8063849e5aff1161010a578063849e5aff146101f45780638656b2b3146102335780638da5cb5b1461025657806396c52a45146102675780639f20ae831461027a578063ac7fb724146102b557600080fd5b80632a41b802146101475780634b9b586e1461015c578063556af6b5146101c6578063715018a6146101d95780637f8661a1146101e1575b600080fd5b61015a610155366004611418565b6103b6565b005b61019e61016a36600461144a565b600260208181526000938452604080852090915291835291208054600182015491909201546001600160a01b039091169083565b604080519384526001600160a01b039092166020840152908201526060015b60405180910390f35b61015a6101d43660046113d2565b610424565b61015a61046f565b61015a6101ef366004611418565b6104e3565b61021b7f000000000000000000000000000000000000000000000000000000000000000081565b6040516001600160a01b0390911681526020016101bd565b610246610241366004611418565b610749565b60405190151581526020016101bd565b6000546001600160a01b031661021b565b61015a6102753660046114b2565b6107fb565b61028d610288366004611418565b610934565b604080519586526020860194909452928401919091526060830152608082015260a0016101bd565b6102be60065481565b6040519081526020016101bd565b61021b7f000000000000000000000000000000000000000000000000000000000000000081565b6001546102be565b6102be61030936600461153d565b610975565b60045461021b906001600160a01b031681565b61015a61032f3660046113d2565b610b42565b61015a6103423660046113d2565b610b8e565b61015a61035536600461147a565b610bdc565b60055461021b906001600160a01b031681565b61015a61037b3660046113d2565b610fbd565b61024661038e3660046113d2565b60036020526000908152604090205460ff1681565b61015a6103b13660046113d2565b611009565b6000546001600160a01b031633146103e95760405162461bcd60e51b81526004016103e090611578565b60405180910390fd5b60068190556040518181527f53b29daa1537959887ee76f94fc95da3b3418eec8c82cff43cb037fbae25cdbd9060200160405180910390a150565b6000546001600160a01b0316331461044e5760405162461bcd60e51b81526004016103e090611578565b6001600160a01b03166000908152600360205260409020805460ff19169055565b6000546001600160a01b031633146104995760405162461bcd60e51b81526004016103e090611578565b600080546040516001600160a01b03909116907f8be0079c531659141344cd1fd0a4f28419497f9722a3daafe3b4186f6b6457e0908390a3600080546001600160a01b0319169055565b60008181526002602081815260408084203385528252928390208351606081018552815480825260018301546001600160a01b03169382019390935292015492820192909252906105875760405162461bcd60e51b815260206004820152602860248201527f4e75727365526169643a204e6f742070617274696369706174696e6720696e206044820152671d1a19481c985a5960c21b60648201526084016103e0565b60006001838154811061059c5761059c61173a565b906000526020600020906005020190506105ba8160030154836110f3565b156106625760006105d0848360020154336111dc565b6001830154604051630ab714fb60e11b81523360048201526024810191909152604481018290529091507f00000000000000000000000000000000000000000000000000000000000000006001600160a01b03169063156e29f690606401600060405180830381600087803b15801561064857600080fd5b505af115801561065c573d6000803e3d6000fd5b50505050505b60208201516001600160a01b0316156106e857602082015160408084015190516323b872dd60e01b815230600482015233602482015260448101919091526001600160a01b03909116906323b872dd90606401600060405180830381600087803b1580156106cf57600080fd5b505af11580156106e3573d6000803e3d6000fd5b505050505b60008381526002602081815260408084203380865292528084208481556001810180546001600160a01b0319169055909201839055905185927f22d324652c93739755cf4581508b60875ebdd78c20c0cff5cf8e23452b29963191a3505050565b6000806001838154811061075f5761075f61173a565b600091825260208083206040805160a08101825260059094029091018054845260018082015485850152600280830154868501526003830154606080880191825260049094015460808801528a88528186528488203389528652968490208451938401855280548452918201546001600160a01b031694830194909452909201549082015291519092506107f390826110f3565b949350505050565b60405163d505accf60e01b815233600482015230602482015260001960448201526064810188905260ff8716608482015260a4810186905260c481018590527f00000000000000000000000000000000000000000000000000000000000000006001600160a01b03169063d505accf9060e401600060405180830381600087803b15801561088857600080fd5b505af115801561089c573d6000803e3d6000fd5b505060405163aba0784760e01b8152336004820152306024820152604481018a905260ff861660648201526084810185905260a481018490526001600160a01b038c16925063aba07847915060c401600060405180830381600087803b15801561090557600080fd5b505af1158015610919573d6000803e3d6000fd5b505050506109288a8a8a610bdc565b50505050505050505050565b6001818154811061094457600080fd5b6000918252602090912060059091020180546001820154600283015460038401546004909401549294509092909185565b600080546001600160a01b031633146109a05760405162461bcd60e51b81526004016103e090611578565b60ff84106109f05760405162461bcd60e51b815260206004820152601960248201527f4e75727365526169643a20496e76616c6964206e756d6265720000000000000060448201526064016103e0565b50600180546040805160a081018252888152602080820189815282840189815260608085018a815260808087018b8152898b018b5560009a909a529551600589027fb10e2d527612073b26eecdfd717e6a320cf44b4afac2b0732d9fcbe2b7fa0cf681019190915593517fb10e2d527612073b26eecdfd717e6a320cf44b4afac2b0732d9fcbe2b7fa0cf785015591517fb10e2d527612073b26eecdfd717e6a320cf44b4afac2b0732d9fcbe2b7fa0cf884015590517fb10e2d527612073b26eecdfd717e6a320cf44b4afac2b0732d9fcbe2b7fa0cf983015595517fb10e2d527612073b26eecdfd717e6a320cf44b4afac2b0732d9fcbe2b7fa0cfa9091015582518a81529081018890529182018690529281018490529091869183917fe67bc7994d282c0fbf31557abeca3bf42c2dc7e627c6aff056739bfd6609b5d6910160405180910390a395945050505050565b6000546001600160a01b03163314610b6c5760405162461bcd60e51b81526004016103e090611578565b600580546001600160a01b0319166001600160a01b0392909216919091179055565b6000546001600160a01b03163314610bb85760405162461bcd60e51b81526004016103e090611578565b6001600160a01b03166000908152600360205260409020805460ff19166001179055565b816001600160a01b0381161580610c0b57506001600160a01b03811660009081526003602052604090205460ff165b610c655760405162461bcd60e51b815260206004820152602560248201527f4e75727365526169643a20546865206d61696473206973206e6f74206170707260448201526437bb32b21760d91b60648201526084016103e0565b600060018581548110610c7a57610c7a61173a565b9060005260206000209060050201905080600401544310610cdd5760405162461bcd60e51b815260206004820152601960248201527f4e75727365526169643a20526169642068617320656e6465640000000000000060448201526064016103e0565b600085815260026020908152604080832033845290915290205415610d445760405162461bcd60e51b815260206004820152601e60248201527f4e75727365526169643a205261696420697320696e2070726f6772657373000060448201526064016103e0565b604080516060810182524381526001600160a01b03868116602080840182815284860189815260008c815260028085528882203383529094529690962094518555516001850180546001600160a01b0319169190941617909255925191015515610e0f576040516323b872dd60e01b8152336004820152306024820152604481018490526001600160a01b038516906323b872dd90606401600060405180830381600087803b158015610df657600080fd5b505af1158015610e0a573d6000803e3d6000fd5b505050505b80546040516323b872dd60e01b8152336004820152306024820152604481018290527f00000000000000000000000000000000000000000000000000000000000000006001600160a01b0316906323b872dd90606401602060405180830381600087803b158015610e7f57600080fd5b505af1158015610e93573d6000803e3d6000fd5b505050506040513d601f19601f82011682018060405250810190610eb791906113f6565b5060006103e8610ec88360036116c4565b610ed291906115c5565b9050610edd81611310565b6001600160a01b037f0000000000000000000000000000000000000000000000000000000000000000166342966c68610f1683856116e3565b6040518263ffffffff1660e01b8152600401610f3491815260200190565b600060405180830381600087803b158015610f4e57600080fd5b505af1158015610f62573d6000803e3d6000fd5b50505050856001600160a01b031687336001600160a01b03167fdbaee2f8bdfe2e27e53a55ba816b9e0b74c12780d27d142b35023fa491602d6188604051610fac91815260200190565b60405180910390a450505050505050565b6000546001600160a01b03163314610fe75760405162461bcd60e51b81526004016103e090611578565b600480546001600160a01b0319166001600160a01b0392909216919091179055565b6000546001600160a01b031633146110335760405162461bcd60e51b81526004016103e090611578565b6001600160a01b0381166110985760405162461bcd60e51b815260206004820152602660248201527f4f776e61626c653a206e6577206f776e657220697320746865207a65726f206160448201526564647265737360d01b60648201526084016103e0565b600080546040516001600160a01b03808516939216917f8be0079c531659141344cd1fd0a4f28419497f9722a3daafe3b4186f6b6457e091a3600080546001600160a01b0319166001600160a01b0392909216919091179055565b60208101516000906001600160a01b031661111f578151839061111690436116e3565b101590506111d6565b8261271060065484602001516001600160a01b03166304eaa11386604001516040518263ffffffff1660e01b815260040161115c91815260200190565b60206040518083038186803b15801561117457600080fd5b505afa158015611188573d6000803e3d6000fd5b505050506040513d601f19601f820116820180604052508101906111ac9190611431565b6111b691906116c4565b6111c091906115c5565b83516111cc90436116e3565b61111691906115ad565b92915050565b60008060016111ec85600261161c565b6111f691906116e3565b6112019060026116c4565b6005546040516344a0a49160e01b8152600481018890526001600160a01b038681166024830152929350600092849216906344a0a49190604401602060405180830381600087803b15801561125557600080fd5b505af1158015611269573d6000803e3d6000fd5b505050506040513d601f19601f8201168201806040525081019061128d9190611431565b61129791906116fa565b6112a29060016115ad565b90506000805b81831115611305576112bb6001826115ad565b9050806112c98860016115ad565b6112d391906116e3565b6112de90600261161c565b6112e98860016115ad565b6112f490600261161c565b6112fe91906116e3565b91506112a8565b979650505050505050565b6004805460405163a9059cbb60e01b81526001600160a01b0391821692810192909252602482018390527f0000000000000000000000000000000000000000000000000000000000000000169063a9059cbb90604401602060405180830381600087803b15801561138057600080fd5b505af1158015611394573d6000803e3d6000fd5b505050506040513d601f19601f820116820180604052508101906113b891906113f6565b5050565b803560ff811681146113cd57600080fd5b919050565b6000602082840312156113e457600080fd5b81356113ef81611750565b9392505050565b60006020828403121561140857600080fd5b815180151581146113ef57600080fd5b60006020828403121561142a57600080fd5b5035919050565b60006020828403121561144357600080fd5b5051919050565b6000806040838503121561145d57600080fd5b82359150602083013561146f81611750565b809150509250929050565b60008060006060848603121561148f57600080fd5b8335925060208401356114a181611750565b929592945050506040919091013590565b6000806000806000806000806000806101408b8d0312156114d257600080fd5b8a35995060208b01356114e481611750565b985060408b0135975060608b0135965061150060808c016113bc565b955060a08b0135945060c08b0135935061151c60e08c016113bc565b92506101008b013591506101208b013590509295989b9194979a5092959850565b600080600080600060a0868803121561155557600080fd5b505083359560208501359550604085013594606081013594506080013592509050565b6020808252818101527f4f776e61626c653a2063616c6c6572206973206e6f7420746865206f776e6572604082015260600190565b600082198211156115c0576115c061170e565b500190565b6000826115d4576115d4611724565b500490565b600181815b808511156116145781600019048211156115fa576115fa61170e565b8085161561160757918102915b93841c93908002906115de565b509250929050565b60006113ef8383600082611632575060016111d6565b8161163f575060006111d6565b8160018114611655576002811461165f5761167b565b60019150506111d6565b60ff8411156116705761167061170e565b50506001821b6111d6565b5060208310610133831016604e8410600b841016171561169e575081810a6111d6565b6116a883836115d9565b80600019048211156116bc576116bc61170e565b029392505050565b60008160001904831182151516156116de576116de61170e565b500290565b6000828210156116f5576116f561170e565b500390565b60008261170957611709611724565b500690565b634e487b7160e01b600052601160045260246000fd5b634e487b7160e01b600052601260045260246000fd5b634e487b7160e01b600052603260045260246000fd5b6001600160a01b038116811461176557600080fd5b5056fea2646970667358221220686856fe15d10d36287f2a7e07555afeb71d9a6d4926aacdc9e689242a93dd3964736f6c63430008050033",
  "linkReferences": {},
  "deployedLinkReferences": {}
}