{
  "_format": "hh-sol-artifact-1",
  "contractName": "NurseRaid",
  "sourceName": "contracts/NurseRaid.sol",
  "abi": [
    {
      "inputs": [
        {
          "internalType": "contract IMaidCoin",
          "name": "_maidCoin",
          "type": "address"
        },
        {
          "internalType": "contract IMaidCafe",
          "name": "_maidCafe",
          "type": "address"
        },
        {
          "internalType": "contract INursePart",
          "name": "_nursePart",
          "type": "address"
        },
        {
          "internalType": "contract IRNG",
          "name": "_rng",
          "type": "address"
        }
      ],
      "stateMutability": "nonpayable",
      "type": "constructor"
    },
    {
      "anonymous": false,
      "inputs": [
        {
          "indexed": false,
          "internalType": "uint256",
          "name": "numerator",
          "type": "uint256"
        },
        {
          "indexed": false,
          "internalType": "uint256",
          "name": "denominator",
          "type": "uint256"
        }
      ],
      "name": "ChangeMaidEfficacy",
      "type": "event"
    },
    {
      "anonymous": false,
      "inputs": [
        {
          "indexed": true,
          "internalType": "uint256",
          "name": "id",
          "type": "uint256"
        },
        {
          "indexed": false,
          "internalType": "uint256",
          "name": "entranceFee",
          "type": "uint256"
        },
        {
          "indexed": true,
          "internalType": "uint256",
          "name": "nursePart",
          "type": "uint256"
        },
        {
          "indexed": false,
          "internalType": "uint256",
          "name": "maxRewardCount",
          "type": "uint256"
        },
        {
          "indexed": false,
          "internalType": "uint256",
          "name": "duration",
          "type": "uint256"
        },
        {
          "indexed": false,
          "internalType": "uint256",
          "name": "endBlock",
          "type": "uint256"
        }
      ],
      "name": "Create",
      "type": "event"
    },
    {
      "anonymous": false,
      "inputs": [
        {
          "indexed": true,
          "internalType": "address",
          "name": "challenger",
          "type": "address"
        },
        {
          "indexed": true,
          "internalType": "uint256",
          "name": "id",
          "type": "uint256"
        },
        {
          "indexed": true,
          "internalType": "contract IMaids",
          "name": "maids",
          "type": "address"
        },
        {
          "indexed": false,
          "internalType": "uint256",
          "name": "maidId",
          "type": "uint256"
        }
      ],
      "name": "Enter",
      "type": "event"
    },
    {
      "anonymous": false,
      "inputs": [
        {
          "indexed": true,
          "internalType": "address",
          "name": "challenger",
          "type": "address"
        },
        {
          "indexed": true,
          "internalType": "uint256",
          "name": "id",
          "type": "uint256"
        }
      ],
      "name": "Exit",
      "type": "event"
    },
    {
      "anonymous": false,
      "inputs": [
        {
          "indexed": true,
          "internalType": "address",
          "name": "previousOwner",
          "type": "address"
        },
        {
          "indexed": true,
          "internalType": "address",
          "name": "newOwner",
          "type": "address"
        }
      ],
      "name": "OwnershipTransferred",
      "type": "event"
    },
    {
      "inputs": [
        {
          "internalType": "contract IMaids[]",
          "name": "maids",
          "type": "address[]"
        }
      ],
      "name": "approveMaids",
      "outputs": [],
      "stateMutability": "nonpayable",
      "type": "function"
    },
    {
      "inputs": [
        {
          "internalType": "uint256",
          "name": "",
          "type": "uint256"
        },
        {
          "internalType": "address",
          "name": "",
          "type": "address"
        }
      ],
      "name": "challengers",
      "outputs": [
        {
          "internalType": "uint256",
          "name": "enterBlock",
          "type": "uint256"
        },
        {
          "internalType": "contract IMaids",
          "name": "maids",
          "type": "address"
        },
        {
          "internalType": "uint256",
          "name": "maidId",
          "type": "uint256"
        }
      ],
      "stateMutability": "view",
      "type": "function"
    },
    {
      "inputs": [
        {
          "internalType": "uint256",
          "name": "_numerator",
          "type": "uint256"
        },
        {
          "internalType": "uint256",
          "name": "_denominator",
          "type": "uint256"
        }
      ],
      "name": "changeMaidEfficacy",
      "outputs": [],
      "stateMutability": "nonpayable",
      "type": "function"
    },
    {
      "inputs": [
        {
          "internalType": "address",
          "name": "addr",
          "type": "address"
        }
      ],
      "name": "changeRNG",
      "outputs": [],
      "stateMutability": "nonpayable",
      "type": "function"
    },
    {
      "inputs": [
        {
          "internalType": "uint256",
          "name": "id",
          "type": "uint256"
        }
      ],
      "name": "checkDone",
      "outputs": [
        {
          "internalType": "bool",
          "name": "",
          "type": "bool"
        }
      ],
      "stateMutability": "view",
      "type": "function"
    },
    {
      "inputs": [
        {
          "internalType": "uint256",
          "name": "entranceFee",
          "type": "uint256"
        },
        {
          "internalType": "uint256",
          "name": "_nursePart",
          "type": "uint256"
        },
        {
          "internalType": "uint256",
          "name": "maxRewardCount",
          "type": "uint256"
        },
        {
          "internalType": "uint256",
          "name": "duration",
          "type": "uint256"
        },
        {
          "internalType": "uint256",
          "name": "endBlock",
          "type": "uint256"
        }
      ],
      "name": "create",
      "outputs": [
        {
          "internalType": "uint256",
          "name": "id",
          "type": "uint256"
        }
      ],
      "stateMutability": "nonpayable",
      "type": "function"
    },
    {
      "inputs": [
        {
          "internalType": "contract IMaids[]",
          "name": "maids",
          "type": "address[]"
        }
      ],
      "name": "disapproveMaids",
      "outputs": [],
      "stateMutability": "nonpayable",
      "type": "function"
    },
    {
      "inputs": [
        {
          "internalType": "uint256",
          "name": "id",
          "type": "uint256"
        },
        {
          "internalType": "contract IMaids",
          "name": "maids",
          "type": "address"
        },
        {
          "internalType": "uint256",
          "name": "maidId",
          "type": "uint256"
        }
      ],
      "name": "enter",
      "outputs": [],
      "stateMutability": "nonpayable",
      "type": "function"
    },
    {
      "inputs": [
        {
          "internalType": "uint256",
          "name": "id",
          "type": "uint256"
        },
        {
          "internalType": "contract IMaids",
          "name": "maids",
          "type": "address"
        },
        {
          "internalType": "uint256",
          "name": "maidId",
          "type": "uint256"
        },
        {
          "internalType": "uint256",
          "name": "deadline",
          "type": "uint256"
        },
        {
          "internalType": "uint8",
          "name": "v1",
          "type": "uint8"
        },
        {
          "internalType": "bytes32",
          "name": "r1",
          "type": "bytes32"
        },
        {
          "internalType": "bytes32",
          "name": "s1",
          "type": "bytes32"
        },
        {
          "internalType": "uint8",
          "name": "v2",
          "type": "uint8"
        },
        {
          "internalType": "bytes32",
          "name": "r2",
          "type": "bytes32"
        },
        {
          "internalType": "bytes32",
          "name": "s2",
          "type": "bytes32"
        }
      ],
      "name": "enterWithPermitAll",
      "outputs": [],
      "stateMutability": "nonpayable",
      "type": "function"
    },
    {
      "inputs": [
        {
          "internalType": "uint256",
          "name": "id",
          "type": "uint256"
        }
      ],
      "name": "exit",
      "outputs": [],
      "stateMutability": "nonpayable",
      "type": "function"
    },
    {
      "inputs": [
        {
          "internalType": "contract IMaids",
          "name": "",
          "type": "address"
        }
      ],
      "name": "isMaidsApproved",
      "outputs": [
        {
          "internalType": "bool",
          "name": "",
          "type": "bool"
        }
      ],
      "stateMutability": "view",
      "type": "function"
    },
    {
      "inputs": [],
      "name": "maidCafe",
      "outputs": [
        {
          "internalType": "contract IMaidCafe",
          "name": "",
          "type": "address"
        }
      ],
      "stateMutability": "view",
      "type": "function"
    },
    {
      "inputs": [],
      "name": "maidCoin",
      "outputs": [
        {
          "internalType": "contract IMaidCoin",
          "name": "",
          "type": "address"
        }
      ],
      "stateMutability": "view",
      "type": "function"
    },
    {
      "inputs": [],
      "name": "maidEfficacy",
      "outputs": [
        {
          "internalType": "uint256",
          "name": "numerator",
          "type": "uint256"
        },
        {
          "internalType": "uint256",
          "name": "denominator",
          "type": "uint256"
        }
      ],
      "stateMutability": "view",
      "type": "function"
    },
    {
      "inputs": [],
      "name": "nursePart",
      "outputs": [
        {
          "internalType": "contract INursePart",
          "name": "",
          "type": "address"
        }
      ],
      "stateMutability": "view",
      "type": "function"
    },
    {
      "inputs": [],
      "name": "owner",
      "outputs": [
        {
          "internalType": "address",
          "name": "",
          "type": "address"
        }
      ],
      "stateMutability": "view",
      "type": "function"
    },
    {
      "inputs": [],
      "name": "raidCount",
      "outputs": [
        {
          "internalType": "uint256",
          "name": "",
          "type": "uint256"
        }
      ],
      "stateMutability": "view",
      "type": "function"
    },
    {
      "inputs": [
        {
          "internalType": "uint256",
          "name": "",
          "type": "uint256"
        }
      ],
      "name": "raids",
      "outputs": [
        {
          "internalType": "uint256",
          "name": "entranceFee",
          "type": "uint256"
        },
        {
          "internalType": "uint256",
          "name": "nursePart",
          "type": "uint256"
        },
        {
          "internalType": "uint256",
          "name": "maxRewardCount",
          "type": "uint256"
        },
        {
          "internalType": "uint256",
          "name": "duration",
          "type": "uint256"
        },
        {
          "internalType": "uint256",
          "name": "endBlock",
          "type": "uint256"
        }
      ],
      "stateMutability": "view",
      "type": "function"
    },
    {
      "inputs": [],
      "name": "renounceOwnership",
      "outputs": [],
      "stateMutability": "nonpayable",
      "type": "function"
    },
    {
      "inputs": [],
      "name": "rng",
      "outputs": [
        {
          "internalType": "contract IRNG",
          "name": "",
          "type": "address"
        }
      ],
      "stateMutability": "view",
      "type": "function"
    },
    {
      "inputs": [
        {
          "internalType": "contract IMaidCafe",
          "name": "_maidCafe",
          "type": "address"
        }
      ],
      "name": "setMaidCafe",
      "outputs": [],
      "stateMutability": "nonpayable",
      "type": "function"
    },
    {
      "inputs": [
        {
          "internalType": "address",
          "name": "newOwner",
          "type": "address"
        }
      ],
      "name": "transferOwnership",
      "outputs": [],
      "stateMutability": "nonpayable",
      "type": "function"
    }
  ],
  "bytecode": "0x610100604052600160c08190526103e860e08190526006919091556007553480156200002a57600080fd5b5060405162001ac638038062001ac68339810160408190526200004d91620000e0565b600080546001600160a01b031916339081178255604051909182917f8be0079c531659141344cd1fd0a4f28419497f9722a3daafe3b4186f6b6457e0908290a3506001600160601b0319606094851b8116608052600480546001600160a01b039586166001600160a01b0319918216179091559290941b90931660a0526005805493909216921691909117905562000161565b60008060008060808587031215620000f757600080fd5b8451620001048162000148565b6020860151909450620001178162000148565b60408601519093506200012a8162000148565b60608601519092506200013d8162000148565b939692955090935050565b6001600160a01b03811681146200015e57600080fd5b50565b60805160601c60a05160601c611916620001b060003960008181610300015261069f01526000818161021c015281816108df01528181610f0801528181610fbc015261141d01526119166000f3fe608060405234801561001057600080fd5b50600436106101425760003560e01c80639f20ae83116100b8578063bd36095a1161007c578063bd36095a1461035a578063c562a6841461036d578063d15d2e4314610380578063d605787b14610393578063e20ddcac146103a6578063f2fde38b146103b957600080fd5b80639f20ae83146102c0578063b24606b8146102fb578063b5aa5d7514610322578063bab1a19514610335578063bb4fa5dd1461034757600080fd5b80637f8661a11161010a5780637f8661a114610204578063849e5aff146102175780638656b2b3146102565780638aacfa52146102795780638da5cb5b1461029c57806396c52a45146102ad57600080fd5b806338f652461461014757806343c5c2851461016f5780634b7388e6146101845780634b9b586e14610197578063715018a6146101fc575b600080fd5b600654600754610155919082565b604080519283526020830191909152015b60405180910390f35b61018261017d3660046114d7565b6103cc565b005b6101826101923660046114d7565b610476565b6101d96101a53660046115a0565b600260208181526000938452604080852090915291835291208054600182015491909201546001600160a01b039091169083565b604080519384526001600160a01b03909216602084015290820152606001610166565b610182610512565b61018261021236600461156e565b610586565b61023e7f000000000000000000000000000000000000000000000000000000000000000081565b6040516001600160a01b039091168152602001610166565b61026961026436600461156e565b6107ec565b6040519015158152602001610166565b6102696102873660046114b3565b60036020526000908152604090205460ff1681565b6000546001600160a01b031661023e565b6101826102bb366004611608565b61089e565b6102d36102ce36600461156e565b6109d7565b604080519586526020860194909452928401919091526060830152608082015260a001610166565b61023e7f000000000000000000000000000000000000000000000000000000000000000081565b610182610330366004611693565b610a18565b6001545b604051908152602001610166565b6103396103553660046116b5565b610a9a565b60045461023e906001600160a01b031681565b61018261037b3660046114b3565b610c67565b61018261038e3660046115d0565b610cb3565b60055461023e906001600160a01b031681565b6101826103b43660046114b3565b611092565b6101826103c73660046114b3565b6110de565b6000546001600160a01b031633146103ff5760405162461bcd60e51b81526004016103f6906116f0565b60405180910390fd5b60005b8181101561047157600160036000858585818110610422576104226118b2565b905060200201602081019061043791906114b3565b6001600160a01b031681526020810191909152604001600020805460ff191691151591909117905561046a600182611725565b9050610402565b505050565b6000546001600160a01b031633146104a05760405162461bcd60e51b81526004016103f6906116f0565b60005b81811015610471576000600360008585858181106104c3576104c36118b2565b90506020020160208101906104d891906114b3565b6001600160a01b031681526020810191909152604001600020805460ff191691151591909117905561050b600182611725565b90506104a3565b6000546001600160a01b0316331461053c5760405162461bcd60e51b81526004016103f6906116f0565b600080546040516001600160a01b03909116907f8be0079c531659141344cd1fd0a4f28419497f9722a3daafe3b4186f6b6457e0908390a3600080546001600160a01b0319169055565b60008181526002602081815260408084203385528252928390208351606081018552815480825260018301546001600160a01b031693820193909352920154928201929092529061062a5760405162461bcd60e51b815260206004820152602860248201527f4e75727365526169643a204e6f742070617274696369706174696e6720696e206044820152671d1a19481c985a5960c21b60648201526084016103f6565b60006001838154811061063f5761063f6118b2565b9060005260206000209060050201905061065d8160030154836111c8565b15610705576000610673848360020154336112bd565b6001830154604051630ab714fb60e11b81523360048201526024810191909152604481018290529091507f00000000000000000000000000000000000000000000000000000000000000006001600160a01b03169063156e29f690606401600060405180830381600087803b1580156106eb57600080fd5b505af11580156106ff573d6000803e3d6000fd5b50505050505b60208201516001600160a01b03161561078b57602082015160408084015190516323b872dd60e01b815230600482015233602482015260448101919091526001600160a01b03909116906323b872dd90606401600060405180830381600087803b15801561077257600080fd5b505af1158015610786573d6000803e3d6000fd5b505050505b60008381526002602081815260408084203380865292528084208481556001810180546001600160a01b0319169055909201839055905185927f22d324652c93739755cf4581508b60875ebdd78c20c0cff5cf8e23452b29963191a3505050565b60008060018381548110610802576108026118b2565b600091825260208083206040805160a08101825260059094029091018054845260018082015485850152600280830154868501526003830154606080880191825260049094015460808801528a88528186528488203389528652968490208451938401855280548452918201546001600160a01b0316948301949094529092015490820152915190925061089690826111c8565b949350505050565b60405163d505accf60e01b815233600482015230602482015260001960448201526064810188905260ff8716608482015260a4810186905260c481018590527f00000000000000000000000000000000000000000000000000000000000000006001600160a01b03169063d505accf9060e401600060405180830381600087803b15801561092b57600080fd5b505af115801561093f573d6000803e3d6000fd5b505060405163aba0784760e01b8152336004820152306024820152604481018a905260ff861660648201526084810185905260a481018490526001600160a01b038c16925063aba07847915060c401600060405180830381600087803b1580156109a857600080fd5b505af11580156109bc573d6000803e3d6000fd5b505050506109cb8a8a8a610cb3565b50505050505050505050565b600181815481106109e757600080fd5b6000918252602090912060059091020180546001820154600283015460038401546004909401549294509092909185565b6000546001600160a01b03163314610a425760405162461bcd60e51b81526004016103f6906116f0565b60408051808201825283815260209081018390526006849055600783905581518481529081018390527fb8cded0f783883feb28d3a46c16a1394521d97ce9b29f85f4f9979eaf4b32e26910160405180910390a15050565b600080546001600160a01b03163314610ac55760405162461bcd60e51b81526004016103f6906116f0565b60ff8410610b155760405162461bcd60e51b815260206004820152601960248201527f4e75727365526169643a20496e76616c6964206e756d6265720000000000000060448201526064016103f6565b50600180546040805160a081018252888152602080820189815282840189815260608085018a815260808087018b8152898b018b5560009a909a529551600589027fb10e2d527612073b26eecdfd717e6a320cf44b4afac2b0732d9fcbe2b7fa0cf681019190915593517fb10e2d527612073b26eecdfd717e6a320cf44b4afac2b0732d9fcbe2b7fa0cf785015591517fb10e2d527612073b26eecdfd717e6a320cf44b4afac2b0732d9fcbe2b7fa0cf884015590517fb10e2d527612073b26eecdfd717e6a320cf44b4afac2b0732d9fcbe2b7fa0cf983015595517fb10e2d527612073b26eecdfd717e6a320cf44b4afac2b0732d9fcbe2b7fa0cfa9091015582518a81529081018890529182018690529281018490529091869183917fe67bc7994d282c0fbf31557abeca3bf42c2dc7e627c6aff056739bfd6609b5d6910160405180910390a395945050505050565b6000546001600160a01b03163314610c915760405162461bcd60e51b81526004016103f6906116f0565b600580546001600160a01b0319166001600160a01b0392909216919091179055565b816001600160a01b0381161580610ce257506001600160a01b03811660009081526003602052604090205460ff165b610d3a5760405162461bcd60e51b8152602060048201526024808201527f4e75727365526169643a20546865206d61696473206973206e6f7420617070726044820152631bdd995960e21b60648201526084016103f6565b600060018581548110610d4f57610d4f6118b2565b9060005260206000209060050201905080600401544310610db25760405162461bcd60e51b815260206004820152601960248201527f4e75727365526169643a20526169642068617320656e6465640000000000000060448201526064016103f6565b600085815260026020908152604080832033845290915290205415610e195760405162461bcd60e51b815260206004820152601e60248201527f4e75727365526169643a205261696420697320696e2070726f6772657373000060448201526064016103f6565b604080516060810182524381526001600160a01b03868116602080840182815284860189815260008c815260028085528882203383529094529690962094518555516001850180546001600160a01b0319169190941617909255925191015515610ee4576040516323b872dd60e01b8152336004820152306024820152604481018490526001600160a01b038516906323b872dd90606401600060405180830381600087803b158015610ecb57600080fd5b505af1158015610edf573d6000803e3d6000fd5b505050505b80546040516323b872dd60e01b8152336004820152306024820152604481018290527f00000000000000000000000000000000000000000000000000000000000000006001600160a01b0316906323b872dd90606401602060405180830381600087803b158015610f5457600080fd5b505af1158015610f68573d6000803e3d6000fd5b505050506040513d601f19601f82011682018060405250810190610f8c919061154c565b5060006103e8610f9d83600361183c565b610fa7919061173d565b9050610fb2816113f1565b6001600160a01b037f0000000000000000000000000000000000000000000000000000000000000000166342966c68610feb838561185b565b6040518263ffffffff1660e01b815260040161100991815260200190565b600060405180830381600087803b15801561102357600080fd5b505af1158015611037573d6000803e3d6000fd5b50505050856001600160a01b031687336001600160a01b03167fdbaee2f8bdfe2e27e53a55ba816b9e0b74c12780d27d142b35023fa491602d618860405161108191815260200190565b60405180910390a450505050505050565b6000546001600160a01b031633146110bc5760405162461bcd60e51b81526004016103f6906116f0565b600480546001600160a01b0319166001600160a01b0392909216919091179055565b6000546001600160a01b031633146111085760405162461bcd60e51b81526004016103f6906116f0565b6001600160a01b03811661116d5760405162461bcd60e51b815260206004820152602660248201527f4f776e61626c653a206e6577206f776e657220697320746865207a65726f206160448201526564647265737360d01b60648201526084016103f6565b600080546040516001600160a01b03808516939216917f8be0079c531659141344cd1fd0a4f28419497f9722a3daafe3b4186f6b6457e091a3600080546001600160a01b0319166001600160a01b0392909216919091179055565b60208101516000906001600160a01b03166111f457815183906111eb904361185b565b101590506112b7565b600754600654602084015160408086015190516304eaa11360e01b81526001600160a01b03909216916304eaa113916112339160040190815260200190565b60206040518083038186803b15801561124b57600080fd5b505afa15801561125f573d6000803e3d6000fd5b505050506040513d601f19601f820116820180604052508101906112839190611587565b61128d908661183c565b611297919061183c565b6112a1919061173d565b6112ab908461185b565b82516111eb904361185b565b92915050565b60008060016112cd856002611794565b6112d7919061185b565b6112e290600261183c565b6005546040516344a0a49160e01b8152600481018890526001600160a01b038681166024830152929350600092849216906344a0a49190604401602060405180830381600087803b15801561133657600080fd5b505af115801561134a573d6000803e3d6000fd5b505050506040513d601f19601f8201168201806040525081019061136e9190611587565b6113789190611872565b611383906001611725565b90506000805b818311156113e65761139c600182611725565b9050806113aa886001611725565b6113b4919061185b565b6113bf906002611794565b6113ca886001611725565b6113d5906002611794565b6113df919061185b565b9150611389565b979650505050505050565b6004805460405163a9059cbb60e01b81526001600160a01b0391821692810192909252602482018390527f0000000000000000000000000000000000000000000000000000000000000000169063a9059cbb90604401602060405180830381600087803b15801561146157600080fd5b505af1158015611475573d6000803e3d6000fd5b505050506040513d601f19601f82011682018060405250810190611499919061154c565b5050565b803560ff811681146114ae57600080fd5b919050565b6000602082840312156114c557600080fd5b81356114d0816118c8565b9392505050565b600080602083850312156114ea57600080fd5b823567ffffffffffffffff8082111561150257600080fd5b818501915085601f83011261151657600080fd5b81358181111561152557600080fd5b8660208260051b850101111561153a57600080fd5b60209290920196919550909350505050565b60006020828403121561155e57600080fd5b815180151581146114d057600080fd5b60006020828403121561158057600080fd5b5035919050565b60006020828403121561159957600080fd5b5051919050565b600080604083850312156115b357600080fd5b8235915060208301356115c5816118c8565b809150509250929050565b6000806000606084860312156115e557600080fd5b8335925060208401356115f7816118c8565b929592945050506040919091013590565b6000806000806000806000806000806101408b8d03121561162857600080fd5b8a35995060208b013561163a816118c8565b985060408b0135975060608b0135965061165660808c0161149d565b955060a08b0135945060c08b0135935061167260e08c0161149d565b92506101008b013591506101208b013590509295989b9194979a5092959850565b600080604083850312156116a657600080fd5b50508035926020909101359150565b600080600080600060a086880312156116cd57600080fd5b505083359560208501359550604085013594606081013594506080013592509050565b6020808252818101527f4f776e61626c653a2063616c6c6572206973206e6f7420746865206f776e6572604082015260600190565b6000821982111561173857611738611886565b500190565b60008261174c5761174c61189c565b500490565b600181815b8085111561178c57816000190482111561177257611772611886565b8085161561177f57918102915b93841c9390800290611756565b509250929050565b60006114d083836000826117aa575060016112b7565b816117b7575060006112b7565b81600181146117cd57600281146117d7576117f3565b60019150506112b7565b60ff8411156117e8576117e8611886565b50506001821b6112b7565b5060208310610133831016604e8410600b8410161715611816575081810a6112b7565b6118208383611751565b806000190482111561183457611834611886565b029392505050565b600081600019048311821515161561185657611856611886565b500290565b60008282101561186d5761186d611886565b500390565b6000826118815761188161189c565b500690565b634e487b7160e01b600052601160045260246000fd5b634e487b7160e01b600052601260045260246000fd5b634e487b7160e01b600052603260045260246000fd5b6001600160a01b03811681146118dd57600080fd5b5056fea2646970667358221220f5a382fa6540eaf8e8d24a8cf3b3f90cbe33370c5254c155202345fe40cc621664736f6c63430008050033",
  "linkReferences": {},
  "deployedLinkReferences": {}
}