{
  "_format": "hh-sol-artifact-1",
  "contractName": "MaidCafe",
  "sourceName": "contracts/MaidCafe.sol",
  "abi": [
    {
      "inputs": [
        {
          "internalType": "contract IMaidCoin",
          "name": "_maidCoin",
          "type": "address"
        },
        {
          "internalType": "contract IWETH",
          "name": "_WETH",
          "type": "address"
        }
      ],
      "stateMutability": "nonpayable",
      "type": "constructor"
    },
    {
      "anonymous": false,
      "inputs": [
        {
          "indexed": true,
          "internalType": "address",
          "name": "owner",
          "type": "address"
        },
        {
          "indexed": true,
          "internalType": "address",
          "name": "spender",
          "type": "address"
        },
        {
          "indexed": false,
          "internalType": "uint256",
          "name": "value",
          "type": "uint256"
        }
      ],
      "name": "Approval",
      "type": "event"
    },
    {
      "anonymous": false,
      "inputs": [
        {
          "indexed": true,
          "internalType": "address",
          "name": "user",
          "type": "address"
        },
        {
          "indexed": false,
          "internalType": "uint256",
          "name": "amount",
          "type": "uint256"
        }
      ],
      "name": "Enter",
      "type": "event"
    },
    {
      "anonymous": false,
      "inputs": [
        {
          "indexed": true,
          "internalType": "address",
          "name": "user",
          "type": "address"
        },
        {
          "indexed": false,
          "internalType": "uint256",
          "name": "share",
          "type": "uint256"
        }
      ],
      "name": "Leave",
      "type": "event"
    },
    {
      "anonymous": false,
      "inputs": [
        {
          "indexed": true,
          "internalType": "address",
          "name": "previousOwner",
          "type": "address"
        },
        {
          "indexed": true,
          "internalType": "address",
          "name": "newOwner",
          "type": "address"
        }
      ],
      "name": "OwnershipTransferred",
      "type": "event"
    },
    {
      "anonymous": false,
      "inputs": [
        {
          "indexed": true,
          "internalType": "address",
          "name": "from",
          "type": "address"
        },
        {
          "indexed": true,
          "internalType": "address",
          "name": "to",
          "type": "address"
        },
        {
          "indexed": false,
          "internalType": "uint256",
          "name": "value",
          "type": "uint256"
        }
      ],
      "name": "Transfer",
      "type": "event"
    },
    {
      "inputs": [
        {
          "internalType": "address",
          "name": "owner",
          "type": "address"
        },
        {
          "internalType": "address",
          "name": "spender",
          "type": "address"
        }
      ],
      "name": "allowance",
      "outputs": [
        {
          "internalType": "uint256",
          "name": "",
          "type": "uint256"
        }
      ],
      "stateMutability": "view",
      "type": "function"
    },
    {
      "inputs": [
        {
          "internalType": "address",
          "name": "spender",
          "type": "address"
        },
        {
          "internalType": "uint256",
          "name": "amount",
          "type": "uint256"
        }
      ],
      "name": "approve",
      "outputs": [
        {
          "internalType": "bool",
          "name": "",
          "type": "bool"
        }
      ],
      "stateMutability": "nonpayable",
      "type": "function"
    },
    {
      "inputs": [
        {
          "internalType": "address",
          "name": "account",
          "type": "address"
        }
      ],
      "name": "balanceOf",
      "outputs": [
        {
          "internalType": "uint256",
          "name": "",
          "type": "uint256"
        }
      ],
      "stateMutability": "view",
      "type": "function"
    },
    {
      "inputs": [],
      "name": "decimals",
      "outputs": [
        {
          "internalType": "uint8",
          "name": "",
          "type": "uint8"
        }
      ],
      "stateMutability": "view",
      "type": "function"
    },
    {
      "inputs": [
        {
          "internalType": "address",
          "name": "spender",
          "type": "address"
        },
        {
          "internalType": "uint256",
          "name": "subtractedValue",
          "type": "uint256"
        }
      ],
      "name": "decreaseAllowance",
      "outputs": [
        {
          "internalType": "bool",
          "name": "",
          "type": "bool"
        }
      ],
      "stateMutability": "nonpayable",
      "type": "function"
    },
    {
      "inputs": [
        {
          "internalType": "uint256",
          "name": "_amount",
          "type": "uint256"
        }
      ],
      "name": "enter",
      "outputs": [],
      "stateMutability": "nonpayable",
      "type": "function"
    },
    {
      "inputs": [
        {
          "internalType": "uint256",
          "name": "_amount",
          "type": "uint256"
        },
        {
          "internalType": "uint256",
          "name": "deadline",
          "type": "uint256"
        },
        {
          "internalType": "uint8",
          "name": "v",
          "type": "uint8"
        },
        {
          "internalType": "bytes32",
          "name": "r",
          "type": "bytes32"
        },
        {
          "internalType": "bytes32",
          "name": "s",
          "type": "bytes32"
        }
      ],
      "name": "enterWithPermit",
      "outputs": [],
      "stateMutability": "nonpayable",
      "type": "function"
    },
    {
      "inputs": [
        {
          "internalType": "address",
          "name": "spender",
          "type": "address"
        },
        {
          "internalType": "uint256",
          "name": "addedValue",
          "type": "uint256"
        }
      ],
      "name": "increaseAllowance",
      "outputs": [
        {
          "internalType": "bool",
          "name": "",
          "type": "bool"
        }
      ],
      "stateMutability": "nonpayable",
      "type": "function"
    },
    {
      "inputs": [
        {
          "internalType": "uint256",
          "name": "_share",
          "type": "uint256"
        }
      ],
      "name": "leave",
      "outputs": [],
      "stateMutability": "nonpayable",
      "type": "function"
    },
    {
      "inputs": [],
      "name": "maidCoin",
      "outputs": [
        {
          "internalType": "contract IMaidCoin",
          "name": "",
          "type": "address"
        }
      ],
      "stateMutability": "view",
      "type": "function"
    },
    {
      "inputs": [],
      "name": "name",
      "outputs": [
        {
          "internalType": "string",
          "name": "",
          "type": "string"
        }
      ],
      "stateMutability": "view",
      "type": "function"
    },
    {
      "inputs": [],
      "name": "owner",
      "outputs": [
        {
          "internalType": "address",
          "name": "",
          "type": "address"
        }
      ],
      "stateMutability": "view",
      "type": "function"
    },
    {
      "inputs": [],
      "name": "renounceOwnership",
      "outputs": [],
      "stateMutability": "nonpayable",
      "type": "function"
    },
    {
      "inputs": [
        {
          "internalType": "address",
          "name": "token",
          "type": "address"
        },
        {
          "internalType": "contract IUniswapV2Router02",
          "name": "router",
          "type": "address"
        },
        {
          "internalType": "address[]",
          "name": "path",
          "type": "address[]"
        },
        {
          "internalType": "uint256",
          "name": "amountOutMin",
          "type": "uint256"
        },
        {
          "internalType": "uint256",
          "name": "deadline",
          "type": "uint256"
        }
      ],
      "name": "swap",
      "outputs": [],
      "stateMutability": "nonpayable",
      "type": "function"
    },
    {
      "inputs": [],
      "name": "symbol",
      "outputs": [
        {
          "internalType": "string",
          "name": "",
          "type": "string"
        }
      ],
      "stateMutability": "view",
      "type": "function"
    },
    {
      "inputs": [],
      "name": "totalSupply",
      "outputs": [
        {
          "internalType": "uint256",
          "name": "",
          "type": "uint256"
        }
      ],
      "stateMutability": "view",
      "type": "function"
    },
    {
      "inputs": [
        {
          "internalType": "address",
          "name": "recipient",
          "type": "address"
        },
        {
          "internalType": "uint256",
          "name": "amount",
          "type": "uint256"
        }
      ],
      "name": "transfer",
      "outputs": [
        {
          "internalType": "bool",
          "name": "",
          "type": "bool"
        }
      ],
      "stateMutability": "nonpayable",
      "type": "function"
    },
    {
      "inputs": [
        {
          "internalType": "address",
          "name": "sender",
          "type": "address"
        },
        {
          "internalType": "address",
          "name": "recipient",
          "type": "address"
        },
        {
          "internalType": "uint256",
          "name": "amount",
          "type": "uint256"
        }
      ],
      "name": "transferFrom",
      "outputs": [
        {
          "internalType": "bool",
          "name": "",
          "type": "bool"
        }
      ],
      "stateMutability": "nonpayable",
      "type": "function"
    },
    {
      "inputs": [
        {
          "internalType": "address",
          "name": "newOwner",
          "type": "address"
        }
      ],
      "name": "transferOwnership",
      "outputs": [],
      "stateMutability": "nonpayable",
      "type": "function"
    },
    {
      "stateMutability": "payable",
      "type": "receive"
    }
  ],
  "bytecode": "0x60c06040523480156200001157600080fd5b5060405162001feb38038062001feb8339810160408190526200003491620001c3565b60408051808201825260098152684d616964204361666560b81b602080830191825283518085019094526004845263244f4d5560e01b90840152815191929162000081916003916200011d565b508051620000979060049060208401906200011d565b5050506000620000ac6200011960201b60201c565b600580546001600160a01b0319166001600160a01b038316908117909155604051919250906000907f8be0079c531659141344cd1fd0a4f28419497f9722a3daafe3b4186f6b6457e0908290a3506001600160601b0319606092831b8116608052911b1660a05262000258565b3390565b8280546200012b9062000202565b90600052602060002090601f0160209004810192826200014f57600085556200019a565b82601f106200016a57805160ff19168380011785556200019a565b828001600101855582156200019a579182015b828111156200019a5782518255916020019190600101906200017d565b50620001a8929150620001ac565b5090565b5b80821115620001a85760008155600101620001ad565b60008060408385031215620001d757600080fd5b8251620001e4816200023f565b6020840151909250620001f7816200023f565b809150509250929050565b600181811c908216806200021757607f821691505b602082108114156200023957634e487b7160e01b600052602260045260246000fd5b50919050565b6001600160a01b03811681146200025557600080fd5b50565b60805160601c60a05160601c611d2f620002bc600039600081816105db015261069d015260008181610299015281816104c90152818161055201528181610a8d01528181610b3401528181610ccc01528181610dae0152610e550152611d2f6000f3fe6080604052600436106101185760003560e01c8063715018a6116100a0578063a59f3e0c11610064578063a59f3e0c14610326578063a9059cbb14610346578063c11cd83314610366578063dd62ed3e14610386578063f2fde38b146103cc57600080fd5b8063715018a614610272578063849e5aff146102875780638da5cb5b146102d357806395d89b41146102f1578063a457c2d71461030657600080fd5b806323b872dd116100e757806323b872dd146101c0578063313ce567146101e057806339509351146101fc57806367dfd4c91461021c57806370a082311461023c57600080fd5b806306fdde0314610124578063095ea7b31461014f5780630fe6d57c1461017f57806318160ddd146101a157600080fd5b3661011f57005b600080fd5b34801561013057600080fd5b506101396103ec565b6040516101469190611abd565b60405180910390f35b34801561015b57600080fd5b5061016f61016a36600461190d565b61047e565b6040519015158152602001610146565b34801561018b57600080fd5b5061019f61019a366004611866565b610494565b005b3480156101ad57600080fd5b506002545b604051908152602001610146565b3480156101cc57600080fd5b5061016f6101db366004611825565b610973565b3480156101ec57600080fd5b5060405160128152602001610146565b34801561020857600080fd5b5061016f61021736600461190d565b610a26565b34801561022857600080fd5b5061019f610237366004611a20565b610a5d565b34801561024857600080fd5b506101b26102573660046117cf565b6001600160a01b031660009081526020819052604090205490565b34801561027e57600080fd5b5061019f610b96565b34801561029357600080fd5b506102bb7f000000000000000000000000000000000000000000000000000000000000000081565b6040516001600160a01b039091168152602001610146565b3480156102df57600080fd5b506005546001600160a01b03166102bb565b3480156102fd57600080fd5b50610139610c0a565b34801561031257600080fd5b5061016f61032136600461190d565b610c19565b34801561033257600080fd5b5061019f610341366004611a20565b610cb4565b34801561035257600080fd5b5061016f61036136600461190d565b610e08565b34801561037257600080fd5b5061019f610381366004611a52565b610e15565b34801561039257600080fd5b506101b26103a13660046117ec565b6001600160a01b03918216600090815260016020908152604080832093909416825291909152205490565b3480156103d857600080fd5b5061019f6103e73660046117cf565b610ec9565b6060600380546103fb90611c64565b80601f016020809104026020016040519081016040528092919081815260200182805461042790611c64565b80156104745780601f1061044957610100808354040283529160200191610474565b820191906000526020600020905b81548152906001019060200180831161045757829003601f168201915b5050505050905090565b600061048b338484610fb4565b50600192915050565b6005546001600160a01b031633146104c75760405162461bcd60e51b81526004016104be90611af0565b60405180910390fd5b7f00000000000000000000000000000000000000000000000000000000000000006001600160a01b0316866001600160a01b0316146105485760405162461bcd60e51b815260206004820152601760248201527f4d616964436166653a20496e76616c696420746f6b656e00000000000000000060448201526064016104be565b6001600160a01b037f000000000000000000000000000000000000000000000000000000000000000016848461057f600182611c21565b81811061058e5761058e611cb5565b90506020020160208101906105a391906117cf565b6001600160a01b0316146105c95760405162461bcd60e51b81526004016104be90611b25565b60006001600160a01b038716610714577f00000000000000000000000000000000000000000000000000000000000000006001600160a01b03168585600081811061061657610616611cb5565b905060200201602081019061062b91906117cf565b6001600160a01b0316146106515760405162461bcd60e51b81526004016104be90611b25565b50478061069b5760405162461bcd60e51b815260206004820152601860248201527713585a5910d859994e88125b9d985b1a5908185b5bdd5b9d60421b60448201526064016104be565b7f00000000000000000000000000000000000000000000000000000000000000006001600160a01b031663d0e30db0826040518263ffffffff1660e01b81526004016000604051808303818588803b1580156106f657600080fd5b505af115801561070a573d6000803e3d6000fd5b5050505050610830565b866001600160a01b03168585600081811061073157610731611cb5565b905060200201602081019061074691906117cf565b6001600160a01b03161461076c5760405162461bcd60e51b81526004016104be90611b25565b6040516370a0823160e01b81523060048201526001600160a01b038816906370a082319060240160206040518083038186803b1580156107ab57600080fd5b505afa1580156107bf573d6000803e3d6000fd5b505050506040513d601f19601f820116820180604052508101906107e39190611a39565b9050600081116108305760405162461bcd60e51b815260206004820152601860248201527713585a5910d859994e88125b9d985b1a5908185b5bdd5b9d60421b60448201526064016104be565b8484600081811061084357610843611cb5565b905060200201602081019061085891906117cf565b60405163095ea7b360e01b81526001600160a01b03888116600483015260248201849052919091169063095ea7b390604401602060405180830381600087803b1580156108a457600080fd5b505af11580156108b8573d6000803e3d6000fd5b505050506040513d601f19601f820116820180604052508101906108dc91906119fe565b506040516338ed173960e01b81526001600160a01b038716906338ed17399061091390849087908a908a9030908a90600401611b55565b600060405180830381600087803b15801561092d57600080fd5b505af1158015610941573d6000803e3d6000fd5b505050506040513d6000823e601f3d908101601f191682016040526109699190810190611939565b5050505050505050565b60006109808484846110d9565b6001600160a01b038416600090815260016020908152604080832033845290915290205482811015610a055760405162461bcd60e51b815260206004820152602860248201527f45524332303a207472616e7366657220616d6f756e74206578636565647320616044820152676c6c6f77616e636560c01b60648201526084016104be565b610a198533610a148685611c21565b610fb4565b60019150505b9392505050565b3360008181526001602090815260408083206001600160a01b0387168452909152812054909161048b918590610a14908690611bc8565b6000610a6860025490565b6040516370a0823160e01b815230600482015290915060009082906001600160a01b037f000000000000000000000000000000000000000000000000000000000000000016906370a082319060240160206040518083038186803b158015610acf57600080fd5b505afa158015610ae3573d6000803e3d6000fd5b505050506040513d601f19601f82011682018060405250810190610b079190611a39565b610b119085611c02565b610b1b9190611be0565b9050610b2733846112b1565b610b5b6001600160a01b037f0000000000000000000000000000000000000000000000000000000000000000163383611400565b60405183815233907f61a26f7c17d8780c095ccfa67e689a13ee4e06ddce3da18956369f4a396100e8906020015b60405180910390a2505050565b6005546001600160a01b03163314610bc05760405162461bcd60e51b81526004016104be90611af0565b6005546040516000916001600160a01b0316907f8be0079c531659141344cd1fd0a4f28419497f9722a3daafe3b4186f6b6457e0908390a3600580546001600160a01b0319169055565b6060600480546103fb90611c64565b3360009081526001602090815260408083206001600160a01b038616845290915281205482811015610c9b5760405162461bcd60e51b815260206004820152602560248201527f45524332303a2064656372656173656420616c6c6f77616e63652062656c6f77604482015264207a65726f60d81b60648201526084016104be565b610caa3385610a148685611c21565b5060019392505050565b6040516370a0823160e01b81523060048201526000907f00000000000000000000000000000000000000000000000000000000000000006001600160a01b0316906370a082319060240160206040518083038186803b158015610d1657600080fd5b505afa158015610d2a573d6000803e3d6000fd5b505050506040513d601f19601f82011682018060405250810190610d4e9190611a39565b90506000610d5b60025490565b9050801580610d68575081155b15610d7c57610d773384611468565b610da1565b600082610d898386611c02565b610d939190611be0565b9050610d9f3382611468565b505b610dd66001600160a01b037f000000000000000000000000000000000000000000000000000000000000000016333086611547565b60405183815233907f1fb48929215fc354244acea33112720ce5b7ba6912db70bb0149e77aa7c91ce190602001610b89565b600061048b3384846110d9565b60405163d505accf60e01b8152336004820152306024820152604481018690526064810185905260ff8416608482015260a4810183905260c481018290527f00000000000000000000000000000000000000000000000000000000000000006001600160a01b03169063d505accf9060e401600060405180830381600087803b158015610ea157600080fd5b505af1158015610eb5573d6000803e3d6000fd5b50505050610ec285610cb4565b5050505050565b6005546001600160a01b03163314610ef35760405162461bcd60e51b81526004016104be90611af0565b6001600160a01b038116610f585760405162461bcd60e51b815260206004820152602660248201527f4f776e61626c653a206e6577206f776e657220697320746865207a65726f206160448201526564647265737360d01b60648201526084016104be565b6005546040516001600160a01b038084169216907f8be0079c531659141344cd1fd0a4f28419497f9722a3daafe3b4186f6b6457e090600090a3600580546001600160a01b0319166001600160a01b0392909216919091179055565b6001600160a01b0383166110165760405162461bcd60e51b8152602060048201526024808201527f45524332303a20617070726f76652066726f6d20746865207a65726f206164646044820152637265737360e01b60648201526084016104be565b6001600160a01b0382166110775760405162461bcd60e51b815260206004820152602260248201527f45524332303a20617070726f766520746f20746865207a65726f206164647265604482015261737360f01b60648201526084016104be565b6001600160a01b0383811660008181526001602090815260408083209487168084529482529182902085905590518481527f8c5be1e5ebec7d5bd14f71427d1e84f3dd0314c0f7b2291e5b200ac8c7c3b92591015b60405180910390a3505050565b6001600160a01b03831661113d5760405162461bcd60e51b815260206004820152602560248201527f45524332303a207472616e736665722066726f6d20746865207a65726f206164604482015264647265737360d81b60648201526084016104be565b6001600160a01b03821661119f5760405162461bcd60e51b815260206004820152602360248201527f45524332303a207472616e7366657220746f20746865207a65726f206164647260448201526265737360e81b60648201526084016104be565b6001600160a01b038316600090815260208190526040902054818110156112175760405162461bcd60e51b815260206004820152602660248201527f45524332303a207472616e7366657220616d6f756e7420657863656564732062604482015265616c616e636560d01b60648201526084016104be565b6112218282611c21565b6001600160a01b038086166000908152602081905260408082209390935590851681529081208054849290611257908490611bc8565b92505081905550826001600160a01b0316846001600160a01b03167fddf252ad1be2c89b69c2b068fc378daa952ba7f163c4a11628f55a4df523b3ef846040516112a391815260200190565b60405180910390a350505050565b6001600160a01b0382166113115760405162461bcd60e51b815260206004820152602160248201527f45524332303a206275726e2066726f6d20746865207a65726f206164647265736044820152607360f81b60648201526084016104be565b6001600160a01b038216600090815260208190526040902054818110156113855760405162461bcd60e51b815260206004820152602260248201527f45524332303a206275726e20616d6f756e7420657863656564732062616c616e604482015261636560f01b60648201526084016104be565b61138f8282611c21565b6001600160a01b038416600090815260208190526040812091909155600280548492906113bd908490611c21565b90915550506040518281526000906001600160a01b038516907fddf252ad1be2c89b69c2b068fc378daa952ba7f163c4a11628f55a4df523b3ef906020016110cc565b6040516001600160a01b03831660248201526044810182905261146390849063a9059cbb60e01b906064015b60408051601f198184030181529190526020810180516001600160e01b03166001600160e01b031990931692909217909152611585565b505050565b6001600160a01b0382166114be5760405162461bcd60e51b815260206004820152601f60248201527f45524332303a206d696e7420746f20746865207a65726f20616464726573730060448201526064016104be565b80600260008282546114d09190611bc8565b90915550506001600160a01b038216600090815260208190526040812080548392906114fd908490611bc8565b90915550506040518181526001600160a01b038316906000907fddf252ad1be2c89b69c2b068fc378daa952ba7f163c4a11628f55a4df523b3ef9060200160405180910390a35050565b6040516001600160a01b038085166024830152831660448201526064810182905261157f9085906323b872dd60e01b9060840161142c565b50505050565b60006115da826040518060400160405280602081526020017f5361666545524332303a206c6f772d6c6576656c2063616c6c206661696c6564815250856001600160a01b03166116579092919063ffffffff16565b80519091501561146357808060200190518101906115f891906119fe565b6114635760405162461bcd60e51b815260206004820152602a60248201527f5361666545524332303a204552433230206f7065726174696f6e20646964206e6044820152691bdd081cdd58d8d9595960b21b60648201526084016104be565b6060611666848460008561166e565b949350505050565b6060824710156116cf5760405162461bcd60e51b815260206004820152602660248201527f416464726573733a20696e73756666696369656e742062616c616e636520666f6044820152651c8818d85b1b60d21b60648201526084016104be565b843b61171d5760405162461bcd60e51b815260206004820152601d60248201527f416464726573733a2063616c6c20746f206e6f6e2d636f6e747261637400000060448201526064016104be565b600080866001600160a01b031685876040516117399190611aa1565b60006040518083038185875af1925050503d8060008114611776576040519150601f19603f3d011682016040523d82523d6000602084013e61177b565b606091505b509150915061178b828286611796565b979650505050505050565b606083156117a5575081610a1f565b8251156117b55782518084602001fd5b8160405162461bcd60e51b81526004016104be9190611abd565b6000602082840312156117e157600080fd5b8135610a1f81611ce1565b600080604083850312156117ff57600080fd5b823561180a81611ce1565b9150602083013561181a81611ce1565b809150509250929050565b60008060006060848603121561183a57600080fd5b833561184581611ce1565b9250602084013561185581611ce1565b929592945050506040919091013590565b60008060008060008060a0878903121561187f57600080fd5b863561188a81611ce1565b9550602087013561189a81611ce1565b9450604087013567ffffffffffffffff808211156118b757600080fd5b818901915089601f8301126118cb57600080fd5b8135818111156118da57600080fd5b8a60208260051b85010111156118ef57600080fd5b979a9699505060200196606081013595608090910135945092505050565b6000806040838503121561192057600080fd5b823561192b81611ce1565b946020939093013593505050565b6000602080838503121561194c57600080fd5b825167ffffffffffffffff8082111561196457600080fd5b818501915085601f83011261197857600080fd5b81518181111561198a5761198a611ccb565b8060051b604051601f19603f830116810181811085821117156119af576119af611ccb565b604052828152858101935084860182860187018a10156119ce57600080fd5b600095505b838610156119f15780518552600195909501949386019386016119d3565b5098975050505050505050565b600060208284031215611a1057600080fd5b81518015158114610a1f57600080fd5b600060208284031215611a3257600080fd5b5035919050565b600060208284031215611a4b57600080fd5b5051919050565b600080600080600060a08688031215611a6a57600080fd5b8535945060208601359350604086013560ff81168114611a8957600080fd5b94979396509394606081013594506080013592915050565b60008251611ab3818460208701611c38565b9190910192915050565b6020815260008251806020840152611adc816040850160208701611c38565b601f01601f19169190910160400192915050565b6020808252818101527f4f776e61626c653a2063616c6c6572206973206e6f7420746865206f776e6572604082015260600190565b60208082526016908201527509ac2d2c886c2ccca744092dcecc2d8d2c840e0c2e8d60531b604082015260600190565b868152602080820187905260a0604083018190528201859052600090869060c08401835b88811015611ba7578335611b8c81611ce1565b6001600160a01b031682529282019290820190600101611b79565b506001600160a01b0396909616606085015250505060800152949350505050565b60008219821115611bdb57611bdb611c9f565b500190565b600082611bfd57634e487b7160e01b600052601260045260246000fd5b500490565b6000816000190483118215151615611c1c57611c1c611c9f565b500290565b600082821015611c3357611c33611c9f565b500390565b60005b83811015611c53578181015183820152602001611c3b565b8381111561157f5750506000910152565b600181811c90821680611c7857607f821691505b60208210811415611c9957634e487b7160e01b600052602260045260246000fd5b50919050565b634e487b7160e01b600052601160045260246000fd5b634e487b7160e01b600052603260045260246000fd5b634e487b7160e01b600052604160045260246000fd5b6001600160a01b0381168114611cf657600080fd5b5056fea264697066735822122074be2f5d6ba87e11cd6d10b6e18e4cbd28586ed2c536f7f9a9e3e7524e42152e64736f6c63430008050033",
  "linkReferences": {},
  "deployedLinkReferences": {}
}