{
    "_format": "hh-sol-artifact-1",
    "contractName": "TheMaster",
    "sourceName": "contracts/TheMaster.sol",
    "abi": [
        {
            "inputs": [
                {
                    "internalType": "uint256",
                    "name": "_initialRewardPerBlock",
                    "type": "uint256"
                },
                {
                    "internalType": "uint256",
                    "name": "_decreasingInterval",
                    "type": "uint256"
                },
                {
                    "internalType": "uint256",
                    "name": "_startBlock",
                    "type": "uint256"
                },
                {
                    "internalType": "contract IMaidCoin",
                    "name": "_maidCoin",
                    "type": "address"
                }
            ],
            "stateMutability": "nonpayable",
            "type": "constructor"
        },
        {
            "anonymous": false,
            "inputs": [
                {
                    "indexed": true,
                    "internalType": "uint256",
                    "name": "pid",
                    "type": "uint256"
                },
                {
                    "indexed": false,
                    "internalType": "address",
                    "name": "addr",
                    "type": "address"
                },
                {
                    "indexed": true,
                    "internalType": "bool",
                    "name": "delegate",
                    "type": "bool"
                },
                {
                    "indexed": true,
                    "internalType": "bool",
                    "name": "mintable",
                    "type": "bool"
                },
                {
                    "indexed": false,
                    "internalType": "address",
                    "name": "supportable",
                    "type": "address"
                },
                {
                    "indexed": false,
                    "internalType": "uint8",
                    "name": "supportingRatio",
                    "type": "uint8"
                },
                {
                    "indexed": false,
                    "internalType": "uint256",
                    "name": "allocPoint",
                    "type": "uint256"
                }
            ],
            "name": "Add",
            "type": "event"
        },
        {
            "anonymous": false,
            "inputs": [
                {
                    "indexed": false,
                    "internalType": "address",
                    "name": "addr",
                    "type": "address"
                }
            ],
            "name": "ChangeRewardCalculator",
            "type": "event"
        },
        {
            "anonymous": false,
            "inputs": [
                {
                    "indexed": true,
                    "internalType": "uint256",
                    "name": "userId",
                    "type": "uint256"
                },
                {
                    "indexed": true,
                    "internalType": "uint256",
                    "name": "pid",
                    "type": "uint256"
                },
                {
                    "indexed": false,
                    "internalType": "uint256",
                    "name": "amount",
                    "type": "uint256"
                }
            ],
            "name": "Deposit",
            "type": "event"
        },
        {
            "anonymous": false,
            "inputs": [
                {
                    "indexed": true,
                    "internalType": "address",
                    "name": "supporter",
                    "type": "address"
                },
                {
                    "indexed": true,
                    "internalType": "uint256",
                    "name": "pid",
                    "type": "uint256"
                },
                {
                    "indexed": false,
                    "internalType": "uint256",
                    "name": "amount",
                    "type": "uint256"
                }
            ],
            "name": "Desupport",
            "type": "event"
        },
        {
            "anonymous": false,
            "inputs": [
                {
                    "indexed": true,
                    "internalType": "address",
                    "name": "user",
                    "type": "address"
                },
                {
                    "indexed": true,
                    "internalType": "uint256",
                    "name": "pid",
                    "type": "uint256"
                },
                {
                    "indexed": false,
                    "internalType": "uint256",
                    "name": "amount",
                    "type": "uint256"
                }
            ],
            "name": "EmergencyDesupport",
            "type": "event"
        },
        {
            "anonymous": false,
            "inputs": [
                {
                    "indexed": true,
                    "internalType": "address",
                    "name": "user",
                    "type": "address"
                },
                {
                    "indexed": true,
                    "internalType": "uint256",
                    "name": "pid",
                    "type": "uint256"
                },
                {
                    "indexed": false,
                    "internalType": "uint256",
                    "name": "amount",
                    "type": "uint256"
                }
            ],
            "name": "EmergencyWithdraw",
            "type": "event"
        },
        {
            "anonymous": false,
            "inputs": [
                {
                    "indexed": true,
                    "internalType": "address",
                    "name": "previousOwner",
                    "type": "address"
                },
                {
                    "indexed": true,
                    "internalType": "address",
                    "name": "newOwner",
                    "type": "address"
                }
            ],
            "name": "OwnershipTransferred",
            "type": "event"
        },
        {
            "anonymous": false,
            "inputs": [
                {
                    "indexed": true,
                    "internalType": "uint256",
                    "name": "pid",
                    "type": "uint256"
                },
                {
                    "indexed": false,
                    "internalType": "uint256",
                    "name": "allocPoint",
                    "type": "uint256"
                }
            ],
            "name": "Set",
            "type": "event"
        },
        {
            "anonymous": false,
            "inputs": [
                {
                    "indexed": true,
                    "internalType": "uint256",
                    "name": "pid",
                    "type": "uint256"
                },
                {
                    "indexed": true,
                    "internalType": "bool",
                    "name": "status",
                    "type": "bool"
                }
            ],
            "name": "SetIsSupporterPool",
            "type": "event"
        },
        {
            "anonymous": false,
            "inputs": [
                {
                    "indexed": true,
                    "internalType": "address",
                    "name": "supporter",
                    "type": "address"
                },
                {
                    "indexed": true,
                    "internalType": "uint256",
                    "name": "pid",
                    "type": "uint256"
                },
                {
                    "indexed": false,
                    "internalType": "uint256",
                    "name": "amount",
                    "type": "uint256"
                }
            ],
            "name": "Support",
            "type": "event"
        },
        {
            "anonymous": false,
            "inputs": [
                {
                    "indexed": true,
                    "internalType": "uint256",
                    "name": "userId",
                    "type": "uint256"
                },
                {
                    "indexed": true,
                    "internalType": "uint256",
                    "name": "pid",
                    "type": "uint256"
                },
                {
                    "indexed": false,
                    "internalType": "uint256",
                    "name": "amount",
                    "type": "uint256"
                }
            ],
            "name": "Withdraw",
            "type": "event"
        },
        {
            "inputs": [
                {
                    "internalType": "address",
                    "name": "addr",
                    "type": "address"
                },
                {
                    "internalType": "bool",
                    "name": "delegate",
                    "type": "bool"
                },
                {
                    "internalType": "bool",
                    "name": "mintable",
                    "type": "bool"
                },
                {
                    "internalType": "address",
                    "name": "supportable",
                    "type": "address"
                },
                {
                    "internalType": "uint8",
                    "name": "supportingRatio",
                    "type": "uint8"
                },
                {
                    "internalType": "uint256",
                    "name": "allocPoint",
                    "type": "uint256"
                }
            ],
            "name": "add",
            "outputs": [],
            "stateMutability": "nonpayable",
            "type": "function"
        },
        {
            "inputs": [
                {
                    "internalType": "address",
                    "name": "addr",
                    "type": "address"
                }
            ],
            "name": "changeRewardCalculator",
            "outputs": [],
            "stateMutability": "nonpayable",
            "type": "function"
        },
        {
            "inputs": [],
            "name": "decreasingInterval",
            "outputs": [
                {
                    "internalType": "uint256",
                    "name": "",
                    "type": "uint256"
                }
            ],
            "stateMutability": "view",
            "type": "function"
        },
        {
            "inputs": [
                {
                    "internalType": "uint256",
                    "name": "pid",
                    "type": "uint256"
                },
                {
                    "internalType": "uint256",
                    "name": "amount",
                    "type": "uint256"
                },
                {
                    "internalType": "uint256",
                    "name": "userId",
                    "type": "uint256"
                }
            ],
            "name": "deposit",
            "outputs": [],
            "stateMutability": "nonpayable",
            "type": "function"
        },
        {
            "inputs": [
                {
                    "internalType": "uint256",
                    "name": "pid",
                    "type": "uint256"
                },
                {
                    "internalType": "uint256",
                    "name": "amount",
                    "type": "uint256"
                },
                {
                    "internalType": "uint256",
                    "name": "userId",
                    "type": "uint256"
                },
                {
                    "internalType": "uint256",
                    "name": "deadline",
                    "type": "uint256"
                },
                {
                    "internalType": "uint8",
                    "name": "v",
                    "type": "uint8"
                },
                {
                    "internalType": "bytes32",
                    "name": "r",
                    "type": "bytes32"
                },
                {
                    "internalType": "bytes32",
                    "name": "s",
                    "type": "bytes32"
                }
            ],
            "name": "depositWithPermit",
            "outputs": [],
            "stateMutability": "nonpayable",
            "type": "function"
        },
        {
            "inputs": [
                {
                    "internalType": "uint256",
                    "name": "pid",
                    "type": "uint256"
                },
                {
                    "internalType": "uint256",
                    "name": "amount",
                    "type": "uint256"
                },
                {
                    "internalType": "uint256",
                    "name": "userId",
                    "type": "uint256"
                },
                {
                    "internalType": "uint256",
                    "name": "deadline",
                    "type": "uint256"
                },
                {
                    "internalType": "uint8",
                    "name": "v",
                    "type": "uint8"
                },
                {
                    "internalType": "bytes32",
                    "name": "r",
                    "type": "bytes32"
                },
                {
                    "internalType": "bytes32",
                    "name": "s",
                    "type": "bytes32"
                }
            ],
            "name": "depositWithPermitMax",
            "outputs": [],
            "stateMutability": "nonpayable",
            "type": "function"
        },
        {
            "inputs": [
                {
                    "internalType": "uint256",
                    "name": "pid",
                    "type": "uint256"
                },
                {
                    "internalType": "uint256",
                    "name": "amount",
                    "type": "uint256"
                }
            ],
            "name": "desupport",
            "outputs": [],
            "stateMutability": "nonpayable",
            "type": "function"
        },
        {
            "inputs": [
                {
                    "internalType": "uint256",
                    "name": "pid",
                    "type": "uint256"
                }
            ],
            "name": "emergencyDesupport",
            "outputs": [],
            "stateMutability": "nonpayable",
            "type": "function"
        },
        {
            "inputs": [
                {
                    "internalType": "uint256",
                    "name": "pid",
                    "type": "uint256"
                }
            ],
            "name": "emergencyWithdraw",
            "outputs": [],
            "stateMutability": "nonpayable",
            "type": "function"
        },
        {
            "inputs": [],
            "name": "initialRewardPerBlock",
            "outputs": [
                {
                    "internalType": "uint256",
                    "name": "",
                    "type": "uint256"
                }
            ],
            "stateMutability": "view",
            "type": "function"
        },
        {
            "inputs": [],
            "name": "maidCoin",
            "outputs": [
                {
                    "internalType": "contract IMaidCoin",
                    "name": "",
                    "type": "address"
                }
            ],
            "stateMutability": "view",
            "type": "function"
        },
        {
            "inputs": [
                {
                    "internalType": "address",
                    "name": "to",
                    "type": "address"
                },
                {
                    "internalType": "uint256",
                    "name": "amount",
                    "type": "uint256"
                }
            ],
            "name": "mint",
            "outputs": [],
            "stateMutability": "nonpayable",
            "type": "function"
        },
        {
            "inputs": [
                {
                    "internalType": "address",
                    "name": "",
                    "type": "address"
                }
            ],
            "name": "mintableByAddr",
            "outputs": [
                {
                    "internalType": "bool",
                    "name": "",
                    "type": "bool"
                }
            ],
            "stateMutability": "view",
            "type": "function"
        },
        {
            "inputs": [],
            "name": "owner",
            "outputs": [
                {
                    "internalType": "address",
                    "name": "",
                    "type": "address"
                }
            ],
            "stateMutability": "view",
            "type": "function"
        },
        {
            "inputs": [
                {
                    "internalType": "uint256",
                    "name": "pid",
                    "type": "uint256"
                },
                {
                    "internalType": "uint256",
                    "name": "userId",
                    "type": "uint256"
                }
            ],
            "name": "pendingReward",
            "outputs": [
                {
                    "internalType": "uint256",
                    "name": "",
                    "type": "uint256"
                }
            ],
            "stateMutability": "view",
            "type": "function"
        },
        {
            "inputs": [],
            "name": "poolCount",
            "outputs": [
                {
                    "internalType": "uint256",
                    "name": "",
                    "type": "uint256"
                }
            ],
            "stateMutability": "view",
            "type": "function"
        },
        {
            "inputs": [
                {
                    "internalType": "uint256",
                    "name": "",
                    "type": "uint256"
                }
            ],
            "name": "poolInfo",
            "outputs": [
                {
                    "internalType": "address",
                    "name": "addr",
                    "type": "address"
                },
                {
                    "internalType": "bool",
                    "name": "delegate",
                    "type": "bool"
                },
                {
                    "internalType": "contract ISupportable",
                    "name": "supportable",
                    "type": "address"
                },
                {
                    "internalType": "uint8",
                    "name": "supportingRatio",
                    "type": "uint8"
                },
                {
                    "internalType": "uint256",
                    "name": "allocPoint",
                    "type": "uint256"
                },
                {
                    "internalType": "uint256",
                    "name": "lastRewardBlock",
                    "type": "uint256"
                },
                {
                    "internalType": "uint256",
                    "name": "accRewardPerShare",
                    "type": "uint256"
                },
                {
                    "internalType": "uint256",
                    "name": "supply",
                    "type": "uint256"
                }
            ],
            "stateMutability": "view",
            "type": "function"
        },
        {
            "inputs": [],
            "name": "renounceOwnership",
            "outputs": [],
            "stateMutability": "nonpayable",
            "type": "function"
        },
        {
            "inputs": [],
            "name": "rewardCalculator",
            "outputs": [
                {
                    "internalType": "contract IRewardCalculator",
                    "name": "",
                    "type": "address"
                }
            ],
            "stateMutability": "view",
            "type": "function"
        },
        {
            "inputs": [],
            "name": "rewardPerBlock",
            "outputs": [
                {
                    "internalType": "uint256",
                    "name": "",
                    "type": "uint256"
                }
            ],
            "stateMutability": "view",
            "type": "function"
        },
        {
            "inputs": [
                {
                    "internalType": "uint256",
                    "name": "pid",
                    "type": "uint256"
                },
                {
                    "internalType": "uint256",
                    "name": "allocPoint",
                    "type": "uint256"
                }
            ],
            "name": "set",
            "outputs": [],
            "stateMutability": "nonpayable",
            "type": "function"
        },
        {
            "inputs": [],
            "name": "startBlock",
            "outputs": [
                {
                    "internalType": "uint256",
                    "name": "",
                    "type": "uint256"
                }
            ],
            "stateMutability": "view",
            "type": "function"
        },
        {
            "inputs": [
                {
                    "internalType": "uint256",
                    "name": "pid",
                    "type": "uint256"
                },
                {
                    "internalType": "uint256",
                    "name": "amount",
                    "type": "uint256"
                },
                {
                    "internalType": "uint256",
                    "name": "supportTo",
                    "type": "uint256"
                }
            ],
            "name": "support",
            "outputs": [],
            "stateMutability": "nonpayable",
            "type": "function"
        },
        {
            "inputs": [
                {
                    "internalType": "uint256",
                    "name": "pid",
                    "type": "uint256"
                },
                {
                    "internalType": "uint256",
                    "name": "amount",
                    "type": "uint256"
                },
                {
                    "internalType": "uint256",
                    "name": "supportTo",
                    "type": "uint256"
                },
                {
                    "internalType": "uint256",
                    "name": "deadline",
                    "type": "uint256"
                },
                {
                    "internalType": "uint8",
                    "name": "v",
                    "type": "uint8"
                },
                {
                    "internalType": "bytes32",
                    "name": "r",
                    "type": "bytes32"
                },
                {
                    "internalType": "bytes32",
                    "name": "s",
                    "type": "bytes32"
                }
            ],
            "name": "supportWithPermit",
            "outputs": [],
            "stateMutability": "nonpayable",
            "type": "function"
        },
        {
            "inputs": [
                {
                    "internalType": "uint256",
                    "name": "pid",
                    "type": "uint256"
                },
                {
                    "internalType": "uint256",
                    "name": "amount",
                    "type": "uint256"
                },
                {
                    "internalType": "uint256",
                    "name": "supportTo",
                    "type": "uint256"
                },
                {
                    "internalType": "uint256",
                    "name": "deadline",
                    "type": "uint256"
                },
                {
                    "internalType": "uint8",
                    "name": "v",
                    "type": "uint8"
                },
                {
                    "internalType": "bytes32",
                    "name": "r",
                    "type": "bytes32"
                },
                {
                    "internalType": "bytes32",
                    "name": "s",
                    "type": "bytes32"
                }
            ],
            "name": "supportWithPermitMax",
            "outputs": [],
            "stateMutability": "nonpayable",
            "type": "function"
        },
        {
            "inputs": [],
            "name": "totalAllocPoint",
            "outputs": [
                {
                    "internalType": "uint256",
                    "name": "",
                    "type": "uint256"
                }
            ],
            "stateMutability": "view",
            "type": "function"
        },
        {
            "inputs": [
                {
                    "internalType": "address",
                    "name": "newOwner",
                    "type": "address"
                }
            ],
            "name": "transferOwnership",
            "outputs": [],
            "stateMutability": "nonpayable",
            "type": "function"
        },
        {
            "inputs": [
                {
                    "internalType": "uint256",
                    "name": "",
                    "type": "uint256"
                },
                {
                    "internalType": "uint256",
                    "name": "",
                    "type": "uint256"
                }
            ],
            "name": "userInfo",
            "outputs": [
                {
                    "internalType": "uint256",
                    "name": "amount",
                    "type": "uint256"
                },
                {
                    "internalType": "uint256",
                    "name": "rewardDebt",
                    "type": "uint256"
                }
            ],
            "stateMutability": "view",
            "type": "function"
        },
        {
            "inputs": [
                {
                    "internalType": "uint256",
                    "name": "pid",
                    "type": "uint256"
                },
                {
                    "internalType": "uint256",
                    "name": "amount",
                    "type": "uint256"
                },
                {
                    "internalType": "uint256",
                    "name": "userId",
                    "type": "uint256"
                }
            ],
            "name": "withdraw",
            "outputs": [],
            "stateMutability": "nonpayable",
            "type": "function"
        }
    ],
    "bytecode": "0x6101006040523480156200001257600080fd5b5060405162002b5238038062002b5283398101604081905262000035916200009b565b600080546001600160a01b031916339081178255604051909182917f8be0079c531659141344cd1fd0a4f28419497f9722a3daafe3b4186f6b6457e0908290a35060809390935260a09190915260c05260601b6001600160601b03191660e052620000ec565b60008060008060808587031215620000b257600080fd5b845160208601516040870151606088015192965090945092506001600160a01b0381168114620000e157600080fd5b939692955090935050565b60805160a05160c05160e05160601c6129e36200016f6000396000818161039301528181610df901528181611f9d0152818161205c0152818161210e01526121b70152600081816102ca01528181610796015281816107bd01526113a2015260008181610304015261137e01526000818161035101526113e401526129e36000f3fe608060405234801561001057600080fd5b50600436106101ce5760003560e01c8063715018a611610104578063a41fe49f116100a2578063e692c45311610071578063e692c453146104ac578063f2fde38b146104bf578063f440c1eb146104d2578063f525cb68146104e557600080fd5b8063a41fe49f1461040c578063b345dc8c1461041f578063bc8feb0e14610466578063e23ee3b21461047957600080fd5b80638ae39cac116100de5780638ae39cac146103cd5780638da5cb5b146103d557806396769e89146103e6578063a234d608146103f957600080fd5b8063715018a6146103735780637a618e721461037b578063849e5aff1461038e57600080fd5b806340c10f191161017157806354ae7bb01161014b57806354ae7bb0146102ff5780635acf624c1461032657806366d31e1b146103395780636b56781a1461034c57600080fd5b806340c10f19146102b257806348cd4cb1146102c55780635312ea8e146102ec57600080fd5b806317caf6f1116101ad57806317caf6f1146102625780631ab06ee5146102795780633185c0bd1461028c5780633fed8e8d1461029f57600080fd5b8062aeef8a146101d3578063058048ef146101e85780631526fe27146101fb575b600080fd5b6101e66101e13660046126f9565b6104ed565b005b6101e66101f63660046125b9565b61068c565b61020e6102093660046126a5565b610a2b565b604080516001600160a01b03998a1681529715156020890152959097169486019490945260ff929092166060850152608084015260a083015260c082015260e0810191909152610100015b60405180910390f35b61026b60055481565b604051908152602001610259565b6101e66102873660046126d7565b610a91565b61026b61029a3660046126d7565b610b6d565b6101e66102ad366004612725565b610cc4565b6101e66102c036600461262e565b610d69565b61026b7f000000000000000000000000000000000000000000000000000000000000000081565b6101e66102fa3660046126a5565b610e59565b61026b7f000000000000000000000000000000000000000000000000000000000000000081565b6101e66103343660046126a5565b610fd9565b6101e6610347366004612725565b61116e565b61026b7f000000000000000000000000000000000000000000000000000000000000000081565b6101e66111cb565b6101e6610389366004612725565b61123f565b6103b57f000000000000000000000000000000000000000000000000000000000000000081565b6040516001600160a01b039091168152602001610259565b61026b6112db565b6000546001600160a01b03166103b5565b6001546103b5906001600160a01b031681565b6101e66104073660046126d7565b61140e565b6101e661041a3660046126f9565b611728565b61045161042d3660046126d7565b60036020908152600092835260408084209091529082529020805460019091015482565b60408051928352602083019190915201610259565b6101e6610474366004612725565b6118a8565b61049c61048736600461259c565b60046020526000908152604090205460ff1681565b6040519015158152602001610259565b6101e66104ba3660046126f9565b611905565b6101e66104cd36600461259c565b611c20565b6101e66104e036600461259c565b611d0a565b60025461026b565b60006002848154811061050257610502612971565b6000918252602090912060069091020160018101549091506001600160a01b0316156105755760405162461bcd60e51b815260206004820152601b60248201527f5468654d61737465723a2055736520737570706f72742066756e63000000000060448201526064015b60405180910390fd5b600084815260036020908152604080832085845290915290208154600160a01b900460ff16156105da5781546001600160a01b031633146105c85760405162461bcd60e51b815260040161056c90612846565b6105d58282866000611d88565b61064a565b6001600160a01b038316331461063d5760405162461bcd60e51b815260206004820152602260248201527f5468654d61737465723a204465706f73697420746f20796f7572206164647265604482015261737360f01b606482015260840161056c565b61064a8282866001611d88565b84837f33da4f9b82b3e18a281ca2cabbe2f076925692abb593b7ea3f850009e8ec97708660405161067d91815260200190565b60405180910390a35050505050565b6000546001600160a01b031633146106b65760405162461bcd60e51b815260040161056c90612811565b6001600160a01b038316156107395760008260ff161180156106dc575060508260ff1611155b6107345760405162461bcd60e51b8152602060048201526024808201527f5468654d61737465723a204f757472616e67656420737570706f7274696e67526044820152636174696f60e01b606482015260840161056c565b61078a565b60ff82161561078a5760405162461bcd60e51b815260206004820152601f60248201527f5468654d61737465723a204e6f7420737570706f727461626c6520706f6f6c00604482015260640161056c565b610792611e5d565b60007f000000000000000000000000000000000000000000000000000000000000000043116107e1577f00000000000000000000000000000000000000000000000000000000000000006107e3565b435b905081600560008282546107f79190612887565b90915550506002805460408051610100810182526001600160a01b03808c1682528a15156020830190815289821693830193845260ff808a1660608501908152608085018a815260a086018a8152600060c0880181815260e0890182815260018c018d559b909152965160068a027f405787fa12a823e0f2b7631cc41b3ba8828b3321ca811111fa75cd3aa3bb5ace8101805497511515600160a01b9081026001600160a81b0319998a16948b169490941793909317905598517f405787fa12a823e0f2b7631cc41b3ba8828b3321ca811111fa75cd3aa3bb5acf8a0180549551909616909102939095169490951693909317179055517f405787fa12a823e0f2b7631cc41b3ba8828b3321ca811111fa75cd3aa3bb5ad0840155517f405787fa12a823e0f2b7631cc41b3ba8828b3321ca811111fa75cd3aa3bb5ad1830155517f405787fa12a823e0f2b7631cc41b3ba8828b3321ca811111fa75cd3aa3bb5ad282015591517f405787fa12a823e0f2b7631cc41b3ba8828b3321ca811111fa75cd3aa3bb5ad39092019190915585156109b0576001600160a01b0388166000908152600460205260409020805460ff191660011790555b6001600160a01b038881166000818152600460209081526040918290205482519384529389169083015260ff8781168383015260608301879052905192161515918915159184917f85c5f9763b69537638ed9b50435c7c1296747fc78c92080777dd20909d46d0ac9181900360800190a45050505050505050565b60028181548110610a3b57600080fd5b60009182526020909120600690910201805460018201546002830154600384015460048501546005909501546001600160a01b03808616975060ff600160a01b9687900481169791861696909504909416939088565b6000546001600160a01b03163314610abb5760405162461bcd60e51b815260040161056c90612811565b610ac3611e5d565b8060028381548110610ad757610ad7612971565b906000526020600020906006020160020154600554610af691906128e0565b610b009190612887565b6005819055508060028381548110610b1a57610b1a612971565b906000526020600020906006020160020181905550817f545b620a3000f6303b158b321f06b4e95e28a27d70aecac8c6bdac4f48a9f6b382604051610b6191815260200190565b60405180910390a25050565b60008060028481548110610b8357610b83612971565b6000918252602080832087845260038083526040808620898752909352919093206004600690930290930191820154600583015491830154929450914381108015610bcd57508115155b15610c3a5760006005548660020154610be46112db565b610bee85436128e0565b610bf891906128c1565b610c0291906128c1565b610c0c919061289f565b905082610c2268056bc75e2d63100000836128c1565b610c2c919061289f565b610c369085612887565b9350505b6000846001015468056bc75e2d63100000858760000154610c5b91906128c1565b610c65919061289f565b610c6f91906128e0565b6001870154909150600160a01b900460ff1680610c9457509550610cbe945050505050565b6064610ca082846128c1565b610caa919061289f565b610cb490836128e0565b9750505050505050505b92915050565b60028781548110610cd757610cd7612971565b600091825260209091206006909102015460405163d505accf60e01b81526001600160a01b039091169063d505accf90610d239033903090600019908a908a908a908a9060040161279d565b600060405180830381600087803b158015610d3d57600080fd5b505af1158015610d51573d6000803e3d6000fd5b50505050610d608787876104ed565b50505050505050565b3360009081526004602052604090205460ff16610dd35760405162461bcd60e51b815260206004820152602260248201527f5468654d61737465723a2043616c6c65642066726f6d20756e2d6d696e7461626044820152616c6560f01b606482015260840161056c565b6040516340c10f1960e01b81526001600160a01b038381166004830152602482018390527f000000000000000000000000000000000000000000000000000000000000000016906340c10f1990604401600060405180830381600087803b158015610e3d57600080fd5b505af1158015610e51573d6000803e3d6000fd5b505050505050565b600060028281548110610e6e57610e6e612971565b6000918252602090912060069091020160018101549091506001600160a01b031615610edc5760405162461bcd60e51b815260206004820152601d60248201527f5468654d61737465723a20557365206465737570706f72742066756e63000000604482015260640161056c565b8054600160a01b900460ff1615610f445760405162461bcd60e51b815260206004820152602660248201527f5468654d61737465723a20506f6f6c2073686f756c64206265206e6f6e2d64656044820152656c656761746560d01b606482015260840161056c565b6000828152600360209081526040808320338452909152812080548282556001820183905560058401805492939192839290610f819084906128e0565b90915550508254610f9c906001600160a01b03163383611ea8565b604051818152849033907fbb757047c2b5f3974fe26b7c10f732e7bce710b0952a71082702781e62ae05959060200160405180910390a350505050565b600060028281548110610fee57610fee612971565b6000918252602090912060069091020160018101549091506001600160a01b03168061106a5760405162461bcd60e51b815260206004820152602560248201527f5468654d61737465723a2055736520656d657267656e637957697468647261776044820152642066756e6360d81b606482015260840161056c565b60008381526003602090815260408083203384529091528120805482825560018201839055600585018054929391928392906110a79084906128e0565b90915550506001600160a01b03831663ddfeacca336110c58461293e565b6040516001600160e01b031960e085901b1681526001600160a01b0390921660048301526024820152604401600060405180830381600087803b15801561110b57600080fd5b505af115801561111f573d6000803e3d6000fd5b5050855461113a92506001600160a01b031690503383611ea8565b604051818152859033907f67a463e34014cd44cda35b27bf0daebb9c9e138b4e4b6ef2a23170d79595f8a09060200161067d565b6002878154811061118157611181612971565b600091825260209091206006909102015460405163d505accf60e01b81526001600160a01b039091169063d505accf90610d2390339030908b908a908a908a908a9060040161279d565b6000546001600160a01b031633146111f55760405162461bcd60e51b815260040161056c90612811565b600080546040516001600160a01b03909116907f8be0079c531659141344cd1fd0a4f28419497f9722a3daafe3b4186f6b6457e0908390a3600080546001600160a01b0319169055565b6002878154811061125257611252612971565b600091825260209091206006909102015460405163d505accf60e01b81526001600160a01b039091169063d505accf9061129e9033903090600019908a908a908a908a9060040161279d565b600060405180830381600087803b1580156112b857600080fd5b505af11580156112cc573d6000803e3d6000fd5b50505050610d60878787611905565b6001546000906001600160a01b03161561137a57600160009054906101000a90046001600160a01b03166001600160a01b0316638ae39cac6040518163ffffffff1660e01b815260040160206040518083038186803b15801561133d57600080fd5b505afa158015611351573d6000803e3d6000fd5b505050506040513d601f19601f8201168201806040525081019061137591906126be565b905090565b60007f00000000000000000000000000000000000000000000000000000000000000006113c77f0000000000000000000000000000000000000000000000000000000000000000436128e0565b6113d1919061289f565b90506113de816001612887565b611408907f000000000000000000000000000000000000000000000000000000000000000061289f565b91505090565b60006002838154811061142357611423612971565b6000918252602090912060069091020160018101549091506001600160a01b0316806114915760405162461bcd60e51b815260206004820152601c60248201527f5468654d61737465723a205573652077697468647261772066756e6300000000604482015260640161056c565b600084815260036020908152604080832033845290915290208054848110156114fc5760405162461bcd60e51b815260206004820152601e60248201527f5468654d61737465723a20496e73756666696369656e7420616d6f756e740000604482015260640161056c565b61150584611f10565b6004840154600183015460009068056bc75e2d6310000061152684866128c1565b611530919061289f565b61153a91906128e0565b905080156116065760018601546040516303273bc760e01b815260048101839052336024820152600160a01b90910460ff16604482015260009081906001600160a01b038816906303273bc7906064016040805180830381600087803b1580156115a357600080fd5b505af11580156115b7573d6000803e3d6000fd5b505050506040513d601f19601f820116820180604052508101906115db919061265a565b909250905080156115f0576115f08282612044565b611603336115fe83866128e0565b612044565b50505b86156116c3576001600160a01b03851663ddfeacca336116258a61293e565b6040516001600160e01b031960e085901b1681526001600160a01b0390921660048301526024820152604401600060405180830381600087803b15801561166b57600080fd5b505af115801561167f573d6000803e3d6000fd5b505050508686600501600082825461169791906128e0565b909155506116a7905087846128e0565b80855586549093506116c3906001600160a01b03163389611ea8565b68056bc75e2d631000006116d783856128c1565b6116e1919061289f565b6001850155604051878152889033907fbcb1b254c83676670cc415f8ce8239bb9e972244993586ef7bf282f85ddadfe0906020015b60405180910390a35050505050505050565b60006002848154811061173d5761173d612971565b6000918252602090912060069091020160018101549091506001600160a01b0316156117ab5760405162461bcd60e51b815260206004820152601d60248201527f5468654d61737465723a20557365206465737570706f72742066756e63000000604482015260640161056c565b600084815260036020908152604080832085845290915290208154600160a01b900460ff16156118105781546001600160a01b031633146117fe5760405162461bcd60e51b815260040161056c90612846565b61180b82828660006121e6565b611875565b6001600160a01b03831633146118685760405162461bcd60e51b815260206004820152601d60248201527f5468654d61737465723a204e6f742063616c6c65642062792075736572000000604482015260640161056c565b61187582828660016121e6565b84837fa01a72713bf837059e3a668d28f0de277fb7f24f2a4e95bf926703c95b5f12b28660405161067d91815260200190565b600287815481106118bb576118bb612971565b600091825260209091206006909102015460405163d505accf60e01b81526001600160a01b039091169063d505accf9061129e90339030908b908a908a908a908a9060040161279d565b60006002848154811061191a5761191a612971565b6000918252602090912060069091020160018101549091506001600160a01b0316806119885760405162461bcd60e51b815260206004820152601b60248201527f5468654d61737465723a20557365206465706f7369742066756e630000000000604482015260640161056c565b600085815260036020908152604080832033845290915290206119aa83611f10565b600483015481548015611ab057600183015460009068056bc75e2d631000006119d385856128c1565b6119dd919061289f565b6119e791906128e0565b90508015611aae5760018601546040516303273bc760e01b815260048101839052336024820152600160a01b90910460ff16604482015260009081906001600160a01b038816906303273bc7906064016040805180830381600087803b158015611a5057600080fd5b505af1158015611a64573d6000803e3d6000fd5b505050506040513d601f19601f82011682018060405250810190611a88919061265a565b90925090508015611a9d57611a9d8282612044565b611aab336115fe83866128e0565b50505b505b8615611bc95780611b27576040516359290a2560e11b815233600482015260248101879052604481018890526001600160a01b0385169063b252144a90606401600060405180830381600087803b158015611b0a57600080fd5b505af1158015611b1e573d6000803e3d6000fd5b50505050611b88565b604051636eff566560e11b8152336004820152602481018890526001600160a01b0385169063ddfeacca90604401600060405180830381600087803b158015611b6f57600080fd5b505af1158015611b83573d6000803e3d6000fd5b505050505b8454611b9f906001600160a01b031633308a612302565b86856005016000828254611bb39190612887565b90915550611bc390508782612887565b80845590505b68056bc75e2d63100000611bdd83836128c1565b611be7919061289f565b6001840155604051878152889033907f3391b7506551053a045b28b04ba34acfab377a47e91db9f4a46d8ac01acac14f90602001611716565b6000546001600160a01b03163314611c4a5760405162461bcd60e51b815260040161056c90612811565b6001600160a01b038116611caf5760405162461bcd60e51b815260206004820152602660248201527f4f776e61626c653a206e6577206f776e657220697320746865207a65726f206160448201526564647265737360d01b606482015260840161056c565b600080546040516001600160a01b03808516939216917f8be0079c531659141344cd1fd0a4f28419497f9722a3daafe3b4186f6b6457e091a3600080546001600160a01b0319166001600160a01b0392909216919091179055565b6000546001600160a01b03163314611d345760405162461bcd60e51b815260040161056c90612811565b600180546001600160a01b0319166001600160a01b0383169081179091556040519081527f065fc3b77c68c383644c8d30a3e1f0df39d6f0ddc721adc950902574d599622b9060200160405180910390a150565b611d9184611f10565b600484015483548015611de257600185015460009068056bc75e2d63100000611dba85856128c1565b611dc4919061289f565b611dce91906128e0565b90508015611de057611de03382612044565b505b8315611e2f578215611e05578554611e05906001600160a01b0316333087612302565b83866005016000828254611e199190612887565b90915550611e2990508482612887565b80865590505b68056bc75e2d63100000611e4383836128c1565b611e4d919061289f565b8560010181905550505050505050565b60025460005b81811015611ea457611e9460028281548110611e8157611e81612971565b9060005260206000209060060201611f10565b611e9d81612923565b9050611e63565b5050565b6040516001600160a01b038316602482015260448101829052611f0b90849063a9059cbb60e01b906064015b60408051601f198184030181529190526020810180516001600160e01b03166001600160e01b03199093169290921790915261233a565b505050565b6003810154438110611f20575050565b6005820154801580611f3457506002830154155b15611f4457505043600390910155565b60006005548460020154611f566112db565b611f6086436128e0565b611f6a91906128c1565b611f7491906128c1565b611f7e919061289f565b6040516340c10f1960e01b8152306004820152602481018290529091507f00000000000000000000000000000000000000000000000000000000000000006001600160a01b0316906340c10f1990604401600060405180830381600087803b158015611fe957600080fd5b505af1158015611ffd573d6000803e3d6000fd5b505050508168056bc75e2d631000008261201791906128c1565b612021919061289f565b84600401546120309190612887565b600485015550504360039092019190915550565b6040516370a0823160e01b81523060048201526000907f00000000000000000000000000000000000000000000000000000000000000006001600160a01b0316906370a082319060240160206040518083038186803b1580156120a657600080fd5b505afa1580156120ba573d6000803e3d6000fd5b505050506040513d601f19601f820116820180604052508101906120de91906126be565b9050808211156121915760405163a9059cbb60e01b81526001600160a01b038481166004830152602482018390527f0000000000000000000000000000000000000000000000000000000000000000169063a9059cbb906044015b602060405180830381600087803b15801561215357600080fd5b505af1158015612167573d6000803e3d6000fd5b505050506040513d601f19601f8201168201806040525081019061218b9190612688565b50505050565b60405163a9059cbb60e01b81526001600160a01b038481166004830152602482018490527f0000000000000000000000000000000000000000000000000000000000000000169063a9059cbb90604401612139565b8254828110156122385760405162461bcd60e51b815260206004820152601e60248201527f5468654d61737465723a20496e73756666696369656e7420616d6f756e740000604482015260640161056c565b61224185611f10565b6004850154600185015460009068056bc75e2d6310000061226284866128c1565b61226c919061289f565b61227691906128e0565b90508015612288576122883382612044565b84156122d357848760050160008282546122a291906128e0565b909155506122b2905085846128e0565b808755925083156122d35786546122d3906001600160a01b03163387611ea8565b68056bc75e2d631000006122e783856128c1565b6122f1919061289f565b866001018190555050505050505050565b6040516001600160a01b038085166024830152831660448201526064810182905261218b9085906323b872dd60e01b90608401611ed4565b600061238f826040518060400160405280602081526020017f5361666545524332303a206c6f772d6c6576656c2063616c6c206661696c6564815250856001600160a01b031661240c9092919063ffffffff16565b805190915015611f0b57808060200190518101906123ad9190612688565b611f0b5760405162461bcd60e51b815260206004820152602a60248201527f5361666545524332303a204552433230206f7065726174696f6e20646964206e6044820152691bdd081cdd58d8d9595960b21b606482015260840161056c565b606061241b8484600085612425565b90505b9392505050565b6060824710156124865760405162461bcd60e51b815260206004820152602660248201527f416464726573733a20696e73756666696369656e742062616c616e636520666f6044820152651c8818d85b1b60d21b606482015260840161056c565b843b6124d45760405162461bcd60e51b815260206004820152601d60248201527f416464726573733a2063616c6c20746f206e6f6e2d636f6e7472616374000000604482015260640161056c565b600080866001600160a01b031685876040516124f09190612781565b60006040518083038185875af1925050503d806000811461252d576040519150601f19603f3d011682016040523d82523d6000602084013e612532565b606091505b509150915061254282828661254d565b979650505050505050565b6060831561255c57508161241e565b82511561256c5782518084602001fd5b8160405162461bcd60e51b815260040161056c91906127de565b803560ff8116811461259757600080fd5b919050565b6000602082840312156125ae57600080fd5b813561241e81612987565b60008060008060008060c087890312156125d257600080fd5b86356125dd81612987565b955060208701356125ed8161299f565b945060408701356125fd8161299f565b9350606087013561260d81612987565b925061261b60808801612586565b915060a087013590509295509295509295565b6000806040838503121561264157600080fd5b823561264c81612987565b946020939093013593505050565b6000806040838503121561266d57600080fd5b825161267881612987565b6020939093015192949293505050565b60006020828403121561269a57600080fd5b815161241e8161299f565b6000602082840312156126b757600080fd5b5035919050565b6000602082840312156126d057600080fd5b5051919050565b600080604083850312156126ea57600080fd5b50508035926020909101359150565b60008060006060848603121561270e57600080fd5b505081359360208301359350604090920135919050565b600080600080600080600060e0888a03121561274057600080fd5b8735965060208801359550604088013594506060880135935061276560808901612586565b925060a0880135915060c0880135905092959891949750929550565b600082516127938184602087016128f7565b9190910192915050565b6001600160a01b0397881681529590961660208601526040850193909352606084019190915260ff16608083015260a082015260c081019190915260e00190565b60208152600082518060208401526127fd8160408501602087016128f7565b601f01601f19169190910160400192915050565b6020808252818101527f4f776e61626c653a2063616c6c6572206973206e6f7420746865206f776e6572604082015260600190565b60208082526021908201527f5468654d61737465723a204e6f742063616c6c65642062792064656c656761746040820152606560f81b606082015260800190565b6000821982111561289a5761289a61295b565b500190565b6000826128bc57634e487b7160e01b600052601260045260246000fd5b500490565b60008160001904831182151516156128db576128db61295b565b500290565b6000828210156128f2576128f261295b565b500390565b60005b838110156129125781810151838201526020016128fa565b8381111561218b5750506000910152565b60006000198214156129375761293761295b565b5060010190565b6000600160ff1b8214156129545761295461295b565b5060000390565b634e487b7160e01b600052601160045260246000fd5b634e487b7160e01b600052603260045260246000fd5b6001600160a01b038116811461299c57600080fd5b50565b801515811461299c57600080fdfea2646970667358221220d32b93aac3ad928a3ac1622fe348783652ddca00b13201d96b298ce2902cc81b64736f6c63430008050033",
    "linkReferences": {},
    "deployedLinkReferences": {}
}