{
  "_format": "hh-sol-artifact-1",
  "contractName": "NursePart",
  "sourceName": "contracts/NursePart.sol",
  "abi": [
    {
      "inputs": [],
      "stateMutability": "nonpayable",
      "type": "constructor"
    },
    {
      "anonymous": false,
      "inputs": [
        {
          "indexed": true,
          "internalType": "address",
          "name": "account",
          "type": "address"
        },
        {
          "indexed": true,
          "internalType": "address",
          "name": "operator",
          "type": "address"
        },
        {
          "indexed": false,
          "internalType": "bool",
          "name": "approved",
          "type": "bool"
        }
      ],
      "name": "ApprovalForAll",
      "type": "event"
    },
    {
      "anonymous": false,
      "inputs": [
        {
          "indexed": true,
          "internalType": "address",
          "name": "previousOwner",
          "type": "address"
        },
        {
          "indexed": true,
          "internalType": "address",
          "name": "newOwner",
          "type": "address"
        }
      ],
      "name": "OwnershipTransferred",
      "type": "event"
    },
    {
      "anonymous": false,
      "inputs": [
        {
          "indexed": true,
          "internalType": "address",
          "name": "operator",
          "type": "address"
        },
        {
          "indexed": true,
          "internalType": "address",
          "name": "from",
          "type": "address"
        },
        {
          "indexed": true,
          "internalType": "address",
          "name": "to",
          "type": "address"
        },
        {
          "indexed": false,
          "internalType": "uint256[]",
          "name": "ids",
          "type": "uint256[]"
        },
        {
          "indexed": false,
          "internalType": "uint256[]",
          "name": "values",
          "type": "uint256[]"
        }
      ],
      "name": "TransferBatch",
      "type": "event"
    },
    {
      "anonymous": false,
      "inputs": [
        {
          "indexed": true,
          "internalType": "address",
          "name": "operator",
          "type": "address"
        },
        {
          "indexed": true,
          "internalType": "address",
          "name": "from",
          "type": "address"
        },
        {
          "indexed": true,
          "internalType": "address",
          "name": "to",
          "type": "address"
        },
        {
          "indexed": false,
          "internalType": "uint256",
          "name": "id",
          "type": "uint256"
        },
        {
          "indexed": false,
          "internalType": "uint256",
          "name": "value",
          "type": "uint256"
        }
      ],
      "name": "TransferSingle",
      "type": "event"
    },
    {
      "anonymous": false,
      "inputs": [
        {
          "indexed": false,
          "internalType": "string",
          "name": "value",
          "type": "string"
        },
        {
          "indexed": true,
          "internalType": "uint256",
          "name": "id",
          "type": "uint256"
        }
      ],
      "name": "URI",
      "type": "event"
    },
    {
      "inputs": [],
      "name": "DOMAIN_SEPARATOR",
      "outputs": [
        {
          "internalType": "bytes32",
          "name": "",
          "type": "bytes32"
        }
      ],
      "stateMutability": "view",
      "type": "function"
    },
    {
      "inputs": [],
      "name": "PERMIT_TYPEHASH",
      "outputs": [
        {
          "internalType": "bytes32",
          "name": "",
          "type": "bytes32"
        }
      ],
      "stateMutability": "view",
      "type": "function"
    },
    {
      "inputs": [
        {
          "internalType": "address",
          "name": "account",
          "type": "address"
        },
        {
          "internalType": "uint256",
          "name": "id",
          "type": "uint256"
        }
      ],
      "name": "balanceOf",
      "outputs": [
        {
          "internalType": "uint256",
          "name": "",
          "type": "uint256"
        }
      ],
      "stateMutability": "view",
      "type": "function"
    },
    {
      "inputs": [
        {
          "internalType": "address[]",
          "name": "accounts",
          "type": "address[]"
        },
        {
          "internalType": "uint256[]",
          "name": "ids",
          "type": "uint256[]"
        }
      ],
      "name": "balanceOfBatch",
      "outputs": [
        {
          "internalType": "uint256[]",
          "name": "",
          "type": "uint256[]"
        }
      ],
      "stateMutability": "view",
      "type": "function"
    },
    {
      "inputs": [
        {
          "internalType": "uint256",
          "name": "id",
          "type": "uint256"
        },
        {
          "internalType": "uint256",
          "name": "amount",
          "type": "uint256"
        }
      ],
      "name": "burn",
      "outputs": [],
      "stateMutability": "nonpayable",
      "type": "function"
    },
    {
      "inputs": [
        {
          "internalType": "address",
          "name": "account",
          "type": "address"
        },
        {
          "internalType": "address",
          "name": "operator",
          "type": "address"
        }
      ],
      "name": "isApprovedForAll",
      "outputs": [
        {
          "internalType": "bool",
          "name": "",
          "type": "bool"
        }
      ],
      "stateMutability": "view",
      "type": "function"
    },
    {
      "inputs": [
        {
          "internalType": "address",
          "name": "to",
          "type": "address"
        },
        {
          "internalType": "uint256",
          "name": "id",
          "type": "uint256"
        },
        {
          "internalType": "uint256",
          "name": "amount",
          "type": "uint256"
        }
      ],
      "name": "mint",
      "outputs": [],
      "stateMutability": "nonpayable",
      "type": "function"
    },
    {
      "inputs": [],
      "name": "name",
      "outputs": [
        {
          "internalType": "string",
          "name": "",
          "type": "string"
        }
      ],
      "stateMutability": "view",
      "type": "function"
    },
    {
      "inputs": [
        {
          "internalType": "address",
          "name": "",
          "type": "address"
        }
      ],
      "name": "nonces",
      "outputs": [
        {
          "internalType": "uint256",
          "name": "",
          "type": "uint256"
        }
      ],
      "stateMutability": "view",
      "type": "function"
    },
    {
      "inputs": [],
      "name": "owner",
      "outputs": [
        {
          "internalType": "address",
          "name": "",
          "type": "address"
        }
      ],
      "stateMutability": "view",
      "type": "function"
    },
    {
      "inputs": [
        {
          "internalType": "address",
          "name": "owner",
          "type": "address"
        },
        {
          "internalType": "address",
          "name": "spender",
          "type": "address"
        },
        {
          "internalType": "uint256",
          "name": "deadline",
          "type": "uint256"
        },
        {
          "internalType": "uint8",
          "name": "v",
          "type": "uint8"
        },
        {
          "internalType": "bytes32",
          "name": "r",
          "type": "bytes32"
        },
        {
          "internalType": "bytes32",
          "name": "s",
          "type": "bytes32"
        }
      ],
      "name": "permit",
      "outputs": [],
      "stateMutability": "nonpayable",
      "type": "function"
    },
    {
      "inputs": [],
      "name": "renounceOwnership",
      "outputs": [],
      "stateMutability": "nonpayable",
      "type": "function"
    },
    {
      "inputs": [
        {
          "internalType": "address",
          "name": "from",
          "type": "address"
        },
        {
          "internalType": "address",
          "name": "to",
          "type": "address"
        },
        {
          "internalType": "uint256[]",
          "name": "ids",
          "type": "uint256[]"
        },
        {
          "internalType": "uint256[]",
          "name": "amounts",
          "type": "uint256[]"
        },
        {
          "internalType": "bytes",
          "name": "data",
          "type": "bytes"
        }
      ],
      "name": "safeBatchTransferFrom",
      "outputs": [],
      "stateMutability": "nonpayable",
      "type": "function"
    },
    {
      "inputs": [
        {
          "internalType": "address",
          "name": "from",
          "type": "address"
        },
        {
          "internalType": "address",
          "name": "to",
          "type": "address"
        },
        {
          "internalType": "uint256",
          "name": "id",
          "type": "uint256"
        },
        {
          "internalType": "uint256",
          "name": "amount",
          "type": "uint256"
        },
        {
          "internalType": "bytes",
          "name": "data",
          "type": "bytes"
        }
      ],
      "name": "safeTransferFrom",
      "outputs": [],
      "stateMutability": "nonpayable",
      "type": "function"
    },
    {
      "inputs": [
        {
          "internalType": "address",
          "name": "operator",
          "type": "address"
        },
        {
          "internalType": "bool",
          "name": "approved",
          "type": "bool"
        }
      ],
      "name": "setApprovalForAll",
      "outputs": [],
      "stateMutability": "nonpayable",
      "type": "function"
    },
    {
      "inputs": [
        {
          "internalType": "bytes4",
          "name": "interfaceId",
          "type": "bytes4"
        }
      ],
      "name": "supportsInterface",
      "outputs": [
        {
          "internalType": "bool",
          "name": "",
          "type": "bool"
        }
      ],
      "stateMutability": "view",
      "type": "function"
    },
    {
      "inputs": [
        {
          "internalType": "address",
          "name": "newOwner",
          "type": "address"
        }
      ],
      "name": "transferOwnership",
      "outputs": [],
      "stateMutability": "nonpayable",
      "type": "function"
    },
    {
      "inputs": [
        {
          "internalType": "uint256",
          "name": "",
          "type": "uint256"
        }
      ],
      "name": "uri",
      "outputs": [
        {
          "internalType": "string",
          "name": "",
          "type": "string"
        }
      ],
      "stateMutability": "view",
      "type": "function"
    }
  ],
  "bytecode": "0x6101206040523480156200001257600080fd5b50604051806060016040528060278152602001620022eb60279139600080546001600160a01b031916339081178255604051909182917f8be0079c531659141344cd1fd0a4f28419497f9722a3daafe3b4186f6b6457e0908290a35062000079816200018c565b504660a0818152604080518082018252600980825268139d5c9cd954185c9d60ba1b60209283018190527fa057b29384be5db0c51b85f837ed2550ed0618e98703321a162916b311b2fef560c0818152855180870187526001808252603160f81b9187018290527fc89efdaa54c0f20c7adf612882df0950f5a951637e0307cdcb4c672f298b8bc660e08190527f8b73c3c69bb8fe3d512ecc4cf759cc79239f7b179b0ffacaa9a75d522b39400f6101008190528951808b018b529788529688019590955287518089018952908152860152855180860194909452838601919091526060830191909152608082810196909652308286015283518083039095018552019091528151910120905262000288565b8051620001a1906003906020840190620001a5565b5050565b828054620001b3906200024b565b90600052602060002090601f016020900481019282620001d7576000855562000222565b82601f10620001f257805160ff191683800117855562000222565b8280016001018555821562000222579182015b828111156200022257825182559160200191906001019062000205565b506200023092915062000234565b5090565b5b8082111562000230576000815560010162000235565b600181811c908216806200026057607f821691505b602082108114156200028257634e487b7160e01b600052602260045260246000fd5b50919050565b60805160a05160c05160e0516101005161201e620002cd60003960006105b501526000610603015260006105db015260006105640152600061058d015261201e6000f3fe608060405234801561001057600080fd5b50600436106101155760003560e01c80634e1273f4116100a2578063a22cb46511610071578063a22cb46514610278578063b390c0ab1461028b578063e985e9c51461029e578063f242432a146102da578063f2fde38b146102ed57600080fd5b80634e1273f414610215578063715018a6146102355780637ecebe001461023d5780638da5cb5b1461025d57600080fd5b8063156e29f6116100e9578063156e29f6146101ab5780632eb2c2d6146101c057806330adf81f146101d35780633644e515146101fa57806348613c281461020257600080fd5b8062fdd58e1461011a57806301ffc9a71461014057806306fdde03146101635780630e89341c14610198575b600080fd5b61012d6101283660046119e3565b610300565b6040519081526020015b60405180910390f35b61015361014e366004611b11565b610399565b6040519015158152602001610137565b61018b60405180604001604052806009815260200168139d5c9cd954185c9d60ba1b81525081565b6040516101379190611d0a565b61018b6101a6366004611b4b565b6103eb565b6101be6101b9366004611a0d565b61047f565b005b6101be6101ce366004611831565b6104c9565b61012d7fdaab21af31ece73a508939fedd476a5ee5129a5ed4bb091f3236ffb45394df6281565b61012d610560565b6101be610210366004611940565b610654565b610228610223366004611a40565b610917565b6040516101379190611cb1565b6101be610a41565b61012d61024b3660046117dc565b60046020526000908152604090205481565b6000546040516001600160a01b039091168152602001610137565b6101be6102863660046119a7565b610ab5565b6101be610299366004611b64565b610ac4565b6101536102ac3660046117fe565b6001600160a01b03918216600090815260026020908152604080832093909416825291909152205460ff1690565b6101be6102e83660046118db565b610acf565b6101be6102fb3660046117dc565b610b56565b60006001600160a01b0383166103715760405162461bcd60e51b815260206004820152602b60248201527f455243313135353a2062616c616e636520717565727920666f7220746865207a60448201526a65726f206164647265737360a81b60648201526084015b60405180910390fd5b5060009081526001602090815260408083206001600160a01b03949094168352929052205490565b60006001600160e01b03198216636cdb3d1360e11b14806103ca57506001600160e01b031982166303a24d0760e21b145b806103e557506301ffc9a760e01b6001600160e01b03198316145b92915050565b6060600380546103fa90611e65565b80601f016020809104026020016040519081016040528092919081815260200182805461042690611e65565b80156104735780601f1061044857610100808354040283529160200191610473565b820191906000526020600020905b81548152906001019060200180831161045657829003601f168201915b50505050509050919050565b6000546001600160a01b031633146104a95760405162461bcd60e51b815260040161036890611df4565b6104c483838360405180602001604052806000815250610c40565b505050565b6001600160a01b0385163314806104e557506104e585336102ac565b61054c5760405162461bcd60e51b815260206004820152603260248201527f455243313135353a207472616e736665722063616c6c6572206973206e6f74206044820152711bdddb995c881b9bdc88185c1c1c9bdd995960721b6064820152608401610368565b6105598585858585610d4c565b5050505050565b60007f00000000000000000000000000000000000000000000000000000000000000004614156105af57507f000000000000000000000000000000000000000000000000000000000000000090565b604080517f000000000000000000000000000000000000000000000000000000000000000060208201527f0000000000000000000000000000000000000000000000000000000000000000918101919091527f000000000000000000000000000000000000000000000000000000000000000060608201524660808201523060a082015260c00160405160208183030381529060405280519060200120905090565b90565b834211156106a45760405162461bcd60e51b815260206004820152601b60248201527f4e75727365506172743a204578706972656420646561646c696e6500000000006044820152606401610368565b60006106ae610560565b6001600160a01b038881166000818152600460208181526040808420805482517fdaab21af31ece73a508939fedd476a5ee5129a5ed4bb091f3236ffb45394df6281860152808401889052978f1660608901526080880181905260a08089018f90528351808a03909101815260c08901845280519085012061190160f01b60e08a015260e289018a9052610102808a01919091528351808a03909101815261012290980190925286519683019690962094845291905293945090926001929190610779908490611e4d565b9091555050873b1561089457604080516020810186905280820185905260f887901b6001600160f81b0319166060820152815160418183030181526061820192839052630b135d3f60e11b9092526001600160a01b038a1691631626ba7e916107e6918591606501611ce9565b60206040518083038186803b1580156107fe57600080fd5b505afa158015610812573d6000803e3d6000fd5b505050506040513d601f19601f820116820180604052508101906108369190611b2e565b6001600160e01b031916631626ba7e60e01b1461088f5760405162461bcd60e51b8152602060048201526017602482015276139d5c9cd954185c9d0e88155b985d5d1a1bdc9a5e9959604a1b6044820152606401610368565b610901565b60006108a282878787610f2c565b9050886001600160a01b0316816001600160a01b0316146108ff5760405162461bcd60e51b8152602060048201526017602482015276139d5c9cd954185c9d0e88155b985d5d1a1bdc9a5e9959604a1b6044820152606401610368565b505b61090d888860016110d5565b5050505050505050565b6060815183511461097c5760405162461bcd60e51b815260206004820152602960248201527f455243313135353a206163636f756e747320616e6420696473206c656e677468604482015268040dad2e6dac2e8c6d60bb1b6064820152608401610368565b6000835167ffffffffffffffff81111561099857610998611f14565b6040519080825280602002602001820160405280156109c1578160200160208202803683370190505b50905060005b8451811015610a3957610a0c8582815181106109e5576109e5611efe565b60200260200101518583815181106109ff576109ff611efe565b6020026020010151610300565b828281518110610a1e57610a1e611efe565b6020908102919091010152610a3281611ecd565b90506109c7565b509392505050565b6000546001600160a01b03163314610a6b5760405162461bcd60e51b815260040161036890611df4565b600080546040516001600160a01b03909116907f8be0079c531659141344cd1fd0a4f28419497f9722a3daafe3b4186f6b6457e0908390a3600080546001600160a01b0319169055565b610ac03383836110d5565b5050565b610ac03383836111b6565b6001600160a01b038516331480610aeb5750610aeb85336102ac565b610b495760405162461bcd60e51b815260206004820152602960248201527f455243313135353a2063616c6c6572206973206e6f74206f776e6572206e6f7260448201526808185c1c1c9bdd995960ba1b6064820152608401610368565b6105598585858585611334565b6000546001600160a01b03163314610b805760405162461bcd60e51b815260040161036890611df4565b6001600160a01b038116610be55760405162461bcd60e51b815260206004820152602660248201527f4f776e61626c653a206e6577206f776e657220697320746865207a65726f206160448201526564647265737360d01b6064820152608401610368565b600080546040516001600160a01b03808516939216917f8be0079c531659141344cd1fd0a4f28419497f9722a3daafe3b4186f6b6457e091a3600080546001600160a01b0319166001600160a01b0392909216919091179055565b6001600160a01b038416610ca05760405162461bcd60e51b815260206004820152602160248201527f455243313135353a206d696e7420746f20746865207a65726f206164647265736044820152607360f81b6064820152608401610368565b33610cba81600087610cb188611455565b61055988611455565b60008481526001602090815260408083206001600160a01b038916845290915281208054859290610cec908490611e4d565b909155505060408051858152602081018590526001600160a01b0380881692600092918516917fc3d58168c5ae7397731d063d5bbf3d657854427343f4c083240f7aacaa2d0f62910160405180910390a4610559816000878787876114a0565b8151835114610dae5760405162461bcd60e51b815260206004820152602860248201527f455243313135353a2069647320616e6420616d6f756e7473206c656e677468206044820152670dad2e6dac2e8c6d60c31b6064820152608401610368565b6001600160a01b038416610dd45760405162461bcd60e51b815260040161036890611d65565b3360005b8451811015610ebe576000858281518110610df557610df5611efe565b602002602001015190506000858381518110610e1357610e13611efe565b60209081029190910181015160008481526001835260408082206001600160a01b038e168352909352919091205490915081811015610e645760405162461bcd60e51b815260040161036890611daa565b60008381526001602090815260408083206001600160a01b038e8116855292528083208585039055908b16825281208054849290610ea3908490611e4d565b9250508190555050505080610eb790611ecd565b9050610dd8565b50846001600160a01b0316866001600160a01b0316826001600160a01b03167f4a39dc06d4c0dbc64b70af90fd698a233a518aa5d07e595d983b8c0526c8f7fb8787604051610f0e929190611cc4565b60405180910390a4610f2481878787878761160b565b505050505050565b60007f7fffffffffffffffffffffffffffffff5d576e7357a4501ddfe92f46681b20a0821115610fa95760405162461bcd60e51b815260206004820152602260248201527f45434453413a20696e76616c6964207369676e6174757265202773272076616c604482015261756560f01b6064820152608401610368565b8360ff16601b1480610fbe57508360ff16601c145b6110155760405162461bcd60e51b815260206004820152602260248201527f45434453413a20696e76616c6964207369676e6174757265202776272076616c604482015261756560f01b6064820152608401610368565b6040805160008082526020820180845288905260ff871692820192909252606081018590526080810184905260019060a0016020604051602081039080840390855afa158015611069573d6000803e3d6000fd5b5050604051601f1901519150506001600160a01b0381166110cc5760405162461bcd60e51b815260206004820152601860248201527f45434453413a20696e76616c6964207369676e617475726500000000000000006044820152606401610368565b95945050505050565b816001600160a01b0316836001600160a01b031614156111495760405162461bcd60e51b815260206004820152602960248201527f455243313135353a2073657474696e6720617070726f76616c20737461747573604482015268103337b91039b2b63360b91b6064820152608401610368565b6001600160a01b03838116600081815260026020908152604080832094871680845294825291829020805460ff191686151590811790915591519182527f17307eab39ab6107e8899845ad3d59bd9653f200f220920489ca2b5937696c31910160405180910390a3505050565b6001600160a01b0383166112185760405162461bcd60e51b815260206004820152602360248201527f455243313135353a206275726e2066726f6d20746865207a65726f206164647260448201526265737360e81b6064820152608401610368565b336112488185600061122987611455565b61123287611455565b5050604080516020810190915260009052505050565b60008381526001602090815260408083206001600160a01b0388168452909152902054828110156112c75760405162461bcd60e51b8152602060048201526024808201527f455243313135353a206275726e20616d6f756e7420657863656564732062616c604482015263616e636560e01b6064820152608401610368565b60008481526001602090815260408083206001600160a01b03898116808652918452828520888703905582518981529384018890529092908616917fc3d58168c5ae7397731d063d5bbf3d657854427343f4c083240f7aacaa2d0f62910160405180910390a45050505050565b6001600160a01b03841661135a5760405162461bcd60e51b815260040161036890611d65565b3361136a818787610cb188611455565b60008481526001602090815260408083206001600160a01b038a168452909152902054838110156113ad5760405162461bcd60e51b815260040161036890611daa565b60008581526001602090815260408083206001600160a01b038b81168552925280832087850390559088168252812080548692906113ec908490611e4d565b909155505060408051868152602081018690526001600160a01b03808916928a821692918616917fc3d58168c5ae7397731d063d5bbf3d657854427343f4c083240f7aacaa2d0f62910160405180910390a461144c8288888888886114a0565b50505050505050565b6040805160018082528183019092526060916000919060208083019080368337019050509050828160008151811061148f5761148f611efe565b602090810291909101015292915050565b6001600160a01b0384163b15610f245760405163f23a6e6160e01b81526001600160a01b0385169063f23a6e61906114e49089908990889088908890600401611c6c565b602060405180830381600087803b1580156114fe57600080fd5b505af192505050801561152e575060408051601f3d908101601f1916820190925261152b91810190611b2e565b60015b6115db5761153a611f2a565b806308c379a01415611574575061154f611f45565b8061155a5750611576565b8060405162461bcd60e51b81526004016103689190611d0a565b505b60405162461bcd60e51b815260206004820152603460248201527f455243313135353a207472616e7366657220746f206e6f6e20455243313135356044820152732932b1b2b4bb32b91034b6b83632b6b2b73a32b960611b6064820152608401610368565b6001600160e01b0319811663f23a6e6160e01b1461144c5760405162461bcd60e51b815260040161036890611d1d565b6001600160a01b0384163b15610f245760405163bc197c8160e01b81526001600160a01b0385169063bc197c819061164f9089908990889088908890600401611c0e565b602060405180830381600087803b15801561166957600080fd5b505af1925050508015611699575060408051601f3d908101601f1916820190925261169691810190611b2e565b60015b6116a55761153a611f2a565b6001600160e01b0319811663bc197c8160e01b1461144c5760405162461bcd60e51b815260040161036890611d1d565b80356001600160a01b03811681146116ec57600080fd5b919050565b600082601f83011261170257600080fd5b8135602061170f82611e29565b60405161171c8282611ea0565b8381528281019150858301600585901b8701840188101561173c57600080fd5b60005b8581101561175b5781358452928401929084019060010161173f565b5090979650505050505050565b600082601f83011261177957600080fd5b813567ffffffffffffffff81111561179357611793611f14565b6040516117aa601f8301601f191660200182611ea0565b8181528460208386010111156117bf57600080fd5b816020850160208301376000918101602001919091529392505050565b6000602082840312156117ee57600080fd5b6117f7826116d5565b9392505050565b6000806040838503121561181157600080fd5b61181a836116d5565b9150611828602084016116d5565b90509250929050565b600080600080600060a0868803121561184957600080fd5b611852866116d5565b9450611860602087016116d5565b9350604086013567ffffffffffffffff8082111561187d57600080fd5b61188989838a016116f1565b9450606088013591508082111561189f57600080fd5b6118ab89838a016116f1565b935060808801359150808211156118c157600080fd5b506118ce88828901611768565b9150509295509295909350565b600080600080600060a086880312156118f357600080fd5b6118fc866116d5565b945061190a602087016116d5565b93506040860135925060608601359150608086013567ffffffffffffffff81111561193457600080fd5b6118ce88828901611768565b60008060008060008060c0878903121561195957600080fd5b611962876116d5565b9550611970602088016116d5565b945060408701359350606087013560ff8116811461198d57600080fd5b9598949750929560808101359460a0909101359350915050565b600080604083850312156119ba57600080fd5b6119c3836116d5565b9150602083013580151581146119d857600080fd5b809150509250929050565b600080604083850312156119f657600080fd5b6119ff836116d5565b946020939093013593505050565b600080600060608486031215611a2257600080fd5b611a2b846116d5565b95602085013595506040909401359392505050565b60008060408385031215611a5357600080fd5b823567ffffffffffffffff80821115611a6b57600080fd5b818501915085601f830112611a7f57600080fd5b81356020611a8c82611e29565b604051611a998282611ea0565b8381528281019150858301600585901b870184018b1015611ab957600080fd5b600096505b84871015611ae357611acf816116d5565b835260019690960195918301918301611abe565b5096505086013592505080821115611afa57600080fd5b50611b07858286016116f1565b9150509250929050565b600060208284031215611b2357600080fd5b81356117f781611fcf565b600060208284031215611b4057600080fd5b81516117f781611fcf565b600060208284031215611b5d57600080fd5b5035919050565b60008060408385031215611b7757600080fd5b50508035926020909101359150565b600081518084526020808501945080840160005b83811015611bb657815187529582019590820190600101611b9a565b509495945050505050565b6000815180845260005b81811015611be757602081850181015186830182015201611bcb565b81811115611bf9576000602083870101525b50601f01601f19169290920160200192915050565b6001600160a01b0386811682528516602082015260a060408201819052600090611c3a90830186611b86565b8281036060840152611c4c8186611b86565b90508281036080840152611c608185611bc1565b98975050505050505050565b6001600160a01b03868116825285166020820152604081018490526060810183905260a060808201819052600090611ca690830184611bc1565b979650505050505050565b6020815260006117f76020830184611b86565b604081526000611cd76040830185611b86565b82810360208401526110cc8185611b86565b828152604060208201526000611d026040830184611bc1565b949350505050565b6020815260006117f76020830184611bc1565b60208082526028908201527f455243313135353a204552433131353552656365697665722072656a656374656040820152676420746f6b656e7360c01b606082015260800190565b60208082526025908201527f455243313135353a207472616e7366657220746f20746865207a65726f206164604082015264647265737360d81b606082015260800190565b6020808252602a908201527f455243313135353a20696e73756666696369656e742062616c616e636520666f60408201526939103a3930b739b332b960b11b606082015260800190565b6020808252818101527f4f776e61626c653a2063616c6c6572206973206e6f7420746865206f776e6572604082015260600190565b600067ffffffffffffffff821115611e4357611e43611f14565b5060051b60200190565b60008219821115611e6057611e60611ee8565b500190565b600181811c90821680611e7957607f821691505b60208210811415611e9a57634e487b7160e01b600052602260045260246000fd5b50919050565b601f8201601f1916810167ffffffffffffffff81118282101715611ec657611ec6611f14565b6040525050565b6000600019821415611ee157611ee1611ee8565b5060010190565b634e487b7160e01b600052601160045260246000fd5b634e487b7160e01b600052603260045260246000fd5b634e487b7160e01b600052604160045260246000fd5b600060033d11156106515760046000803e5060005160e01c90565b600060443d1015611f535790565b6040516003193d81016004833e81513d67ffffffffffffffff8160248401118184111715611f8357505050505090565b8285019150815181811115611f9b5750505050505090565b843d8701016020828501011115611fb55750505050505090565b611fc460208286010187611ea0565b509095945050505050565b6001600160e01b031981168114611fe557600080fd5b5056fea2646970667358221220836b720c8d2bfad641fe79142dfd0a11d94650827edd51347c5929b64d0ab34664736f6c6343000805003368747470733a2f2f6170692e6d616964636f696e2e6f72672f6e75727365706172742f7b69647d",
  "linkReferences": {},
  "deployedLinkReferences": {}
}