{
  "_format": "hh-sol-artifact-1",
  "contractName": "MaidCafe",
  "sourceName": "contracts/MaidCafe.sol",
  "abi": [
    {
      "inputs": [
        {
          "internalType": "contract IMaidCoin",
          "name": "_maidCoin",
          "type": "address"
        }
      ],
      "stateMutability": "nonpayable",
      "type": "constructor"
    },
    {
      "anonymous": false,
      "inputs": [
        {
          "indexed": true,
          "internalType": "address",
          "name": "owner",
          "type": "address"
        },
        {
          "indexed": true,
          "internalType": "address",
          "name": "spender",
          "type": "address"
        },
        {
          "indexed": false,
          "internalType": "uint256",
          "name": "value",
          "type": "uint256"
        }
      ],
      "name": "Approval",
      "type": "event"
    },
    {
      "anonymous": false,
      "inputs": [
        {
          "indexed": true,
          "internalType": "address",
          "name": "user",
          "type": "address"
        },
        {
          "indexed": false,
          "internalType": "uint256",
          "name": "amount",
          "type": "uint256"
        }
      ],
      "name": "Enter",
      "type": "event"
    },
    {
      "anonymous": false,
      "inputs": [
        {
          "indexed": true,
          "internalType": "address",
          "name": "user",
          "type": "address"
        },
        {
          "indexed": false,
          "internalType": "uint256",
          "name": "share",
          "type": "uint256"
        }
      ],
      "name": "Leave",
      "type": "event"
    },
    {
      "anonymous": false,
      "inputs": [
        {
          "indexed": true,
          "internalType": "address",
          "name": "from",
          "type": "address"
        },
        {
          "indexed": true,
          "internalType": "address",
          "name": "to",
          "type": "address"
        },
        {
          "indexed": false,
          "internalType": "uint256",
          "name": "value",
          "type": "uint256"
        }
      ],
      "name": "Transfer",
      "type": "event"
    },
    {
      "inputs": [
        {
          "internalType": "address",
          "name": "owner",
          "type": "address"
        },
        {
          "internalType": "address",
          "name": "spender",
          "type": "address"
        }
      ],
      "name": "allowance",
      "outputs": [
        {
          "internalType": "uint256",
          "name": "",
          "type": "uint256"
        }
      ],
      "stateMutability": "view",
      "type": "function"
    },
    {
      "inputs": [
        {
          "internalType": "address",
          "name": "spender",
          "type": "address"
        },
        {
          "internalType": "uint256",
          "name": "amount",
          "type": "uint256"
        }
      ],
      "name": "approve",
      "outputs": [
        {
          "internalType": "bool",
          "name": "",
          "type": "bool"
        }
      ],
      "stateMutability": "nonpayable",
      "type": "function"
    },
    {
      "inputs": [
        {
          "internalType": "address",
          "name": "account",
          "type": "address"
        }
      ],
      "name": "balanceOf",
      "outputs": [
        {
          "internalType": "uint256",
          "name": "",
          "type": "uint256"
        }
      ],
      "stateMutability": "view",
      "type": "function"
    },
    {
      "inputs": [],
      "name": "decimals",
      "outputs": [
        {
          "internalType": "uint8",
          "name": "",
          "type": "uint8"
        }
      ],
      "stateMutability": "view",
      "type": "function"
    },
    {
      "inputs": [
        {
          "internalType": "address",
          "name": "spender",
          "type": "address"
        },
        {
          "internalType": "uint256",
          "name": "subtractedValue",
          "type": "uint256"
        }
      ],
      "name": "decreaseAllowance",
      "outputs": [
        {
          "internalType": "bool",
          "name": "",
          "type": "bool"
        }
      ],
      "stateMutability": "nonpayable",
      "type": "function"
    },
    {
      "inputs": [
        {
          "internalType": "uint256",
          "name": "_amount",
          "type": "uint256"
        }
      ],
      "name": "enter",
      "outputs": [],
      "stateMutability": "nonpayable",
      "type": "function"
    },
    {
      "inputs": [
        {
          "internalType": "uint256",
          "name": "_amount",
          "type": "uint256"
        },
        {
          "internalType": "uint256",
          "name": "deadline",
          "type": "uint256"
        },
        {
          "internalType": "uint8",
          "name": "v",
          "type": "uint8"
        },
        {
          "internalType": "bytes32",
          "name": "r",
          "type": "bytes32"
        },
        {
          "internalType": "bytes32",
          "name": "s",
          "type": "bytes32"
        }
      ],
      "name": "enterWithPermit",
      "outputs": [],
      "stateMutability": "nonpayable",
      "type": "function"
    },
    {
      "inputs": [
        {
          "internalType": "address",
          "name": "spender",
          "type": "address"
        },
        {
          "internalType": "uint256",
          "name": "addedValue",
          "type": "uint256"
        }
      ],
      "name": "increaseAllowance",
      "outputs": [
        {
          "internalType": "bool",
          "name": "",
          "type": "bool"
        }
      ],
      "stateMutability": "nonpayable",
      "type": "function"
    },
    {
      "inputs": [
        {
          "internalType": "uint256",
          "name": "_share",
          "type": "uint256"
        }
      ],
      "name": "leave",
      "outputs": [],
      "stateMutability": "nonpayable",
      "type": "function"
    },
    {
      "inputs": [],
      "name": "maidCoin",
      "outputs": [
        {
          "internalType": "contract IMaidCoin",
          "name": "",
          "type": "address"
        }
      ],
      "stateMutability": "view",
      "type": "function"
    },
    {
      "inputs": [],
      "name": "name",
      "outputs": [
        {
          "internalType": "string",
          "name": "",
          "type": "string"
        }
      ],
      "stateMutability": "view",
      "type": "function"
    },
    {
      "inputs": [],
      "name": "symbol",
      "outputs": [
        {
          "internalType": "string",
          "name": "",
          "type": "string"
        }
      ],
      "stateMutability": "view",
      "type": "function"
    },
    {
      "inputs": [],
      "name": "totalSupply",
      "outputs": [
        {
          "internalType": "uint256",
          "name": "",
          "type": "uint256"
        }
      ],
      "stateMutability": "view",
      "type": "function"
    },
    {
      "inputs": [
        {
          "internalType": "address",
          "name": "recipient",
          "type": "address"
        },
        {
          "internalType": "uint256",
          "name": "amount",
          "type": "uint256"
        }
      ],
      "name": "transfer",
      "outputs": [
        {
          "internalType": "bool",
          "name": "",
          "type": "bool"
        }
      ],
      "stateMutability": "nonpayable",
      "type": "function"
    },
    {
      "inputs": [
        {
          "internalType": "address",
          "name": "sender",
          "type": "address"
        },
        {
          "internalType": "address",
          "name": "recipient",
          "type": "address"
        },
        {
          "internalType": "uint256",
          "name": "amount",
          "type": "uint256"
        }
      ],
      "name": "transferFrom",
      "outputs": [
        {
          "internalType": "bool",
          "name": "",
          "type": "bool"
        }
      ],
      "stateMutability": "nonpayable",
      "type": "function"
    }
  ],
  "bytecode": "0x60a06040523480156200001157600080fd5b506040516200152b3803806200152b83398101604081905262000034916200015f565b604051806040016040528060098152602001684d616964204361666560b81b815250604051806040016040528060038152602001624f4d5560e81b81525081600390805190602001906200008a929190620000b9565b508051620000a0906004906020840190620000b9565b50505060601b6001600160601b031916608052620001ce565b828054620000c79062000191565b90600052602060002090601f016020900481019282620000eb576000855562000136565b82601f106200010657805160ff191683800117855562000136565b8280016001018555821562000136579182015b828111156200013657825182559160200191906001019062000119565b506200014492915062000148565b5090565b5b8082111562000144576000815560010162000149565b6000602082840312156200017257600080fd5b81516001600160a01b03811681146200018a57600080fd5b9392505050565b600181811c90821680620001a657607f821691505b60208210811415620001c857634e487b7160e01b600052602260045260246000fd5b50919050565b60805160601c61131b62000210600039600081816101c501528181610453015281816104fa0152818161061e0152818161070001526107a7015261131b6000f3fe608060405234801561001057600080fd5b50600436106100f55760003560e01c806370a0823111610097578063a59f3e0c11610066578063a59f3e0c1461021a578063a9059cbb1461022d578063c11cd83314610240578063dd62ed3e1461025357600080fd5b806370a0823114610197578063849e5aff146101c057806395d89b41146101ff578063a457c2d71461020757600080fd5b806323b872dd116100d357806323b872dd1461014d578063313ce56714610160578063395093511461016f57806367dfd4c91461018257600080fd5b806306fdde03146100fa578063095ea7b31461011857806318160ddd1461013b575b600080fd5b61010261028c565b60405161010f91906111c5565b60405180910390f35b61012b6101263660046110dc565b61031e565b604051901515815260200161010f565b6002545b60405190815260200161010f565b61012b61015b3660046110a0565b610334565b6040516012815260200161010f565b61012b61017d3660046110dc565b6103ec565b610195610190366004611128565b610423565b005b61013f6101a5366004611052565b6001600160a01b031660009081526020819052604090205490565b6101e77f000000000000000000000000000000000000000000000000000000000000000081565b6040516001600160a01b03909116815260200161010f565b61010261055c565b61012b6102153660046110dc565b61056b565b610195610228366004611128565b610606565b61012b61023b3660046110dc565b61075a565b61019561024e36600461115a565b610767565b61013f61026136600461106d565b6001600160a01b03918216600090815260016020908152604080832093909416825291909152205490565b60606003805461029b90611294565b80601f01602080910402602001604051908101604052809291908181526020018280546102c790611294565b80156103145780601f106102e957610100808354040283529160200191610314565b820191906000526020600020905b8154815290600101906020018083116102f757829003601f168201915b5050505050905090565b600061032b33848461081b565b50600192915050565b6000610341848484610940565b6001600160a01b0384166000908152600160209081526040808320338452909152902054828110156103cb5760405162461bcd60e51b815260206004820152602860248201527f45524332303a207472616e7366657220616d6f756e74206578636565647320616044820152676c6c6f77616e636560c01b60648201526084015b60405180910390fd5b6103df85336103da8685611251565b61081b565b60019150505b9392505050565b3360008181526001602090815260408083206001600160a01b0387168452909152812054909161032b9185906103da9086906111f8565b600061042e60025490565b6040516370a0823160e01b815230600482015290915060009082906001600160a01b037f000000000000000000000000000000000000000000000000000000000000000016906370a082319060240160206040518083038186803b15801561049557600080fd5b505afa1580156104a9573d6000803e3d6000fd5b505050506040513d601f19601f820116820180604052508101906104cd9190611141565b6104d79085611232565b6104e19190611210565b90506104ed3384610b18565b6105216001600160a01b037f0000000000000000000000000000000000000000000000000000000000000000163383610c67565b60405183815233907f61a26f7c17d8780c095ccfa67e689a13ee4e06ddce3da18956369f4a396100e8906020015b60405180910390a2505050565b60606004805461029b90611294565b3360009081526001602090815260408083206001600160a01b0386168452909152812054828110156105ed5760405162461bcd60e51b815260206004820152602560248201527f45524332303a2064656372656173656420616c6c6f77616e63652062656c6f77604482015264207a65726f60d81b60648201526084016103c2565b6105fc33856103da8685611251565b5060019392505050565b6040516370a0823160e01b81523060048201526000907f00000000000000000000000000000000000000000000000000000000000000006001600160a01b0316906370a082319060240160206040518083038186803b15801561066857600080fd5b505afa15801561067c573d6000803e3d6000fd5b505050506040513d601f19601f820116820180604052508101906106a09190611141565b905060006106ad60025490565b90508015806106ba575081155b156106ce576106c93384610ccf565b6106f3565b6000826106db8386611232565b6106e59190611210565b90506106f13382610ccf565b505b6107286001600160a01b037f000000000000000000000000000000000000000000000000000000000000000016333086610dae565b60405183815233907f1fb48929215fc354244acea33112720ce5b7ba6912db70bb0149e77aa7c91ce19060200161054f565b600061032b338484610940565b60405163d505accf60e01b8152336004820152306024820152604481018690526064810185905260ff8416608482015260a4810183905260c481018290527f00000000000000000000000000000000000000000000000000000000000000006001600160a01b03169063d505accf9060e401600060405180830381600087803b1580156107f357600080fd5b505af1158015610807573d6000803e3d6000fd5b5050505061081485610606565b5050505050565b6001600160a01b03831661087d5760405162461bcd60e51b8152602060048201526024808201527f45524332303a20617070726f76652066726f6d20746865207a65726f206164646044820152637265737360e01b60648201526084016103c2565b6001600160a01b0382166108de5760405162461bcd60e51b815260206004820152602260248201527f45524332303a20617070726f766520746f20746865207a65726f206164647265604482015261737360f01b60648201526084016103c2565b6001600160a01b0383811660008181526001602090815260408083209487168084529482529182902085905590518481527f8c5be1e5ebec7d5bd14f71427d1e84f3dd0314c0f7b2291e5b200ac8c7c3b92591015b60405180910390a3505050565b6001600160a01b0383166109a45760405162461bcd60e51b815260206004820152602560248201527f45524332303a207472616e736665722066726f6d20746865207a65726f206164604482015264647265737360d81b60648201526084016103c2565b6001600160a01b038216610a065760405162461bcd60e51b815260206004820152602360248201527f45524332303a207472616e7366657220746f20746865207a65726f206164647260448201526265737360e81b60648201526084016103c2565b6001600160a01b03831660009081526020819052604090205481811015610a7e5760405162461bcd60e51b815260206004820152602660248201527f45524332303a207472616e7366657220616d6f756e7420657863656564732062604482015265616c616e636560d01b60648201526084016103c2565b610a888282611251565b6001600160a01b038086166000908152602081905260408082209390935590851681529081208054849290610abe9084906111f8565b92505081905550826001600160a01b0316846001600160a01b03167fddf252ad1be2c89b69c2b068fc378daa952ba7f163c4a11628f55a4df523b3ef84604051610b0a91815260200190565b60405180910390a350505050565b6001600160a01b038216610b785760405162461bcd60e51b815260206004820152602160248201527f45524332303a206275726e2066726f6d20746865207a65726f206164647265736044820152607360f81b60648201526084016103c2565b6001600160a01b03821660009081526020819052604090205481811015610bec5760405162461bcd60e51b815260206004820152602260248201527f45524332303a206275726e20616d6f756e7420657863656564732062616c616e604482015261636560f01b60648201526084016103c2565b610bf68282611251565b6001600160a01b03841660009081526020819052604081209190915560028054849290610c24908490611251565b90915550506040518281526000906001600160a01b038516907fddf252ad1be2c89b69c2b068fc378daa952ba7f163c4a11628f55a4df523b3ef90602001610933565b6040516001600160a01b038316602482015260448101829052610cca90849063a9059cbb60e01b906064015b60408051601f198184030181529190526020810180516001600160e01b03166001600160e01b031990931692909217909152610dec565b505050565b6001600160a01b038216610d255760405162461bcd60e51b815260206004820152601f60248201527f45524332303a206d696e7420746f20746865207a65726f20616464726573730060448201526064016103c2565b8060026000828254610d3791906111f8565b90915550506001600160a01b03821660009081526020819052604081208054839290610d649084906111f8565b90915550506040518181526001600160a01b038316906000907fddf252ad1be2c89b69c2b068fc378daa952ba7f163c4a11628f55a4df523b3ef9060200160405180910390a35050565b6040516001600160a01b0380851660248301528316604482015260648101829052610de69085906323b872dd60e01b90608401610c93565b50505050565b6000610e41826040518060400160405280602081526020017f5361666545524332303a206c6f772d6c6576656c2063616c6c206661696c6564815250856001600160a01b0316610ebe9092919063ffffffff16565b805190915015610cca5780806020019051810190610e5f9190611106565b610cca5760405162461bcd60e51b815260206004820152602a60248201527f5361666545524332303a204552433230206f7065726174696f6e20646964206e6044820152691bdd081cdd58d8d9595960b21b60648201526084016103c2565b6060610ecd8484600085610ed5565b949350505050565b606082471015610f365760405162461bcd60e51b815260206004820152602660248201527f416464726573733a20696e73756666696369656e742062616c616e636520666f6044820152651c8818d85b1b60d21b60648201526084016103c2565b843b610f845760405162461bcd60e51b815260206004820152601d60248201527f416464726573733a2063616c6c20746f206e6f6e2d636f6e747261637400000060448201526064016103c2565b600080866001600160a01b03168587604051610fa091906111a9565b60006040518083038185875af1925050503d8060008114610fdd576040519150601f19603f3d011682016040523d82523d6000602084013e610fe2565b606091505b5091509150610ff2828286610ffd565b979650505050505050565b6060831561100c5750816103e5565b82511561101c5782518084602001fd5b8160405162461bcd60e51b81526004016103c291906111c5565b80356001600160a01b038116811461104d57600080fd5b919050565b60006020828403121561106457600080fd5b6103e582611036565b6000806040838503121561108057600080fd5b61108983611036565b915061109760208401611036565b90509250929050565b6000806000606084860312156110b557600080fd5b6110be84611036565b92506110cc60208501611036565b9150604084013590509250925092565b600080604083850312156110ef57600080fd5b6110f883611036565b946020939093013593505050565b60006020828403121561111857600080fd5b815180151581146103e557600080fd5b60006020828403121561113a57600080fd5b5035919050565b60006020828403121561115357600080fd5b5051919050565b600080600080600060a0868803121561117257600080fd5b8535945060208601359350604086013560ff8116811461119157600080fd5b94979396509394606081013594506080013592915050565b600082516111bb818460208701611268565b9190910192915050565b60208152600082518060208401526111e4816040850160208701611268565b601f01601f19169190910160400192915050565b6000821982111561120b5761120b6112cf565b500190565b60008261122d57634e487b7160e01b600052601260045260246000fd5b500490565b600081600019048311821515161561124c5761124c6112cf565b500290565b600082821015611263576112636112cf565b500390565b60005b8381101561128357818101518382015260200161126b565b83811115610de65750506000910152565b600181811c908216806112a857607f821691505b602082108114156112c957634e487b7160e01b600052602260045260246000fd5b50919050565b634e487b7160e01b600052601160045260246000fdfea26469706673582212200ced0e4f5d4dab0e2272a6e4dbbe61bcdee98eddf8d6408039792d437d4e895864736f6c63430008050033",
  "linkReferences": {},
  "deployedLinkReferences": {}
}